{
  "contractName": "SupplyChain",
  "abi": [
    {
      "inputs": [],
      "payable": false,
      "stateMutability": "nonpayable",
      "type": "constructor"
    },
    {
      "anonymous": false,
      "inputs": [
        {
          "indexed": false,
          "internalType": "uint256",
          "name": "uid",
          "type": "uint256"
        }
      ],
      "name": "Manufactured",
      "type": "event"
    },
    {
      "constant": true,
      "inputs": [],
      "name": "uid",
      "outputs": [
        {
          "internalType": "uint256",
          "name": "",
          "type": "uint256"
        }
      ],
      "payable": false,
      "stateMutability": "view",
      "type": "function"
    },
    {
      "constant": true,
      "inputs": [
        {
          "internalType": "address",
          "name": "_account",
          "type": "address"
        }
      ],
      "name": "hasManufacturerRole",
      "outputs": [
        {
          "internalType": "bool",
          "name": "",
          "type": "bool"
        }
      ],
      "payable": false,
      "stateMutability": "view",
      "type": "function"
    },
    {
      "constant": false,
      "inputs": [
        {
          "internalType": "address",
          "name": "_account",
          "type": "address"
        }
      ],
      "name": "addManufacturerRole",
      "outputs": [],
      "payable": false,
      "stateMutability": "nonpayable",
      "type": "function"
    },
    {
      "constant": true,
      "inputs": [
        {
          "internalType": "address",
          "name": "_account",
          "type": "address"
        }
      ],
      "name": "hasDistributorRole",
      "outputs": [
        {
          "internalType": "bool",
          "name": "",
          "type": "bool"
        }
      ],
      "payable": false,
      "stateMutability": "view",
      "type": "function"
    },
    {
      "constant": false,
      "inputs": [
        {
          "internalType": "address",
          "name": "_account",
          "type": "address"
        }
      ],
      "name": "addDistributorRole",
      "outputs": [],
      "payable": false,
      "stateMutability": "nonpayable",
      "type": "function"
    },
    {
      "constant": true,
      "inputs": [
        {
          "internalType": "address",
          "name": "_account",
          "type": "address"
        }
      ],
      "name": "hasDeliveryRole",
      "outputs": [
        {
          "internalType": "bool",
          "name": "",
          "type": "bool"
        }
      ],
      "payable": false,
      "stateMutability": "view",
      "type": "function"
    },
    {
      "constant": false,
      "inputs": [
        {
          "internalType": "address",
          "name": "_account",
          "type": "address"
        }
      ],
      "name": "addDeliveryRole",
      "outputs": [],
      "payable": false,
      "stateMutability": "nonpayable",
      "type": "function"
    },
    {
      "constant": true,
      "inputs": [
        {
          "internalType": "address",
          "name": "_account",
          "type": "address"
        }
      ],
      "name": "hasVaccinationCenterRole",
      "outputs": [
        {
          "internalType": "bool",
          "name": "",
          "type": "bool"
        }
      ],
      "payable": false,
      "stateMutability": "view",
      "type": "function"
    },
    {
      "constant": false,
      "inputs": [
        {
          "internalType": "address",
          "name": "_account",
          "type": "address"
        }
      ],
      "name": "addVaccinationCenterRole",
      "outputs": [],
      "payable": false,
      "stateMutability": "nonpayable",
      "type": "function"
    },
    {
      "constant": false,
      "inputs": [
        {
          "internalType": "string",
          "name": "manufacturerLongitude",
          "type": "string"
        },
        {
          "internalType": "string",
          "name": "manufacturerLatitude",
          "type": "string"
        },
        {
          "internalType": "string",
          "name": "productName",
          "type": "string"
        },
        {
          "internalType": "uint256",
          "name": "productPrice",
          "type": "uint256"
        },
        {
          "internalType": "string",
          "name": "productCategory",
          "type": "string"
        }
      ],
      "name": "manufactureProduct",
      "outputs": [],
      "payable": false,
      "stateMutability": "nonpayable",
      "type": "function"
    }
  ],
  "bytecode": "0x608060405234801561001057600080fd5b5033600160006101000a81548173ffffffffffffffffffffffffffffffffffffffff021916908373ffffffffffffffffffffffffffffffffffffffff1602179055506001600081905550611377806100696000396000f3fe608060405234801561001057600080fd5b506004361061009e5760003560e01c80637c7507c4116100665780637c7507c4146102575780638290f8591461029b578063a8a7acad146102df578063c56142b514610323578063f514ce36146105ad5761009e565b806303ea0b5a146100a3578063179c5c57146100ff5780635ac65f30146101435780636000ada11461019f5780636971d383146101fb575b600080fd5b6100e5600480360360208110156100b957600080fd5b81019080803573ffffffffffffffffffffffffffffffffffffffff1690602001909291905050506105cb565b604051808215151515815260200191505060405180910390f35b6101416004803603602081101561011557600080fd5b81019080803573ffffffffffffffffffffffffffffffffffffffff169060200190929190505050610624565b005b6101856004803603602081101561015957600080fd5b81019080803573ffffffffffffffffffffffffffffffffffffffff1690602001909291905050506106ef565b604051808215151515815260200191505060405180910390f35b6101e1600480360360208110156101b557600080fd5b81019080803573ffffffffffffffffffffffffffffffffffffffff169060200190929190505050610748565b604051808215151515815260200191505060405180910390f35b61023d6004803603602081101561021157600080fd5b81019080803573ffffffffffffffffffffffffffffffffffffffff1690602001909291905050506107a1565b604051808215151515815260200191505060405180910390f35b6102996004803603602081101561026d57600080fd5b81019080803573ffffffffffffffffffffffffffffffffffffffff1690602001909291905050506107fa565b005b6102dd600480360360208110156102b157600080fd5b81019080803573ffffffffffffffffffffffffffffffffffffffff1690602001909291905050506108c5565b005b610321600480360360208110156102f557600080fd5b81019080803573ffffffffffffffffffffffffffffffffffffffff169060200190929190505050610990565b005b6105ab600480360360a081101561033957600080fd5b810190808035906020019064010000000081111561035657600080fd5b82018360208201111561036857600080fd5b8035906020019184600183028401116401000000008311171561038a57600080fd5b91908080601f016020809104026020016040519081016040528093929190818152602001838380828437600081840152601f19601f820116905080830192505050505050509192919290803590602001906401000000008111156103ed57600080fd5b8201836020820111156103ff57600080fd5b8035906020019184600183028401116401000000008311171561042157600080fd5b91908080601f016020809104026020016040519081016040528093929190818152602001838380828437600081840152601f19601f8201169050808301925050505050505091929192908035906020019064010000000081111561048457600080fd5b82018360208201111561049657600080fd5b803590602001918460018302840111640100000000831117156104b857600080fd5b91908080601f016020809104026020016040519081016040528093929190818152602001838380828437600081840152601f19601f820116905080830192505050505050509192919290803590602001909291908035906020019064010000000081111561052557600080fd5b82018360208201111561053757600080fd5b8035906020019184600183028401116401000000008311171561055957600080fd5b91908080601f016020809104026020016040519081016040528093929190818152602001838380828437600081840152601f19601f820116905080830192505050505050509192919290505050610a5b565b005b6105b5611135565b6040518082815260200191505060405180910390f35b6000600260008373ffffffffffffffffffffffffffffffffffffffff1673ffffffffffffffffffffffffffffffffffffffff16815260200190815260200160002060000160019054906101000a900460ff169050919050565b600160009054906101000a900473ffffffffffffffffffffffffffffffffffffffff1673ffffffffffffffffffffffffffffffffffffffff163373ffffffffffffffffffffffffffffffffffffffff161461067e57600080fd5b610687816106ef565b1561069157600080fd5b6001600260008373ffffffffffffffffffffffffffffffffffffffff1673ffffffffffffffffffffffffffffffffffffffff16815260200190815260200160002060000160026101000a81548160ff02191690831515021790555050565b6000600260008373ffffffffffffffffffffffffffffffffffffffff1673ffffffffffffffffffffffffffffffffffffffff16815260200190815260200160002060000160029054906101000a900460ff169050919050565b6000600260008373ffffffffffffffffffffffffffffffffffffffff1673ffffffffffffffffffffffffffffffffffffffff16815260200190815260200160002060000160009054906101000a900460ff169050919050565b6000600260008373ffffffffffffffffffffffffffffffffffffffff1673ffffffffffffffffffffffffffffffffffffffff16815260200190815260200160002060000160039054906101000a900460ff169050919050565b600160009054906101000a900473ffffffffffffffffffffffffffffffffffffffff1673ffffffffffffffffffffffffffffffffffffffff163373ffffffffffffffffffffffffffffffffffffffff161461085457600080fd5b61085d816107a1565b1561086757600080fd5b6001600260008373ffffffffffffffffffffffffffffffffffffffff1673ffffffffffffffffffffffffffffffffffffffff16815260200190815260200160002060000160036101000a81548160ff02191690831515021790555050565b600160009054906101000a900473ffffffffffffffffffffffffffffffffffffffff1673ffffffffffffffffffffffffffffffffffffffff163373ffffffffffffffffffffffffffffffffffffffff161461091f57600080fd5b61092881610748565b1561093257600080fd5b6001600260008373ffffffffffffffffffffffffffffffffffffffff1673ffffffffffffffffffffffffffffffffffffffff16815260200190815260200160002060000160006101000a81548160ff02191690831515021790555050565b600160009054906101000a900473ffffffffffffffffffffffffffffffffffffffff1673ffffffffffffffffffffffffffffffffffffffff163373ffffffffffffffffffffffffffffffffffffffff16146109ea57600080fd5b6109f3816105cb565b156109fd57600080fd5b6001600260008373ffffffffffffffffffffffffffffffffffffffff1673ffffffffffffffffffffffffffffffffffffffff16815260200190815260200160002060000160016101000a81548160ff02191690831515021790555050565b610a6433610748565b610a6d57600080fd5b610a7561113b565b60005481600001516020018181525050838160000151600001819052508281600001516040018181525050818160000151606001819052503381604001516000019073ffffffffffffffffffffffffffffffffffffffff16908173ffffffffffffffffffffffffffffffffffffffff16815250508581604001516020018190525084816040015160400181905250600081602001906000811115610b1557fe5b90816000811115610b2257fe5b815250508060036000805481526020019081526020016000206000820151816000016000820151816000019080519060200190610b60929190611199565b5060208201518160010155604082015181600201556060820151816003019080519060200190610b91929190611199565b50505060208201518160040160006101000a81548160ff02191690836000811115610bb857fe5b021790555060408201518160050160008201518160000160006101000a81548173ffffffffffffffffffffffffffffffffffffffff021916908373ffffffffffffffffffffffffffffffffffffffff1602179055506020820151816001019080519060200190610c29929190611199565b506040820151816002019080519060200190610c46929190611199565b50505060608201518160080160008201518160000160006101000a81548173ffffffffffffffffffffffffffffffffffffffff021916908373ffffffffffffffffffffffffffffffffffffffff1602179055506020820151816001019080519060200190610cb5929190611199565b506040820151816002019080519060200190610cd2929190611199565b505050608082015181600b0160008201518160000160006101000a81548173ffffffffffffffffffffffffffffffffffffffff021916908373ffffffffffffffffffffffffffffffffffffffff1602179055506020820151816001019080519060200190610d41929190611199565b506040820151816002019080519060200190610d5e929190611199565b50505060a082015181600e0160008201518160000160006101000a81548173ffffffffffffffffffffffffffffffffffffffff021916908373ffffffffffffffffffffffffffffffffffffffff1602179055506020820151816001019080519060200190610dcd929190611199565b506040820151816002019080519060200190610dea929190611199565b505050905050600460008054815260200190815260200160002060000181908060018154018082558091505090600182039060005260206000209060110201600090919290919091506000820151816000016000820151816000019080519060200190610e58929190611199565b5060208201518160010155604082015181600201556060820151816003019080519060200190610e89929190611199565b50505060208201518160040160006101000a81548160ff02191690836000811115610eb057fe5b021790555060408201518160050160008201518160000160006101000a81548173ffffffffffffffffffffffffffffffffffffffff021916908373ffffffffffffffffffffffffffffffffffffffff1602179055506020820151816001019080519060200190610f21929190611199565b506040820151816002019080519060200190610f3e929190611199565b50505060608201518160080160008201518160000160006101000a81548173ffffffffffffffffffffffffffffffffffffffff021916908373ffffffffffffffffffffffffffffffffffffffff1602179055506020820151816001019080519060200190610fad929190611199565b506040820151816002019080519060200190610fca929190611199565b505050608082015181600b0160008201518160000160006101000a81548173ffffffffffffffffffffffffffffffffffffffff021916908373ffffffffffffffffffffffffffffffffffffffff1602179055506020820151816001019080519060200190611039929190611199565b506040820151816002019080519060200190611056929190611199565b50505060a082015181600e0160008201518160000160006101000a81548173ffffffffffffffffffffffffffffffffffffffff021916908373ffffffffffffffffffffffffffffffffffffffff16021790555060208201518160010190805190602001906110c5929190611199565b5060408201518160020190805190602001906110e2929190611199565b5050505050507fd29d8a68ca7c8c74be5579719d445aabfe230ed6e6a83aff475a663500eb76096000546040518082815260200191505060405180910390a1600160005401600081905550505050505050565b60005481565b6040518060c0016040528061114e611219565b815260200160008081111561115f57fe5b815260200161116c611241565b8152602001611179611278565b81526020016111866112af565b81526020016111936112e6565b81525090565b828054600181600116156101000203166002900490600052602060002090601f016020900481019282601f106111da57805160ff1916838001178555611208565b82800160010185558215611208579182015b828111156112075782518255916020019190600101906111ec565b5b509050611215919061131d565b5090565b6040518060800160405280606081526020016000815260200160008152602001606081525090565b6040518060600160405280600073ffffffffffffffffffffffffffffffffffffffff16815260200160608152602001606081525090565b6040518060600160405280600073ffffffffffffffffffffffffffffffffffffffff16815260200160608152602001606081525090565b6040518060600160405280600073ffffffffffffffffffffffffffffffffffffffff16815260200160608152602001606081525090565b6040518060600160405280600073ffffffffffffffffffffffffffffffffffffffff16815260200160608152602001606081525090565b61133f91905b8082111561133b576000816000905550600101611323565b5090565b9056fea265627a7a723158208030ab1278e304bd830909272895682ab56a39f5899ce307fa4b0b95e306191d64736f6c63430005100032",
  "source": "// SPDX-License-Identifier: MIT\r\npragma solidity >=0.4.21 <8.10.0;\r\n\r\nimport \"./Structure.sol\";\r\n\r\ncontract SupplyChain {\r\n  uint256 public uid;\r\n  address owner;\r\n\r\n  mapping(address => Structure.Roles) roles;\r\n  mapping(uint256 => Structure.Product) products;\r\n  mapping(uint256 => Structure.ProductHistory) productHistory;\r\n\r\n  constructor() public{\r\n        owner = msg.sender;\r\n        uid = 1;\r\n    }\r\n\r\n  event Manufactured(uint256 uid);\r\n\r\n  function hasManufacturerRole(address _account) public view returns (bool) {\r\n        return roles[_account].Manufacturer;\r\n    }\r\n\r\n  function addManufacturerRole(address _account) public {\r\n    require(msg.sender==owner);\r\n    require(!hasManufacturerRole(_account));\r\n        roles[_account].Manufacturer = true;\r\n    }\r\n\r\n  function hasDistributorRole(address _account) public view returns (bool) {\r\n        return roles[_account].Distributor;\r\n    }\r\n\r\n  function addDistributorRole(address _account) public {\r\n    require(msg.sender==owner);\r\n    require(!hasDistributorRole(_account));\r\n        roles[_account].Distributor = true;\r\n    }\r\n\r\n  function hasDeliveryRole(address _account) public view returns (bool) {\r\n        return roles[_account].Delivery;\r\n    }\r\n\r\n  function addDeliveryRole(address _account) public {\r\n    require(msg.sender==owner);\r\n    require(!hasDeliveryRole(_account));\r\n\r\n        roles[_account].Delivery = true;\r\n    }\r\n\r\n  function hasVaccinationCenterRole(address _account) public view returns (bool) {\r\n        return roles[_account].VaccinationCenter;\r\n    }\r\n\r\n  function addVaccinationCenterRole(address _account) public {\r\n    require(msg.sender==owner);\r\n    require(!hasVaccinationCenterRole(_account));\r\n        roles[_account].VaccinationCenter = true;\r\n    }\r\n\r\nfunction manufactureProduct(\r\n        string memory manufacturerLongitude,\r\n        string memory manufacturerLatitude,\r\n        string memory productName,\r\n        uint256 productPrice,\r\n        string memory productCategory\r\n    ) public {\r\n        require(hasManufacturerRole(msg.sender));\r\n        Structure.Product memory product;\r\n        product.productdet.productid = uid;\r\n        product.productdet.productName = productName;\r\n        product.productdet.productPrice = productPrice;\r\n        product.productdet.productCategory = productCategory;\r\n        product.manufacturer.manufacturer = msg.sender;\r\n        product.manufacturer.manufacturerLongitude = manufacturerLongitude;\r\n        product.manufacturer.manufacturerLatitude = manufacturerLatitude;\r\n        product.productState = Structure.State.Manufactured;\r\n        \r\n        products[uid] = product;\r\n\r\n        productHistory[uid].history.push(product);\r\n        \r\n        emit Manufactured(uid);\r\n        uid = uid + 1;\r\n    }\r\n}\r\n",
  "sourcePath": "C:\\Users\\Yash Tayal\\Desktop\\Projects\\vaccine-distributtion-system\\contracts\\SupplyChain.sol",
  "compiler": {
    "name": "solc",
    "version": "0.5.16+commit.9c3226ce.Emscripten.clang"
  },
  "schemaVersion": "3.4.3",
  "updatedAt": "2022-01-31T16:24:57.099Z",
  "networkType": "ethereum",
  "devdoc": {
    "methods": {}
  },
  "userdoc": {
    "methods": {}
  }
}