{
  "contractName": "SupplyChain",
  "abi": [
    {
      "constant": false,
      "inputs": [
        {
          "name": "_account",
          "type": "address"
        }
      ],
      "name": "addManufacturerRole",
      "outputs": [],
      "payable": false,
      "stateMutability": "nonpayable",
      "type": "function",
      "signature": "0x8290f859"
    },
    {
      "constant": false,
      "inputs": [
        {
          "name": "_account",
          "type": "address"
        }
      ],
      "name": "DistributorRole",
      "outputs": [],
      "payable": false,
      "stateMutability": "nonpayable",
      "type": "function",
      "signature": "0x167048d7"
    },
    {
      "constant": false,
      "inputs": [
        {
          "name": "_account",
          "type": "address"
        }
      ],
      "name": "addDeliveryrRole",
      "outputs": [],
      "payable": false,
      "stateMutability": "nonpayable",
      "type": "function",
      "signature": "0x7fd717d4"
    },
    {
      "constant": false,
      "inputs": [
        {
          "name": "_account",
          "type": "address"
        }
      ],
      "name": "addVaccination_CenterRole",
      "outputs": [],
      "payable": false,
      "stateMutability": "nonpayable",
      "type": "function",
      "signature": "0xf5a1b23c"
    }
  ],
  "bytecode": "0x608060405234801561001057600080fd5b506101fc806100206000396000f3fe6080604052600436106100615763ffffffff7c0100000000000000000000000000000000000000000000000000000000600035041663167048d781146100665780637fd717d41461009b5780638290f859146100ce578063f5a1b23c14610101575b600080fd5b34801561007257600080fd5b506100996004803603602081101561008957600080fd5b5035600160a060020a0316610134565b005b3480156100a757600080fd5b50610099600480360360208110156100be57600080fd5b5035600160a060020a031661015a565b3480156100da57600080fd5b50610099600480360360208110156100f157600080fd5b5035600160a060020a0316610182565b34801561010d57600080fd5b506100996004803603602081101561012457600080fd5b5035600160a060020a03166101a6565b600160a060020a03166000908152602081905260409020805461ff001916610100179055565b600160a060020a03166000908152602081905260409020805462ff0000191662010000179055565b600160a060020a03166000908152602081905260409020805460ff19166001179055565b600160a060020a03166000908152602081905260409020805463ff0000001916630100000017905556fea165627a7a72305820b51c11f66b9a74eecf1ad49dd4969365615329ebfc2210278a8e3af79fedb7f50029",
  "source": "// SPDX-License-Identifier: MIT\r\npragma solidity >=0.4.21 <8.10.0;\r\n\r\nimport \"./Structure.sol\";\r\n\r\ncontract SupplyChain {\r\n  mapping(address => Structure.Roles) roles;\r\n\r\n  function addManufacturerRole(address _account) public {\r\n        roles[_account].Manufacturer = true;\r\n    }\r\n\r\n  function DistributorRole(address _account) public {\r\n        roles[_account].Distributor = true;\r\n    }\r\n\r\n  function addDeliveryrRole(address _account) public {\r\n        roles[_account].Delivery = true;\r\n    }\r\n\r\n  function addVaccination_CenterRole(address _account) public {\r\n        roles[_account].Vaccination_Center = true;\r\n    }\r\n\r\n}\r\n",
  "sourcePath": "C:/projects/Tejus Projects/Vaccine Distribution System/contracts/SupplyChain.sol",
  "compiler": {
    "name": "solc",
    "version": "0.5.0+commit.1d4f565a.Emscripten.clang"
  },
  "schemaVersion": "3.0.1",
  "updatedAt": "2022-01-18T15:26:39.772Z",
  "devdoc": {
    "methods": {}
  },
  "userdoc": {
    "methods": {}
  }
}