{
  "contractName": "SupplyChain",
  "abi": [
    {
      "inputs": [],
      "payable": false,
      "stateMutability": "nonpayable",
      "type": "constructor"
    },
    {
      "anonymous": false,
      "inputs": [
        {
          "indexed": false,
          "internalType": "uint256",
          "name": "uid",
          "type": "uint256"
        }
      ],
      "name": "Manufactured",
      "type": "event"
    },
    {
      "anonymous": false,
      "inputs": [
        {
          "indexed": false,
          "internalType": "uint256",
          "name": "uid",
          "type": "uint256"
        }
      ],
      "name": "PurchasedByDistributor",
      "type": "event"
    },
    {
      "anonymous": false,
      "inputs": [
        {
          "indexed": false,
          "internalType": "uint256",
          "name": "uid",
          "type": "uint256"
        }
      ],
      "name": "PurchasedByVaccinationCenter",
      "type": "event"
    },
    {
      "anonymous": false,
      "inputs": [
        {
          "indexed": false,
          "internalType": "uint256",
          "name": "uid",
          "type": "uint256"
        }
      ],
      "name": "ReceivedByDeliveryHub",
      "type": "event"
    },
    {
      "anonymous": false,
      "inputs": [
        {
          "indexed": false,
          "internalType": "uint256",
          "name": "uid",
          "type": "uint256"
        }
      ],
      "name": "ReceivedByDistributor",
      "type": "event"
    },
    {
      "anonymous": false,
      "inputs": [
        {
          "indexed": false,
          "internalType": "uint256",
          "name": "uid",
          "type": "uint256"
        }
      ],
      "name": "ReceivedByVaccinationCenter",
      "type": "event"
    },
    {
      "anonymous": false,
      "inputs": [
        {
          "indexed": false,
          "internalType": "uint256",
          "name": "uid",
          "type": "uint256"
        }
      ],
      "name": "ShippedByDeliveryHub",
      "type": "event"
    },
    {
      "anonymous": false,
      "inputs": [
        {
          "indexed": false,
          "internalType": "uint256",
          "name": "uid",
          "type": "uint256"
        }
      ],
      "name": "ShippedByDistributor",
      "type": "event"
    },
    {
      "anonymous": false,
      "inputs": [
        {
          "indexed": false,
          "internalType": "uint256",
          "name": "uid",
          "type": "uint256"
        }
      ],
      "name": "ShippedByManufacturer",
      "type": "event"
    },
    {
      "constant": true,
      "inputs": [],
      "name": "uid",
      "outputs": [
        {
          "internalType": "uint256",
          "name": "",
          "type": "uint256"
        }
      ],
      "payable": false,
      "stateMutability": "view",
      "type": "function"
    },
    {
      "constant": true,
      "inputs": [
        {
          "internalType": "address",
          "name": "_account",
          "type": "address"
        }
      ],
      "name": "hasManufacturerRole",
      "outputs": [
        {
          "internalType": "bool",
          "name": "",
          "type": "bool"
        }
      ],
      "payable": false,
      "stateMutability": "view",
      "type": "function"
    },
    {
      "constant": false,
      "inputs": [
        {
          "internalType": "address",
          "name": "_account",
          "type": "address"
        }
      ],
      "name": "addManufacturerRole",
      "outputs": [],
      "payable": false,
      "stateMutability": "nonpayable",
      "type": "function"
    },
    {
      "constant": true,
      "inputs": [
        {
          "internalType": "address",
          "name": "_account",
          "type": "address"
        }
      ],
      "name": "hasDistributorRole",
      "outputs": [
        {
          "internalType": "bool",
          "name": "",
          "type": "bool"
        }
      ],
      "payable": false,
      "stateMutability": "view",
      "type": "function"
    },
    {
      "constant": false,
      "inputs": [
        {
          "internalType": "address",
          "name": "_account",
          "type": "address"
        }
      ],
      "name": "addDistributorRole",
      "outputs": [],
      "payable": false,
      "stateMutability": "nonpayable",
      "type": "function"
    },
    {
      "constant": true,
      "inputs": [
        {
          "internalType": "address",
          "name": "_account",
          "type": "address"
        }
      ],
      "name": "hasDeliveryHubRole",
      "outputs": [
        {
          "internalType": "bool",
          "name": "",
          "type": "bool"
        }
      ],
      "payable": false,
      "stateMutability": "view",
      "type": "function"
    },
    {
      "constant": false,
      "inputs": [
        {
          "internalType": "address",
          "name": "_account",
          "type": "address"
        }
      ],
      "name": "addDeliveryHubRole",
      "outputs": [],
      "payable": false,
      "stateMutability": "nonpayable",
      "type": "function"
    },
    {
      "constant": true,
      "inputs": [
        {
          "internalType": "address",
          "name": "_account",
          "type": "address"
        }
      ],
      "name": "hasVaccinationCenterRole",
      "outputs": [
        {
          "internalType": "bool",
          "name": "",
          "type": "bool"
        }
      ],
      "payable": false,
      "stateMutability": "view",
      "type": "function"
    },
    {
      "constant": false,
      "inputs": [
        {
          "internalType": "address",
          "name": "_account",
          "type": "address"
        }
      ],
      "name": "addVaccinationCenterRole",
      "outputs": [],
      "payable": false,
      "stateMutability": "nonpayable",
      "type": "function"
    },
    {
      "constant": false,
      "inputs": [
        {
          "internalType": "string",
          "name": "manufacturerLongitude",
          "type": "string"
        },
        {
          "internalType": "string",
          "name": "manufacturerLatitude",
          "type": "string"
        },
        {
          "internalType": "string",
          "name": "productName",
          "type": "string"
        },
        {
          "internalType": "uint256",
          "name": "productPrice",
          "type": "uint256"
        },
        {
          "internalType": "string",
          "name": "productCategory",
          "type": "string"
        }
      ],
      "name": "manufactureProduct",
      "outputs": [],
      "payable": false,
      "stateMutability": "nonpayable",
      "type": "function"
    },
    {
      "constant": false,
      "inputs": [
        {
          "internalType": "uint256",
          "name": "_uid",
          "type": "uint256"
        }
      ],
      "name": "purchaseByDistributor",
      "outputs": [],
      "payable": false,
      "stateMutability": "nonpayable",
      "type": "function"
    },
    {
      "constant": false,
      "inputs": [
        {
          "internalType": "uint256",
          "name": "_uid",
          "type": "uint256"
        }
      ],
      "name": "shipToDistributor",
      "outputs": [],
      "payable": false,
      "stateMutability": "nonpayable",
      "type": "function"
    },
    {
      "constant": false,
      "inputs": [
        {
          "internalType": "uint256",
          "name": "_uid",
          "type": "uint256"
        },
        {
          "internalType": "string",
          "name": "distributorLongitude",
          "type": "string"
        },
        {
          "internalType": "string",
          "name": "distributorLatitude",
          "type": "string"
        }
      ],
      "name": "receiveByDistributor",
      "outputs": [],
      "payable": false,
      "stateMutability": "nonpayable",
      "type": "function"
    },
    {
      "constant": false,
      "inputs": [
        {
          "internalType": "uint256",
          "name": "_uid",
          "type": "uint256"
        }
      ],
      "name": "purchaseByVaccinationCenter",
      "outputs": [],
      "payable": false,
      "stateMutability": "nonpayable",
      "type": "function"
    },
    {
      "constant": false,
      "inputs": [
        {
          "internalType": "uint256",
          "name": "_uid",
          "type": "uint256"
        }
      ],
      "name": "shipByDistributor",
      "outputs": [],
      "payable": false,
      "stateMutability": "nonpayable",
      "type": "function"
    },
    {
      "constant": false,
      "inputs": [
        {
          "internalType": "uint256",
          "name": "_uid",
          "type": "uint256"
        },
        {
          "internalType": "string",
          "name": "deliveryHubLongitude",
          "type": "string"
        },
        {
          "internalType": "string",
          "name": "deliveryHubLatitude",
          "type": "string"
        }
      ],
      "name": "receiveByDeliveryHub",
      "outputs": [],
      "payable": false,
      "stateMutability": "nonpayable",
      "type": "function"
    },
    {
      "constant": false,
      "inputs": [
        {
          "internalType": "uint256",
          "name": "_uid",
          "type": "uint256"
        }
      ],
      "name": "shipByDeliveryHub",
      "outputs": [],
      "payable": false,
      "stateMutability": "nonpayable",
      "type": "function"
    },
    {
      "constant": false,
      "inputs": [
        {
          "internalType": "uint256",
          "name": "_uid",
          "type": "uint256"
        },
        {
          "internalType": "string",
          "name": "vaccinationcenterLongitude",
          "type": "string"
        },
        {
          "internalType": "string",
          "name": "vaccinationcenterLatitude",
          "type": "string"
        }
      ],
      "name": "receiveByCustomer",
      "outputs": [],
      "payable": false,
      "stateMutability": "nonpayable",
      "type": "function"
    },
    {
      "constant": true,
      "inputs": [
        {
          "internalType": "uint256",
          "name": "_uid",
          "type": "uint256"
        }
      ],
      "name": "fetchProduct",
      "outputs": [
        {
          "internalType": "uint256",
          "name": "",
          "type": "uint256"
        },
        {
          "internalType": "string",
          "name": "",
          "type": "string"
        },
        {
          "internalType": "uint256",
          "name": "",
          "type": "uint256"
        },
        {
          "internalType": "string",
          "name": "",
          "type": "string"
        },
        {
          "internalType": "address",
          "name": "",
          "type": "address"
        },
        {
          "internalType": "string",
          "name": "",
          "type": "string"
        },
        {
          "internalType": "string",
          "name": "",
          "type": "string"
        }
      ],
      "payable": false,
      "stateMutability": "view",
      "type": "function"
    }
  ],
  "bytecode": "0x608060405234801561001057600080fd5b5033600160006101000a81548173ffffffffffffffffffffffffffffffffffffffff021916908373ffffffffffffffffffffffffffffffffffffffff1602179055506001600081905550614ed6806100696000396000f3fe608060405234801561001057600080fd5b50600436106101215760003560e01c80638eee90ea116100ad578063cf86dee711610071578063cf86dee714610c5a578063d44bebcc14610c88578063e35d76ce14610ce4578063f4121b6714610d12578063f514ce3614610d5657610121565b80638eee90ea146107d457806390d75b3714610930578063a8a7acad1461095e578063ad12770d146109a2578063c56142b5146109d057610121565b80636000ada1116100f45780636000ada1146106665780636971d383146106c25780636cf07e241461071e5780637c7507c41461074c5780638290f8591461079057610121565b806303ea0b5a146101265780630cb28a53146101825780634bbd4e67146103ae578063532b26a11461050a575b600080fd5b6101686004803603602081101561013c57600080fd5b81019080803573ffffffffffffffffffffffffffffffffffffffff169060200190929190505050610d74565b604051808215151515815260200191505060405180910390f35b6101ae6004803603602081101561019857600080fd5b8101908080359060200190929190505050610dcd565b6040518088815260200180602001878152602001806020018673ffffffffffffffffffffffffffffffffffffffff1673ffffffffffffffffffffffffffffffffffffffff168152602001806020018060200185810385528b818151815260200191508051906020019080838360005b8381101561023857808201518184015260208101905061021d565b50505050905090810190601f1680156102655780820380516001836020036101000a031916815260200191505b50858103845289818151815260200191508051906020019080838360005b8381101561029e578082015181840152602081019050610283565b50505050905090810190601f1680156102cb5780820380516001836020036101000a031916815260200191505b50858103835287818151815260200191508051906020019080838360005b838110156103045780820151818401526020810190506102e9565b50505050905090810190601f1680156103315780820380516001836020036101000a031916815260200191505b50858103825286818151815260200191508051906020019080838360005b8381101561036a57808201518184015260208101905061034f565b50505050905090810190601f1680156103975780820380516001836020036101000a031916815260200191505b509b50505050505050505050505060405180910390f35b610508600480360360608110156103c457600080fd5b8101908080359060200190929190803590602001906401000000008111156103eb57600080fd5b8201836020820111156103fd57600080fd5b8035906020019184600183028401116401000000008311171561041f57600080fd5b91908080601f016020809104026020016040519081016040528093929190818152602001838380828437600081840152601f19601f8201169050808301925050505050505091929192908035906020019064010000000081111561048257600080fd5b82018360208201111561049457600080fd5b803590602001918460018302840111640100000000831117156104b657600080fd5b91908080601f016020809104026020016040519081016040528093929190818152602001838380828437600081840152601f19601f8201169050808301925050505050505091929192905050506110cf565b005b6106646004803603606081101561052057600080fd5b81019080803590602001909291908035906020019064010000000081111561054757600080fd5b82018360208201111561055957600080fd5b8035906020019184600183028401116401000000008311171561057b57600080fd5b91908080601f016020809104026020016040519081016040528093929190818152602001838380828437600081840152601f19601f820116905080830192505050505050509192919290803590602001906401000000008111156105de57600080fd5b8201836020820111156105f057600080fd5b8035906020019184600183028401116401000000008311171561061257600080fd5b91908080601f016020809104026020016040519081016040528093929190818152602001838380828437600081840152601f19601f820116905080830192505050505050509192919290505050611727565b005b6106a86004803603602081101561067c57600080fd5b81019080803573ffffffffffffffffffffffffffffffffffffffff169060200190929190505050611d7e565b604051808215151515815260200191505060405180910390f35b610704600480360360208110156106d857600080fd5b81019080803573ffffffffffffffffffffffffffffffffffffffff169060200190929190505050611dd7565b604051808215151515815260200191505060405180910390f35b61074a6004803603602081101561073457600080fd5b8101908080359060200190929190505050611e30565b005b61078e6004803603602081101561076257600080fd5b81019080803573ffffffffffffffffffffffffffffffffffffffff1690602001909291905050506123d2565b005b6107d2600480360360208110156107a657600080fd5b81019080803573ffffffffffffffffffffffffffffffffffffffff16906020019092919050505061249d565b005b61092e600480360360608110156107ea57600080fd5b81019080803590602001909291908035906020019064010000000081111561081157600080fd5b82018360208201111561082357600080fd5b8035906020019184600183028401116401000000008311171561084557600080fd5b91908080601f016020809104026020016040519081016040528093929190818152602001838380828437600081840152601f19601f820116905080830192505050505050509192919290803590602001906401000000008111156108a857600080fd5b8201836020820111156108ba57600080fd5b803590602001918460018302840111640100000000831117156108dc57600080fd5b91908080601f016020809104026020016040519081016040528093929190818152602001838380828437600081840152601f19601f820116905080830192505050505050509192919290505050612568565b005b61095c6004803603602081101561094657600080fd5b8101908080359060200190929190505050612ba5565b005b6109a06004803603602081101561097457600080fd5b81019080803573ffffffffffffffffffffffffffffffffffffffff16906020019092919050505061312f565b005b6109ce600480360360208110156109b857600080fd5b81019080803590602001909291905050506131fa565b005b610c58600480360360a08110156109e657600080fd5b8101908080359060200190640100000000811115610a0357600080fd5b820183602082011115610a1557600080fd5b80359060200191846001830284011164010000000083111715610a3757600080fd5b91908080601f016020809104026020016040519081016040528093929190818152602001838380828437600081840152601f19601f82011690508083019250505050505050919291929080359060200190640100000000811115610a9a57600080fd5b820183602082011115610aac57600080fd5b80359060200191846001830284011164010000000083111715610ace57600080fd5b91908080601f016020809104026020016040519081016040528093929190818152602001838380828437600081840152601f19601f82011690508083019250505050505050919291929080359060200190640100000000811115610b3157600080fd5b820183602082011115610b4357600080fd5b80359060200191846001830284011164010000000083111715610b6557600080fd5b91908080601f016020809104026020016040519081016040528093929190818152602001838380828437600081840152601f19601f8201169050808301925050505050505091929192908035906020019092919080359060200190640100000000811115610bd257600080fd5b820183602082011115610be457600080fd5b80359060200191846001830284011164010000000083111715610c0657600080fd5b91908080601f016020809104026020016040519081016040528093929190818152602001838380828437600081840152601f19601f820116905080830192505050505050509192919290505050613784565b005b610c8660048036036020811015610c7057600080fd5b8101908080359060200190929190505050613f24565b005b610cca60048036036020811015610c9e57600080fd5b81019080803573ffffffffffffffffffffffffffffffffffffffff1690602001909291905050506144f1565b604051808215151515815260200191505060405180910390f35b610d1060048036036020811015610cfa57600080fd5b810190808035906020019092919050505061454a565b005b610d5460048036036020811015610d2857600080fd5b81019080803573ffffffffffffffffffffffffffffffffffffffff169060200190929190505050614aa4565b005b610d5e614b6f565b6040518082815260200191505060405180910390f35b6000600260008373ffffffffffffffffffffffffffffffffffffffff1673ffffffffffffffffffffffffffffffffffffffff16815260200190815260200160002060000160019054906101000a900460ff169050919050565b600060606000606060006060806000600360008a815260200190815260200160002090508060010160010154816001016000018260010160020154836001016003018460060160000160009054906101000a900473ffffffffffffffffffffffffffffffffffffffff168560060160010186600601600201858054600181600116156101000203166002900480601f016020809104026020016040519081016040528092919081815260200182805460018160011615610100020316600290048015610eda5780601f10610eaf57610100808354040283529160200191610eda565b820191906000526020600020905b815481529060010190602001808311610ebd57829003601f168201915b50505050509550838054600181600116156101000203166002900480601f016020809104026020016040519081016040528092919081815260200182805460018160011615610100020316600290048015610f765780601f10610f4b57610100808354040283529160200191610f76565b820191906000526020600020905b815481529060010190602001808311610f5957829003601f168201915b50505050509350818054600181600116156101000203166002900480601f0160208091040260200160405190810160405280929190818152602001828054600181600116156101000203166002900480156110125780601f10610fe757610100808354040283529160200191611012565b820191906000526020600020905b815481529060010190602001808311610ff557829003601f168201915b50505050509150808054600181600116156101000203166002900480601f0160208091040260200160405190810160405280929190818152602001828054600181600116156101000203166002900480156110ae5780601f10611083576101008083540402835291602001916110ae565b820191906000526020600020905b81548152906001019060200180831161109157829003601f168201915b50505050509050975097509750975097509750975050919395979092949650565b82600760088111156110dd57fe5b6003600083815260200190815260200160002060050160009054906101000a900460ff16600881111561110c57fe5b1461111657600080fd5b60036000858152602001908152602001600020600f0160000160009054906101000a900473ffffffffffffffffffffffffffffffffffffffff168073ffffffffffffffffffffffffffffffffffffffff163373ffffffffffffffffffffffffffffffffffffffff161461118857600080fd5b61119133611dd7565b61119a57600080fd5b336003600087815260200190815260200160002060000160006101000a81548173ffffffffffffffffffffffffffffffffffffffff021916908373ffffffffffffffffffffffffffffffffffffffff1602179055508360036000878152602001908152602001600020600f01600101908051906020019061121c929190614b75565b508260036000878152602001908152602001600020600f01600201908051906020019061124a929190614b75565b5060086003600087815260200190815260200160002060050160006101000a81548160ff0219169083600881111561127e57fe5b02179055506004600086815260200190815260200160002060000160036000878152602001908152602001600020908060018154018082558091505090600182039060005260206000209060120201600090919290919091506000820160009054906101000a900473ffffffffffffffffffffffffffffffffffffffff168160000160006101000a81548173ffffffffffffffffffffffffffffffffffffffff021916908373ffffffffffffffffffffffffffffffffffffffff16021790555060018201816001016000820181600001908054600181600116156101000203166002900461136d929190614bf5565b506001820154816001015560028201548160020155600382018160030190805460018160011615610100020316600290046113a9929190614bf5565b5050506005820160009054906101000a900460ff168160050160006101000a81548160ff021916908360088111156113dd57fe5b021790555060068201816006016000820160009054906101000a900473ffffffffffffffffffffffffffffffffffffffff168160000160006101000a81548173ffffffffffffffffffffffffffffffffffffffff021916908373ffffffffffffffffffffffffffffffffffffffff16021790555060018201816001019080546001816001161561010002031660029004611478929190614bf5565b50600282018160020190805460018160011615610100020316600290046114a0929190614bf5565b50505060098201816009016000820160009054906101000a900473ffffffffffffffffffffffffffffffffffffffff168160000160006101000a81548173ffffffffffffffffffffffffffffffffffffffff021916908373ffffffffffffffffffffffffffffffffffffffff16021790555060018201816001019080546001816001161561010002031660029004611539929190614bf5565b5060028201816002019080546001816001161561010002031660029004611561929190614bf5565b505050600c820181600c016000820160009054906101000a900473ffffffffffffffffffffffffffffffffffffffff168160000160006101000a81548173ffffffffffffffffffffffffffffffffffffffff021916908373ffffffffffffffffffffffffffffffffffffffff160217905550600182018160010190805460018160011615610100020316600290046115fa929190614bf5565b5060028201816002019080546001816001161561010002031660029004611622929190614bf5565b505050600f820181600f016000820160009054906101000a900473ffffffffffffffffffffffffffffffffffffffff168160000160006101000a81548173ffffffffffffffffffffffffffffffffffffffff021916908373ffffffffffffffffffffffffffffffffffffffff160217905550600182018160010190805460018160011615610100020316600290046116bb929190614bf5565b50600282018160020190805460018160011615610100020316600290046116e3929190614bf5565b5050505050507faeafd725bf462493136b40ed95631fe00d2c8ee209d1631e376845207386e147856040518082815260200191505060405180910390a15050505050565b826002600881111561173557fe5b6003600083815260200190815260200160002060050160009054906101000a900460ff16600881111561176457fe5b1461176e57600080fd5b6003600085815260200190815260200160002060090160000160009054906101000a900473ffffffffffffffffffffffffffffffffffffffff168073ffffffffffffffffffffffffffffffffffffffff163373ffffffffffffffffffffffffffffffffffffffff16146117e057600080fd5b6117e933610d74565b6117f257600080fd5b336003600087815260200190815260200160002060000160006101000a81548173ffffffffffffffffffffffffffffffffffffffff021916908373ffffffffffffffffffffffffffffffffffffffff16021790555083600360008781526020019081526020016000206009016001019080519060200190611874929190614b75565b50826003600087815260200190815260200160002060090160020190805190602001906118a2929190614b75565b50600380600087815260200190815260200160002060050160006101000a81548160ff021916908360088111156118d557fe5b02179055506004600086815260200190815260200160002060000160036000878152602001908152602001600020908060018154018082558091505090600182039060005260206000209060120201600090919290919091506000820160009054906101000a900473ffffffffffffffffffffffffffffffffffffffff168160000160006101000a81548173ffffffffffffffffffffffffffffffffffffffff021916908373ffffffffffffffffffffffffffffffffffffffff1602179055506001820181600101600082018160000190805460018160011615610100020316600290046119c4929190614bf5565b50600182015481600101556002820154816002015560038201816003019080546001816001161561010002031660029004611a00929190614bf5565b5050506005820160009054906101000a900460ff168160050160006101000a81548160ff02191690836008811115611a3457fe5b021790555060068201816006016000820160009054906101000a900473ffffffffffffffffffffffffffffffffffffffff168160000160006101000a81548173ffffffffffffffffffffffffffffffffffffffff021916908373ffffffffffffffffffffffffffffffffffffffff16021790555060018201816001019080546001816001161561010002031660029004611acf929190614bf5565b5060028201816002019080546001816001161561010002031660029004611af7929190614bf5565b50505060098201816009016000820160009054906101000a900473ffffffffffffffffffffffffffffffffffffffff168160000160006101000a81548173ffffffffffffffffffffffffffffffffffffffff021916908373ffffffffffffffffffffffffffffffffffffffff16021790555060018201816001019080546001816001161561010002031660029004611b90929190614bf5565b5060028201816002019080546001816001161561010002031660029004611bb8929190614bf5565b505050600c820181600c016000820160009054906101000a900473ffffffffffffffffffffffffffffffffffffffff168160000160006101000a81548173ffffffffffffffffffffffffffffffffffffffff021916908373ffffffffffffffffffffffffffffffffffffffff16021790555060018201816001019080546001816001161561010002031660029004611c51929190614bf5565b5060028201816002019080546001816001161561010002031660029004611c79929190614bf5565b505050600f820181600f016000820160009054906101000a900473ffffffffffffffffffffffffffffffffffffffff168160000160006101000a81548173ffffffffffffffffffffffffffffffffffffffff021916908373ffffffffffffffffffffffffffffffffffffffff16021790555060018201816001019080546001816001161561010002031660029004611d12929190614bf5565b5060028201816002019080546001816001161561010002031660029004611d3a929190614bf5565b5050505050507fc8ca2150e6e1849a10ef5aa4932060fa353bcacdffeb150c9e1890c6ab9403cc856040518082815260200191505060405180910390a15050505050565b6000600260008373ffffffffffffffffffffffffffffffffffffffff1673ffffffffffffffffffffffffffffffffffffffff16815260200190815260200160002060000160009054906101000a900460ff169050919050565b6000600260008373ffffffffffffffffffffffffffffffffffffffff1673ffffffffffffffffffffffffffffffffffffffff16815260200190815260200160002060000160039054906101000a900460ff169050919050565b8060066008811115611e3e57fe5b6003600083815260200190815260200160002060050160009054906101000a900460ff166008811115611e6d57fe5b14611e7757600080fd5b6003600083815260200190815260200160002060000160009054906101000a900473ffffffffffffffffffffffffffffffffffffffff168073ffffffffffffffffffffffffffffffffffffffff163373ffffffffffffffffffffffffffffffffffffffff1614611ee657600080fd5b611eef336144f1565b611ef857600080fd5b60076003600085815260200190815260200160002060050160006101000a81548160ff02191690836008811115611f2b57fe5b02179055506004600084815260200190815260200160002060000160036000858152602001908152602001600020908060018154018082558091505090600182039060005260206000209060120201600090919290919091506000820160009054906101000a900473ffffffffffffffffffffffffffffffffffffffff168160000160006101000a81548173ffffffffffffffffffffffffffffffffffffffff021916908373ffffffffffffffffffffffffffffffffffffffff16021790555060018201816001016000820181600001908054600181600116156101000203166002900461201a929190614bf5565b50600182015481600101556002820154816002015560038201816003019080546001816001161561010002031660029004612056929190614bf5565b5050506005820160009054906101000a900460ff168160050160006101000a81548160ff0219169083600881111561208a57fe5b021790555060068201816006016000820160009054906101000a900473ffffffffffffffffffffffffffffffffffffffff168160000160006101000a81548173ffffffffffffffffffffffffffffffffffffffff021916908373ffffffffffffffffffffffffffffffffffffffff16021790555060018201816001019080546001816001161561010002031660029004612125929190614bf5565b506002820181600201908054600181600116156101000203166002900461214d929190614bf5565b50505060098201816009016000820160009054906101000a900473ffffffffffffffffffffffffffffffffffffffff168160000160006101000a81548173ffffffffffffffffffffffffffffffffffffffff021916908373ffffffffffffffffffffffffffffffffffffffff160217905550600182018160010190805460018160011615610100020316600290046121e6929190614bf5565b506002820181600201908054600181600116156101000203166002900461220e929190614bf5565b505050600c820181600c016000820160009054906101000a900473ffffffffffffffffffffffffffffffffffffffff168160000160006101000a81548173ffffffffffffffffffffffffffffffffffffffff021916908373ffffffffffffffffffffffffffffffffffffffff160217905550600182018160010190805460018160011615610100020316600290046122a7929190614bf5565b50600282018160020190805460018160011615610100020316600290046122cf929190614bf5565b505050600f820181600f016000820160009054906101000a900473ffffffffffffffffffffffffffffffffffffffff168160000160006101000a81548173ffffffffffffffffffffffffffffffffffffffff021916908373ffffffffffffffffffffffffffffffffffffffff16021790555060018201816001019080546001816001161561010002031660029004612368929190614bf5565b5060028201816002019080546001816001161561010002031660029004612390929190614bf5565b5050505050507f9a96442e96ac96ba57e48273f290bf3bb9c6b0b2c86843cc4bf2353119918fdf836040518082815260200191505060405180910390a1505050565b600160009054906101000a900473ffffffffffffffffffffffffffffffffffffffff1673ffffffffffffffffffffffffffffffffffffffff163373ffffffffffffffffffffffffffffffffffffffff161461242c57600080fd5b61243581611dd7565b1561243f57600080fd5b6001600260008373ffffffffffffffffffffffffffffffffffffffff1673ffffffffffffffffffffffffffffffffffffffff16815260200190815260200160002060000160036101000a81548160ff02191690831515021790555050565b600160009054906101000a900473ffffffffffffffffffffffffffffffffffffffff1673ffffffffffffffffffffffffffffffffffffffff163373ffffffffffffffffffffffffffffffffffffffff16146124f757600080fd5b61250081611d7e565b1561250a57600080fd5b6001600260008373ffffffffffffffffffffffffffffffffffffffff1673ffffffffffffffffffffffffffffffffffffffff16815260200190815260200160002060000160006101000a81548160ff02191690831515021790555050565b826005600881111561257657fe5b6003600083815260200190815260200160002060050160009054906101000a900460ff1660088111156125a557fe5b146125af57600080fd5b6125b8336144f1565b6125c157600080fd5b336003600086815260200190815260200160002060000160006101000a81548173ffffffffffffffffffffffffffffffffffffffff021916908373ffffffffffffffffffffffffffffffffffffffff1602179055503360036000868152602001908152602001600020600c0160000160006101000a81548173ffffffffffffffffffffffffffffffffffffffff021916908373ffffffffffffffffffffffffffffffffffffffff1602179055508260036000868152602001908152602001600020600c01600101908051906020019061269b929190614b75565b508160036000868152602001908152602001600020600c0160020190805190602001906126c9929190614b75565b5060066003600086815260200190815260200160002060050160006101000a81548160ff021916908360088111156126fd57fe5b02179055506004600085815260200190815260200160002060000160036000868152602001908152602001600020908060018154018082558091505090600182039060005260206000209060120201600090919290919091506000820160009054906101000a900473ffffffffffffffffffffffffffffffffffffffff168160000160006101000a81548173ffffffffffffffffffffffffffffffffffffffff021916908373ffffffffffffffffffffffffffffffffffffffff1602179055506001820181600101600082018160000190805460018160011615610100020316600290046127ec929190614bf5565b50600182015481600101556002820154816002015560038201816003019080546001816001161561010002031660029004612828929190614bf5565b5050506005820160009054906101000a900460ff168160050160006101000a81548160ff0219169083600881111561285c57fe5b021790555060068201816006016000820160009054906101000a900473ffffffffffffffffffffffffffffffffffffffff168160000160006101000a81548173ffffffffffffffffffffffffffffffffffffffff021916908373ffffffffffffffffffffffffffffffffffffffff160217905550600182018160010190805460018160011615610100020316600290046128f7929190614bf5565b506002820181600201908054600181600116156101000203166002900461291f929190614bf5565b50505060098201816009016000820160009054906101000a900473ffffffffffffffffffffffffffffffffffffffff168160000160006101000a81548173ffffffffffffffffffffffffffffffffffffffff021916908373ffffffffffffffffffffffffffffffffffffffff160217905550600182018160010190805460018160011615610100020316600290046129b8929190614bf5565b50600282018160020190805460018160011615610100020316600290046129e0929190614bf5565b505050600c820181600c016000820160009054906101000a900473ffffffffffffffffffffffffffffffffffffffff168160000160006101000a81548173ffffffffffffffffffffffffffffffffffffffff021916908373ffffffffffffffffffffffffffffffffffffffff16021790555060018201816001019080546001816001161561010002031660029004612a79929190614bf5565b5060028201816002019080546001816001161561010002031660029004612aa1929190614bf5565b505050600f820181600f016000820160009054906101000a900473ffffffffffffffffffffffffffffffffffffffff168160000160006101000a81548173ffffffffffffffffffffffffffffffffffffffff021916908373ffffffffffffffffffffffffffffffffffffffff16021790555060018201816001019080546001816001161561010002031660029004612b3a929190614bf5565b5060028201816002019080546001816001161561010002031660029004612b62929190614bf5565b5050505050507fb6589947d486bf61c31a4e6d2e81d4d2c93e7832fdda27f2492009b4755c29ed846040518082815260200191505060405180910390a150505050565b8060006008811115612bb357fe5b6003600083815260200190815260200160002060050160009054906101000a900460ff166008811115612be257fe5b14612bec57600080fd5b612bf533610d74565b612bfe57600080fd5b336003600084815260200190815260200160002060090160000160006101000a81548173ffffffffffffffffffffffffffffffffffffffff021916908373ffffffffffffffffffffffffffffffffffffffff16021790555060016003600084815260200190815260200160002060050160006101000a81548160ff02191690836008811115612c8957fe5b02179055506004600083815260200190815260200160002060000160036000848152602001908152602001600020908060018154018082558091505090600182039060005260206000209060120201600090919290919091506000820160009054906101000a900473ffffffffffffffffffffffffffffffffffffffff168160000160006101000a81548173ffffffffffffffffffffffffffffffffffffffff021916908373ffffffffffffffffffffffffffffffffffffffff160217905550600182018160010160008201816000019080546001816001161561010002031660029004612d78929190614bf5565b50600182015481600101556002820154816002015560038201816003019080546001816001161561010002031660029004612db4929190614bf5565b5050506005820160009054906101000a900460ff168160050160006101000a81548160ff02191690836008811115612de857fe5b021790555060068201816006016000820160009054906101000a900473ffffffffffffffffffffffffffffffffffffffff168160000160006101000a81548173ffffffffffffffffffffffffffffffffffffffff021916908373ffffffffffffffffffffffffffffffffffffffff16021790555060018201816001019080546001816001161561010002031660029004612e83929190614bf5565b5060028201816002019080546001816001161561010002031660029004612eab929190614bf5565b50505060098201816009016000820160009054906101000a900473ffffffffffffffffffffffffffffffffffffffff168160000160006101000a81548173ffffffffffffffffffffffffffffffffffffffff021916908373ffffffffffffffffffffffffffffffffffffffff16021790555060018201816001019080546001816001161561010002031660029004612f44929190614bf5565b5060028201816002019080546001816001161561010002031660029004612f6c929190614bf5565b505050600c820181600c016000820160009054906101000a900473ffffffffffffffffffffffffffffffffffffffff168160000160006101000a81548173ffffffffffffffffffffffffffffffffffffffff021916908373ffffffffffffffffffffffffffffffffffffffff16021790555060018201816001019080546001816001161561010002031660029004613005929190614bf5565b506002820181600201908054600181600116156101000203166002900461302d929190614bf5565b505050600f820181600f016000820160009054906101000a900473ffffffffffffffffffffffffffffffffffffffff168160000160006101000a81548173ffffffffffffffffffffffffffffffffffffffff021916908373ffffffffffffffffffffffffffffffffffffffff160217905550600182018160010190805460018160011615610100020316600290046130c6929190614bf5565b50600282018160020190805460018160011615610100020316600290046130ee929190614bf5565b5050505050507facd9402b9f9e8c15fa7c1819f8393ca56eb61316cc354fc6ac2150aed3ce7931826040518082815260200191505060405180910390a15050565b600160009054906101000a900473ffffffffffffffffffffffffffffffffffffffff1673ffffffffffffffffffffffffffffffffffffffff163373ffffffffffffffffffffffffffffffffffffffff161461318957600080fd5b61319281610d74565b1561319c57600080fd5b6001600260008373ffffffffffffffffffffffffffffffffffffffff1673ffffffffffffffffffffffffffffffffffffffff16815260200190815260200160002060000160016101000a81548160ff02191690831515021790555050565b806003600881111561320857fe5b6003600083815260200190815260200160002060050160009054906101000a900460ff16600881111561323757fe5b1461324157600080fd5b61324a33611dd7565b61325357600080fd5b3360036000848152602001908152602001600020600f0160000160006101000a81548173ffffffffffffffffffffffffffffffffffffffff021916908373ffffffffffffffffffffffffffffffffffffffff16021790555060046003600084815260200190815260200160002060050160006101000a81548160ff021916908360088111156132de57fe5b02179055506004600083815260200190815260200160002060000160036000848152602001908152602001600020908060018154018082558091505090600182039060005260206000209060120201600090919290919091506000820160009054906101000a900473ffffffffffffffffffffffffffffffffffffffff168160000160006101000a81548173ffffffffffffffffffffffffffffffffffffffff021916908373ffffffffffffffffffffffffffffffffffffffff1602179055506001820181600101600082018160000190805460018160011615610100020316600290046133cd929190614bf5565b50600182015481600101556002820154816002015560038201816003019080546001816001161561010002031660029004613409929190614bf5565b5050506005820160009054906101000a900460ff168160050160006101000a81548160ff0219169083600881111561343d57fe5b021790555060068201816006016000820160009054906101000a900473ffffffffffffffffffffffffffffffffffffffff168160000160006101000a81548173ffffffffffffffffffffffffffffffffffffffff021916908373ffffffffffffffffffffffffffffffffffffffff160217905550600182018160010190805460018160011615610100020316600290046134d8929190614bf5565b5060028201816002019080546001816001161561010002031660029004613500929190614bf5565b50505060098201816009016000820160009054906101000a900473ffffffffffffffffffffffffffffffffffffffff168160000160006101000a81548173ffffffffffffffffffffffffffffffffffffffff021916908373ffffffffffffffffffffffffffffffffffffffff16021790555060018201816001019080546001816001161561010002031660029004613599929190614bf5565b50600282018160020190805460018160011615610100020316600290046135c1929190614bf5565b505050600c820181600c016000820160009054906101000a900473ffffffffffffffffffffffffffffffffffffffff168160000160006101000a81548173ffffffffffffffffffffffffffffffffffffffff021916908373ffffffffffffffffffffffffffffffffffffffff1602179055506001820181600101908054600181600116156101000203166002900461365a929190614bf5565b5060028201816002019080546001816001161561010002031660029004613682929190614bf5565b505050600f820181600f016000820160009054906101000a900473ffffffffffffffffffffffffffffffffffffffff168160000160006101000a81548173ffffffffffffffffffffffffffffffffffffffff021916908373ffffffffffffffffffffffffffffffffffffffff1602179055506001820181600101908054600181600116156101000203166002900461371b929190614bf5565b5060028201816002019080546001816001161561010002031660029004613743929190614bf5565b5050505050507fda1b5272c78a876b6ee948dcb311f9d42ebabc9dd56c7c7a29798aaea34f62f8826040518082815260200191505060405180910390a15050565b61378d33611d7e565b61379657600080fd5b61379e614c7c565b33816000019073ffffffffffffffffffffffffffffffffffffffff16908173ffffffffffffffffffffffffffffffffffffffff168152505060005481602001516020018181525050838160200151600001819052508281602001516040018181525050818160200151606001819052503381606001516000019073ffffffffffffffffffffffffffffffffffffffff16908173ffffffffffffffffffffffffffffffffffffffff1681525050858160600151602001819052508481606001516040018190525060008160400190600881111561387657fe5b9081600881111561388357fe5b8152505080600360008054815260200190815260200160002060008201518160000160006101000a81548173ffffffffffffffffffffffffffffffffffffffff021916908373ffffffffffffffffffffffffffffffffffffffff1602179055506020820151816001016000820151816000019080519060200190613908929190614cf8565b5060208201518160010155604082015181600201556060820151816003019080519060200190613939929190614cf8565b50505060408201518160050160006101000a81548160ff0219169083600881111561396057fe5b021790555060608201518160060160008201518160000160006101000a81548173ffffffffffffffffffffffffffffffffffffffff021916908373ffffffffffffffffffffffffffffffffffffffff16021790555060208201518160010190805190602001906139d1929190614cf8565b5060408201518160020190805190602001906139ee929190614cf8565b50505060808201518160090160008201518160000160006101000a81548173ffffffffffffffffffffffffffffffffffffffff021916908373ffffffffffffffffffffffffffffffffffffffff1602179055506020820151816001019080519060200190613a5d929190614cf8565b506040820151816002019080519060200190613a7a929190614cf8565b50505060a082015181600c0160008201518160000160006101000a81548173ffffffffffffffffffffffffffffffffffffffff021916908373ffffffffffffffffffffffffffffffffffffffff1602179055506020820151816001019080519060200190613ae9929190614cf8565b506040820151816002019080519060200190613b06929190614cf8565b50505060c082015181600f0160008201518160000160006101000a81548173ffffffffffffffffffffffffffffffffffffffff021916908373ffffffffffffffffffffffffffffffffffffffff1602179055506020820151816001019080519060200190613b75929190614cf8565b506040820151816002019080519060200190613b92929190614cf8565b5050509050506004600080548152602001908152602001600020600001819080600181540180825580915050906001820390600052602060002090601202016000909192909190915060008201518160000160006101000a81548173ffffffffffffffffffffffffffffffffffffffff021916908373ffffffffffffffffffffffffffffffffffffffff1602179055506020820151816001016000820151816000019080519060200190613c47929190614cf8565b5060208201518160010155604082015181600201556060820151816003019080519060200190613c78929190614cf8565b50505060408201518160050160006101000a81548160ff02191690836008811115613c9f57fe5b021790555060608201518160060160008201518160000160006101000a81548173ffffffffffffffffffffffffffffffffffffffff021916908373ffffffffffffffffffffffffffffffffffffffff1602179055506020820151816001019080519060200190613d10929190614cf8565b506040820151816002019080519060200190613d2d929190614cf8565b50505060808201518160090160008201518160000160006101000a81548173ffffffffffffffffffffffffffffffffffffffff021916908373ffffffffffffffffffffffffffffffffffffffff1602179055506020820151816001019080519060200190613d9c929190614cf8565b506040820151816002019080519060200190613db9929190614cf8565b50505060a082015181600c0160008201518160000160006101000a81548173ffffffffffffffffffffffffffffffffffffffff021916908373ffffffffffffffffffffffffffffffffffffffff1602179055506020820151816001019080519060200190613e28929190614cf8565b506040820151816002019080519060200190613e45929190614cf8565b50505060c082015181600f0160008201518160000160006101000a81548173ffffffffffffffffffffffffffffffffffffffff021916908373ffffffffffffffffffffffffffffffffffffffff1602179055506020820151816001019080519060200190613eb4929190614cf8565b506040820151816002019080519060200190613ed1929190614cf8565b5050505050507fd29d8a68ca7c8c74be5579719d445aabfe230ed6e6a83aff475a663500eb76096000546040518082815260200191505060405180910390a1600160005401600081905550505050505050565b6003600082815260200190815260200160002060000160009054906101000a900473ffffffffffffffffffffffffffffffffffffffff168073ffffffffffffffffffffffffffffffffffffffff163373ffffffffffffffffffffffffffffffffffffffff1614613f9357600080fd5b6003600083815260200190815260200160002060090160000160009054906101000a900473ffffffffffffffffffffffffffffffffffffffff168073ffffffffffffffffffffffffffffffffffffffff163373ffffffffffffffffffffffffffffffffffffffff161461400557600080fd5b61400e33610d74565b61401757600080fd5b60056003600085815260200190815260200160002060050160006101000a81548160ff0219169083600881111561404a57fe5b02179055506004600084815260200190815260200160002060000160036000858152602001908152602001600020908060018154018082558091505090600182039060005260206000209060120201600090919290919091506000820160009054906101000a900473ffffffffffffffffffffffffffffffffffffffff168160000160006101000a81548173ffffffffffffffffffffffffffffffffffffffff021916908373ffffffffffffffffffffffffffffffffffffffff160217905550600182018160010160008201816000019080546001816001161561010002031660029004614139929190614bf5565b50600182015481600101556002820154816002015560038201816003019080546001816001161561010002031660029004614175929190614bf5565b5050506005820160009054906101000a900460ff168160050160006101000a81548160ff021916908360088111156141a957fe5b021790555060068201816006016000820160009054906101000a900473ffffffffffffffffffffffffffffffffffffffff168160000160006101000a81548173ffffffffffffffffffffffffffffffffffffffff021916908373ffffffffffffffffffffffffffffffffffffffff16021790555060018201816001019080546001816001161561010002031660029004614244929190614bf5565b506002820181600201908054600181600116156101000203166002900461426c929190614bf5565b50505060098201816009016000820160009054906101000a900473ffffffffffffffffffffffffffffffffffffffff168160000160006101000a81548173ffffffffffffffffffffffffffffffffffffffff021916908373ffffffffffffffffffffffffffffffffffffffff16021790555060018201816001019080546001816001161561010002031660029004614305929190614bf5565b506002820181600201908054600181600116156101000203166002900461432d929190614bf5565b505050600c820181600c016000820160009054906101000a900473ffffffffffffffffffffffffffffffffffffffff168160000160006101000a81548173ffffffffffffffffffffffffffffffffffffffff021916908373ffffffffffffffffffffffffffffffffffffffff160217905550600182018160010190805460018160011615610100020316600290046143c6929190614bf5565b50600282018160020190805460018160011615610100020316600290046143ee929190614bf5565b505050600f820181600f016000820160009054906101000a900473ffffffffffffffffffffffffffffffffffffffff168160000160006101000a81548173ffffffffffffffffffffffffffffffffffffffff021916908373ffffffffffffffffffffffffffffffffffffffff16021790555060018201816001019080546001816001161561010002031660029004614487929190614bf5565b50600282018160020190805460018160011615610100020316600290046144af929190614bf5565b5050505050507fc5c33776d405e5686e4386e1ef31a65cf6195e4f7ceb8808ab64d05b6ccbc2a6836040518082815260200191505060405180910390a1505050565b6000600260008373ffffffffffffffffffffffffffffffffffffffff1673ffffffffffffffffffffffffffffffffffffffff16815260200190815260200160002060000160029054906101000a900460ff169050919050565b6003600082815260200190815260200160002060000160009054906101000a900473ffffffffffffffffffffffffffffffffffffffff168073ffffffffffffffffffffffffffffffffffffffff163373ffffffffffffffffffffffffffffffffffffffff16146145b957600080fd5b6145c233611d7e565b6145cb57600080fd5b60026003600084815260200190815260200160002060050160006101000a81548160ff021916908360088111156145fe57fe5b02179055506004600083815260200190815260200160002060000160036000848152602001908152602001600020908060018154018082558091505090600182039060005260206000209060120201600090919290919091506000820160009054906101000a900473ffffffffffffffffffffffffffffffffffffffff168160000160006101000a81548173ffffffffffffffffffffffffffffffffffffffff021916908373ffffffffffffffffffffffffffffffffffffffff1602179055506001820181600101600082018160000190805460018160011615610100020316600290046146ed929190614bf5565b50600182015481600101556002820154816002015560038201816003019080546001816001161561010002031660029004614729929190614bf5565b5050506005820160009054906101000a900460ff168160050160006101000a81548160ff0219169083600881111561475d57fe5b021790555060068201816006016000820160009054906101000a900473ffffffffffffffffffffffffffffffffffffffff168160000160006101000a81548173ffffffffffffffffffffffffffffffffffffffff021916908373ffffffffffffffffffffffffffffffffffffffff160217905550600182018160010190805460018160011615610100020316600290046147f8929190614bf5565b5060028201816002019080546001816001161561010002031660029004614820929190614bf5565b50505060098201816009016000820160009054906101000a900473ffffffffffffffffffffffffffffffffffffffff168160000160006101000a81548173ffffffffffffffffffffffffffffffffffffffff021916908373ffffffffffffffffffffffffffffffffffffffff160217905550600182018160010190805460018160011615610100020316600290046148b9929190614bf5565b50600282018160020190805460018160011615610100020316600290046148e1929190614bf5565b505050600c820181600c016000820160009054906101000a900473ffffffffffffffffffffffffffffffffffffffff168160000160006101000a81548173ffffffffffffffffffffffffffffffffffffffff021916908373ffffffffffffffffffffffffffffffffffffffff1602179055506001820181600101908054600181600116156101000203166002900461497a929190614bf5565b50600282018160020190805460018160011615610100020316600290046149a2929190614bf5565b505050600f820181600f016000820160009054906101000a900473ffffffffffffffffffffffffffffffffffffffff168160000160006101000a81548173ffffffffffffffffffffffffffffffffffffffff021916908373ffffffffffffffffffffffffffffffffffffffff16021790555060018201816001019080546001816001161561010002031660029004614a3b929190614bf5565b5060028201816002019080546001816001161561010002031660029004614a63929190614bf5565b5050505050507f25727bef8a186dd95a062151451f2d651551b53124c18208d7653b1217ae31ba826040518082815260200191505060405180910390a15050565b600160009054906101000a900473ffffffffffffffffffffffffffffffffffffffff1673ffffffffffffffffffffffffffffffffffffffff163373ffffffffffffffffffffffffffffffffffffffff1614614afe57600080fd5b614b07816144f1565b15614b1157600080fd5b6001600260008373ffffffffffffffffffffffffffffffffffffffff1673ffffffffffffffffffffffffffffffffffffffff16815260200190815260200160002060000160026101000a81548160ff02191690831515021790555050565b60005481565b828054600181600116156101000203166002900490600052602060002090601f016020900481019282601f10614bb657805160ff1916838001178555614be4565b82800160010185558215614be4579182015b82811115614be3578251825591602001919060010190614bc8565b5b509050614bf19190614d78565b5090565b828054600181600116156101000203166002900490600052602060002090601f016020900481019282601f10614c2e5780548555614c6b565b82800160010185558215614c6b57600052602060002091601f016020900482015b82811115614c6a578254825591600101919060010190614c4f565b5b509050614c789190614d78565b5090565b6040518060e00160405280600073ffffffffffffffffffffffffffffffffffffffff168152602001614cac614d9d565b815260200160006008811115614cbe57fe5b8152602001614ccb614dc5565b8152602001614cd8614dfc565b8152602001614ce5614e33565b8152602001614cf2614e6a565b81525090565b828054600181600116156101000203166002900490600052602060002090601f016020900481019282601f10614d3957805160ff1916838001178555614d67565b82800160010185558215614d67579182015b82811115614d66578251825591602001919060010190614d4b565b5b509050614d749190614d78565b5090565b614d9a91905b80821115614d96576000816000905550600101614d7e565b5090565b90565b6040518060800160405280606081526020016000815260200160008152602001606081525090565b6040518060600160405280600073ffffffffffffffffffffffffffffffffffffffff16815260200160608152602001606081525090565b6040518060600160405280600073ffffffffffffffffffffffffffffffffffffffff16815260200160608152602001606081525090565b6040518060600160405280600073ffffffffffffffffffffffffffffffffffffffff16815260200160608152602001606081525090565b6040518060600160405280600073ffffffffffffffffffffffffffffffffffffffff1681526020016060815260200160608152509056fea265627a7a72315820a88f1d939b7434b0895d843029d9f220ee426bafad3ce6ce9b6dab6d7aa1ae9264736f6c63430005100032",
  "source": "// SPDX-License-Identifier: MIT\npragma solidity >=0.4.21 <8.10.0;\n\nimport \"./Structure.sol\";\n\ncontract SupplyChain {\n    uint256 public uid;\n    address owner;\n\n    mapping(address => Structure.Roles) roles;\n    mapping(uint256 => Structure.Product) products;\n    mapping(uint256 => Structure.ProductHistory) productHistory;\n\n    constructor() public {\n        owner = msg.sender;\n        uid = 1;\n    }\n\n    event Manufactured(uint256 uid);\n    event PurchasedByDistributor(uint256 uid);\n    event ShippedByManufacturer(uint256 uid);\n    event ReceivedByDistributor(uint256 uid);\n    event PurchasedByVaccinationCenter(uint256 uid);\n    event ShippedByDistributor(uint256 uid);\n    event ReceivedByDeliveryHub(uint256 uid);\n    event ShippedByDeliveryHub(uint256 uid);\n    event ReceivedByVaccinationCenter(uint256 uid);\n\n    function hasManufacturerRole(address _account) public view returns (bool) {\n        return roles[_account].Manufacturer;\n    }\n\n    function addManufacturerRole(address _account) public {\n        require(msg.sender == owner);\n        require(!hasManufacturerRole(_account));\n        roles[_account].Manufacturer = true;\n    }\n\n    function hasDistributorRole(address _account) public view returns (bool) {\n        return roles[_account].Distributor;\n    }\n\n    function addDistributorRole(address _account) public {\n        require(msg.sender == owner);\n        require(!hasDistributorRole(_account));\n        roles[_account].Distributor = true;\n    }\n\n    function hasDeliveryHubRole(address _account) public view returns (bool) {\n        return roles[_account].DeliveryHub;\n    }\n\n    function addDeliveryHubRole(address _account) public {\n        require(msg.sender == owner);\n        require(!hasDeliveryHubRole(_account));\n\n        roles[_account].DeliveryHub = true;\n    }\n\n    function hasVaccinationCenterRole(address _account)\n        public\n        view\n        returns (bool)\n    {\n        return roles[_account].VaccinationCenter;\n    }\n\n    function addVaccinationCenterRole(address _account) public {\n        require(msg.sender == owner);\n        require(!hasVaccinationCenterRole(_account));\n        roles[_account].VaccinationCenter = true;\n    }\n\n    modifier verifyAddress(address add) {\n        require(msg.sender == add);\n        _;\n    }\n\n    modifier manufactured(uint256 _uid) {\n        require(products[_uid].productState == Structure.State.Manufactured);\n        _;\n    }\n\n    modifier shippedByManufacturer(uint256 _uid) {\n        require(\n            products[_uid].productState == Structure.State.ShippedByManufacturer\n        );\n        _;\n    }\n\n    modifier receivedByDistributor(uint256 _uid) {\n        require(\n            products[_uid].productState == Structure.State.ReceivedByDistributor\n        );\n        _;\n    }\n\n    modifier purchasedByVaccinationCenter(uint256 _uid) {\n        require(\n            products[_uid].productState == Structure.State.PurchasedByVaccinationCenter\n        );\n        _;\n    }\n\n    modifier shippedByDistributor(uint256 _uid) {\n        require(\n            products[_uid].productState == Structure.State.ShippedByDistributor\n        );\n        _;\n    }\n\n    modifier receivedByDeliveryHub(uint256 _uid) {\n        require(\n            products[_uid].productState == Structure.State.ReceivedByDeliveryHub\n        );\n        _;\n    }\n\n    modifier shippedByDeliveryHub(uint256 _uid) {\n        require(\n            products[_uid].productState == Structure.State.ShippedByDeliveryHub\n        );\n        _;\n    }\n\n    modifier receivedByVaccinationCenter(uint256 _uid) {\n        require(\n            products[_uid].productState == Structure.State.ReceivedByVaccinationCenter\n        );\n        _;\n    }\n\n    // STEP 1 : Manufacture a product.\n    function manufactureProduct(\n        string memory manufacturerLongitude,\n        string memory manufacturerLatitude,\n        string memory productName,\n        uint256 productPrice,\n        string memory productCategory\n    ) public {\n        require(hasManufacturerRole(msg.sender));\n        Structure.Product memory product;\n        product.owner=msg.sender;\n        product.productdet.productid = uid;\n        product.productdet.productName = productName;\n        product.productdet.productPrice = productPrice;\n        product.productdet.productCategory = productCategory;\n        product.manufacturer.manufacturer = msg.sender;\n        product.manufacturer.manufacturerLongitude = manufacturerLongitude;\n        product.manufacturer.manufacturerLatitude = manufacturerLatitude;\n        product.productState = Structure.State.Manufactured;\n\n        products[uid] = product;\n\n        productHistory[uid].history.push(product);\n\n        emit Manufactured(uid);\n        uid = uid + 1;\n    }\n\n   // STEP 2 : Purchase of manufactured product by Distributor.\n    function purchaseByDistributor(uint256 _uid) public manufactured(_uid) {\n        require(hasDistributorRole((msg.sender)));\n        products[_uid].distributor.distributor = msg.sender;\n        products[_uid].productState = Structure.State.PurchasedByDistributor;\n        productHistory[_uid].history.push(products[_uid]);\n\n        emit PurchasedByDistributor(_uid);\n    }\n\n    // STEP 3 : Shipping of purchased product to Distributor.\n    function shipToDistributor(uint256 _uid)\n        public\n        verifyAddress(products[_uid].owner)\n    {\n        require(hasManufacturerRole(msg.sender));\n        products[_uid].productState = Structure.State.ShippedByManufacturer;\n        productHistory[_uid].history.push(products[_uid]);\n\n        emit ShippedByManufacturer(_uid);\n    }\n\n    // STEP 4 : Receive the purchased product shipped by Manufacturer.\n    function receiveByDistributor(\n        uint256 _uid,\n        string memory distributorLongitude,\n        string memory distributorLatitude\n    )\n        public\n        shippedByManufacturer(_uid)\n        verifyAddress(products[_uid].distributor.distributor)\n    {\n        require(hasDistributorRole(msg.sender));\n        products[_uid].owner = msg.sender;\n        products[_uid].distributor.distributorLongitude = distributorLongitude;\n        products[_uid].distributor.distributorLatitude = distributorLatitude;\n        products[_uid].productState = Structure.State.ReceivedByDistributor;\n        productHistory[_uid].history.push(products[_uid]);\n\n        emit ReceivedByDistributor(_uid);\n    }\n\n    // STEP 5 : Purchase of a product at Distributor by VaccinationCenter.\n    function purchaseByVaccinationCenter(uint256 _uid)\n        public\n        receivedByDistributor(_uid)\n    {\n        require(hasVaccinationCenterRole(msg.sender));\n        products[_uid].vaccinationcenter.vaccinationcenter = msg.sender;\n        products[_uid].productState = Structure.State.PurchasedByVaccinationCenter;\n        productHistory[_uid].history.push(products[_uid]);\n\n        emit PurchasedByVaccinationCenter(_uid);\n    }\n\n    // STEP 6 : Shipping of product by Distributor purchased by VaccinationCenter.\n    function shipByDistributor(uint256 _uid)\n        public\n        verifyAddress(products[_uid].owner)\n        verifyAddress(products[_uid].distributor.distributor)\n    {\n        require(hasDistributorRole(msg.sender));\n        products[_uid].productState = Structure.State.ShippedByDistributor;\n        productHistory[_uid].history.push(products[_uid]);\n\n        emit ShippedByDistributor(_uid);\n    }\n\n    // STEP 7 : Receiveing of product by delivery hub purchased by VaccinationCenter.\n    function receiveByDeliveryHub(\n        uint256 _uid,\n        string memory deliveryHubLongitude,\n        string memory deliveryHubLatitude\n    ) public shippedByDistributor(_uid) {\n        require(hasDeliveryHubRole(msg.sender));\n        products[_uid].owner = msg.sender;\n        products[_uid].deliveryhub.deliveryHub = msg.sender;\n        products[_uid].deliveryhub.deliveryHubLongitude = deliveryHubLongitude;\n        products[_uid].deliveryhub.deliveryHubLatitude = deliveryHubLatitude;\n        products[_uid].productState = Structure.State.ReceivedByDeliveryHub;\n        productHistory[_uid].history.push(products[_uid]);\n\n        emit ReceivedByDeliveryHub(_uid);\n    }\n\n    // STEP 8 : Shipping of product by delivery hub purchased by VaccinationCenter.\n    function shipByDeliveryHub(uint256 _uid)\n        public\n        receivedByDeliveryHub(_uid)\n        verifyAddress(products[_uid].owner)\n    {\n        require(hasDeliveryHubRole(msg.sender));\n        products[_uid].productState = Structure.State.ShippedByDeliveryHub;\n        productHistory[_uid].history.push(products[_uid]);\n\n        emit ShippedByDeliveryHub(_uid);\n    }\n\n    // STEP 9 : Receive the purchased product by VaccinationCenter.\n    function receiveByCustomer(\n        uint256 _uid,\n        string memory vaccinationcenterLongitude,\n        string memory vaccinationcenterLatitude\n        )\n        public\n        shippedByDeliveryHub(_uid)\n        verifyAddress(products[_uid].vaccinationcenter.vaccinationcenter)\n    {\n        require(hasVaccinationCenterRole(msg.sender));\n        products[_uid].owner = msg.sender;\n        products[_uid].vaccinationcenter.vaccinationcenterLongitude = vaccinationcenterLongitude;\n        products[_uid].vaccinationcenter.vaccinationcenterLatitude = vaccinationcenterLatitude;\n        products[_uid].productState = Structure.State.ReceivedByVaccinationCenter;\n        productHistory[_uid].history.push(products[_uid]);\n\n        emit ReceivedByVaccinationCenter(_uid);\n    }\n\n    function fetchProduct(uint256 _uid) public view returns (uint256,\n    string memory,\n    uint256,\n    string memory,\n    address,\n    string memory,\n    string memory\n    ) {\n        Structure.Product storage product = products[_uid];\n        return ( product.productdet.productid, product.productdet.productName, product.productdet.productPrice, product.productdet.productCategory, product.manufacturer.manufacturer,\n        product.manufacturer.manufacturerLongitude, product.manufacturer.manufacturerLatitude);\n    }\n}\n",
  "sourcePath": "/home/piyush/Desktop/major-project/vaccine-distributtion-system/contracts/SupplyChain.sol",
  "compiler": {
    "name": "solc",
    "version": "0.5.16+commit.9c3226ce.Emscripten.clang"
  },
  "schemaVersion": "3.4.3",
  "updatedAt": "2022-02-20T05:16:04.850Z",
  "networkType": "ethereum",
  "devdoc": {
    "methods": {}
  },
  "userdoc": {
    "methods": {}
  }
}