{
  "contractName": "SupplyChain",
  "abi": [
    {
      "inputs": [],
      "payable": false,
      "stateMutability": "nonpayable",
      "type": "constructor"
    },
    {
      "anonymous": false,
      "inputs": [
        {
          "indexed": false,
          "internalType": "uint256",
          "name": "uid",
          "type": "uint256"
        }
      ],
      "name": "Manufactured",
      "type": "event"
    },
    {
      "constant": true,
      "inputs": [],
      "name": "uid",
      "outputs": [
        {
          "internalType": "uint256",
          "name": "",
          "type": "uint256"
        }
      ],
      "payable": false,
      "stateMutability": "view",
      "type": "function"
    },
    {
      "constant": true,
      "inputs": [
        {
          "internalType": "address",
          "name": "_account",
          "type": "address"
        }
      ],
      "name": "hasManufacturerRole",
      "outputs": [
        {
          "internalType": "bool",
          "name": "",
          "type": "bool"
        }
      ],
      "payable": false,
      "stateMutability": "view",
      "type": "function"
    },
    {
      "constant": false,
      "inputs": [
        {
          "internalType": "address",
          "name": "_account",
          "type": "address"
        }
      ],
      "name": "addManufacturerRole",
      "outputs": [],
      "payable": false,
      "stateMutability": "nonpayable",
      "type": "function"
    },
    {
      "constant": true,
      "inputs": [
        {
          "internalType": "address",
          "name": "_account",
          "type": "address"
        }
      ],
      "name": "hasDistributorRole",
      "outputs": [
        {
          "internalType": "bool",
          "name": "",
          "type": "bool"
        }
      ],
      "payable": false,
      "stateMutability": "view",
      "type": "function"
    },
    {
      "constant": false,
      "inputs": [
        {
          "internalType": "address",
          "name": "_account",
          "type": "address"
        }
      ],
      "name": "addDistributorRole",
      "outputs": [],
      "payable": false,
      "stateMutability": "nonpayable",
      "type": "function"
    },
    {
      "constant": true,
      "inputs": [
        {
          "internalType": "address",
          "name": "_account",
          "type": "address"
        }
      ],
      "name": "hasDeliveryRole",
      "outputs": [
        {
          "internalType": "bool",
          "name": "",
          "type": "bool"
        }
      ],
      "payable": false,
      "stateMutability": "view",
      "type": "function"
    },
    {
      "constant": false,
      "inputs": [
        {
          "internalType": "address",
          "name": "_account",
          "type": "address"
        }
      ],
      "name": "addDeliveryRole",
      "outputs": [],
      "payable": false,
      "stateMutability": "nonpayable",
      "type": "function"
    },
    {
      "constant": true,
      "inputs": [
        {
          "internalType": "address",
          "name": "_account",
          "type": "address"
        }
      ],
      "name": "hasVaccinationCenterRole",
      "outputs": [
        {
          "internalType": "bool",
          "name": "",
          "type": "bool"
        }
      ],
      "payable": false,
      "stateMutability": "view",
      "type": "function"
    },
    {
      "constant": false,
      "inputs": [
        {
          "internalType": "address",
          "name": "_account",
          "type": "address"
        }
      ],
      "name": "addVaccinationCenterRole",
      "outputs": [],
      "payable": false,
      "stateMutability": "nonpayable",
      "type": "function"
    },
    {
      "constant": false,
      "inputs": [
        {
          "internalType": "string",
          "name": "manufacturerLongitude",
          "type": "string"
        },
        {
          "internalType": "string",
          "name": "manufacturerLatitude",
          "type": "string"
        },
        {
          "internalType": "string",
          "name": "productName",
          "type": "string"
        },
        {
          "internalType": "uint256",
          "name": "productPrice",
          "type": "uint256"
        },
        {
          "internalType": "string",
          "name": "productCategory",
          "type": "string"
        }
      ],
      "name": "manufactureProduct",
      "outputs": [],
      "payable": false,
      "stateMutability": "nonpayable",
      "type": "function"
    },
    {
      "constant": true,
      "inputs": [
        {
          "internalType": "uint256",
          "name": "_uid",
          "type": "uint256"
        }
      ],
      "name": "fetchProduct",
      "outputs": [
        {
          "internalType": "uint256",
          "name": "",
          "type": "uint256"
        },
        {
          "internalType": "string",
          "name": "",
          "type": "string"
        },
        {
          "internalType": "uint256",
          "name": "",
          "type": "uint256"
        },
        {
          "internalType": "string",
          "name": "",
          "type": "string"
        },
        {
          "internalType": "address",
          "name": "",
          "type": "address"
        },
        {
          "internalType": "string",
          "name": "",
          "type": "string"
        },
        {
          "internalType": "string",
          "name": "",
          "type": "string"
        }
      ],
      "payable": false,
      "stateMutability": "view",
      "type": "function"
    }
  ],
  "bytecode": "0x608060405234801561001057600080fd5b5033600160006101000a81548173ffffffffffffffffffffffffffffffffffffffff021916908373ffffffffffffffffffffffffffffffffffffffff16021790555060016000819055506118b0806100696000396000f3fe608060405234801561001057600080fd5b50600436106100a95760003560e01c80636971d383116100715780636971d383146104325780637c7507c41461048e5780638290f859146104d2578063a8a7acad14610516578063c56142b51461055a578063f514ce36146107e4576100a9565b806303ea0b5a146100ae5780630cb28a531461010a578063179c5c57146103365780635ac65f301461037a5780636000ada1146103d6575b600080fd5b6100f0600480360360208110156100c457600080fd5b81019080803573ffffffffffffffffffffffffffffffffffffffff169060200190929190505050610802565b604051808215151515815260200191505060405180910390f35b6101366004803603602081101561012057600080fd5b810190808035906020019092919050505061085b565b6040518088815260200180602001878152602001806020018673ffffffffffffffffffffffffffffffffffffffff1673ffffffffffffffffffffffffffffffffffffffff168152602001806020018060200185810385528b818151815260200191508051906020019080838360005b838110156101c05780820151818401526020810190506101a5565b50505050905090810190601f1680156101ed5780820380516001836020036101000a031916815260200191505b50858103845289818151815260200191508051906020019080838360005b8381101561022657808201518184015260208101905061020b565b50505050905090810190601f1680156102535780820380516001836020036101000a031916815260200191505b50858103835287818151815260200191508051906020019080838360005b8381101561028c578082015181840152602081019050610271565b50505050905090810190601f1680156102b95780820380516001836020036101000a031916815260200191505b50858103825286818151815260200191508051906020019080838360005b838110156102f25780820151818401526020810190506102d7565b50505050905090810190601f16801561031f5780820380516001836020036101000a031916815260200191505b509b50505050505050505050505060405180910390f35b6103786004803603602081101561034c57600080fd5b81019080803573ffffffffffffffffffffffffffffffffffffffff169060200190929190505050610b5d565b005b6103bc6004803603602081101561039057600080fd5b81019080803573ffffffffffffffffffffffffffffffffffffffff169060200190929190505050610c28565b604051808215151515815260200191505060405180910390f35b610418600480360360208110156103ec57600080fd5b81019080803573ffffffffffffffffffffffffffffffffffffffff169060200190929190505050610c81565b604051808215151515815260200191505060405180910390f35b6104746004803603602081101561044857600080fd5b81019080803573ffffffffffffffffffffffffffffffffffffffff169060200190929190505050610cda565b604051808215151515815260200191505060405180910390f35b6104d0600480360360208110156104a457600080fd5b81019080803573ffffffffffffffffffffffffffffffffffffffff169060200190929190505050610d33565b005b610514600480360360208110156104e857600080fd5b81019080803573ffffffffffffffffffffffffffffffffffffffff169060200190929190505050610dfe565b005b6105586004803603602081101561052c57600080fd5b81019080803573ffffffffffffffffffffffffffffffffffffffff169060200190929190505050610ec9565b005b6107e2600480360360a081101561057057600080fd5b810190808035906020019064010000000081111561058d57600080fd5b82018360208201111561059f57600080fd5b803590602001918460018302840111640100000000831117156105c157600080fd5b91908080601f016020809104026020016040519081016040528093929190818152602001838380828437600081840152601f19601f8201169050808301925050505050505091929192908035906020019064010000000081111561062457600080fd5b82018360208201111561063657600080fd5b8035906020019184600183028401116401000000008311171561065857600080fd5b91908080601f016020809104026020016040519081016040528093929190818152602001838380828437600081840152601f19601f820116905080830192505050505050509192919290803590602001906401000000008111156106bb57600080fd5b8201836020820111156106cd57600080fd5b803590602001918460018302840111640100000000831117156106ef57600080fd5b91908080601f016020809104026020016040519081016040528093929190818152602001838380828437600081840152601f19601f820116905080830192505050505050509192919290803590602001909291908035906020019064010000000081111561075c57600080fd5b82018360208201111561076e57600080fd5b8035906020019184600183028401116401000000008311171561079057600080fd5b91908080601f016020809104026020016040519081016040528093929190818152602001838380828437600081840152601f19601f820116905080830192505050505050509192919290505050610f94565b005b6107ec61166e565b6040518082815260200191505060405180910390f35b6000600260008373ffffffffffffffffffffffffffffffffffffffff1673ffffffffffffffffffffffffffffffffffffffff16815260200190815260200160002060000160019054906101000a900460ff169050919050565b600060606000606060006060806000600360008a815260200190815260200160002090508060000160010154816000016000018260000160020154836000016003018460050160000160009054906101000a900473ffffffffffffffffffffffffffffffffffffffff168560050160010186600501600201858054600181600116156101000203166002900480601f0160208091040260200160405190810160405280929190818152602001828054600181600116156101000203166002900480156109685780601f1061093d57610100808354040283529160200191610968565b820191906000526020600020905b81548152906001019060200180831161094b57829003601f168201915b50505050509550838054600181600116156101000203166002900480601f016020809104026020016040519081016040528092919081815260200182805460018160011615610100020316600290048015610a045780601f106109d957610100808354040283529160200191610a04565b820191906000526020600020905b8154815290600101906020018083116109e757829003601f168201915b50505050509350818054600181600116156101000203166002900480601f016020809104026020016040519081016040528092919081815260200182805460018160011615610100020316600290048015610aa05780601f10610a7557610100808354040283529160200191610aa0565b820191906000526020600020905b815481529060010190602001808311610a8357829003601f168201915b50505050509150808054600181600116156101000203166002900480601f016020809104026020016040519081016040528092919081815260200182805460018160011615610100020316600290048015610b3c5780601f10610b1157610100808354040283529160200191610b3c565b820191906000526020600020905b815481529060010190602001808311610b1f57829003601f168201915b50505050509050975097509750975097509750975050919395979092949650565b600160009054906101000a900473ffffffffffffffffffffffffffffffffffffffff1673ffffffffffffffffffffffffffffffffffffffff163373ffffffffffffffffffffffffffffffffffffffff1614610bb757600080fd5b610bc081610c28565b15610bca57600080fd5b6001600260008373ffffffffffffffffffffffffffffffffffffffff1673ffffffffffffffffffffffffffffffffffffffff16815260200190815260200160002060000160026101000a81548160ff02191690831515021790555050565b6000600260008373ffffffffffffffffffffffffffffffffffffffff1673ffffffffffffffffffffffffffffffffffffffff16815260200190815260200160002060000160029054906101000a900460ff169050919050565b6000600260008373ffffffffffffffffffffffffffffffffffffffff1673ffffffffffffffffffffffffffffffffffffffff16815260200190815260200160002060000160009054906101000a900460ff169050919050565b6000600260008373ffffffffffffffffffffffffffffffffffffffff1673ffffffffffffffffffffffffffffffffffffffff16815260200190815260200160002060000160039054906101000a900460ff169050919050565b600160009054906101000a900473ffffffffffffffffffffffffffffffffffffffff1673ffffffffffffffffffffffffffffffffffffffff163373ffffffffffffffffffffffffffffffffffffffff1614610d8d57600080fd5b610d9681610cda565b15610da057600080fd5b6001600260008373ffffffffffffffffffffffffffffffffffffffff1673ffffffffffffffffffffffffffffffffffffffff16815260200190815260200160002060000160036101000a81548160ff02191690831515021790555050565b600160009054906101000a900473ffffffffffffffffffffffffffffffffffffffff1673ffffffffffffffffffffffffffffffffffffffff163373ffffffffffffffffffffffffffffffffffffffff1614610e5857600080fd5b610e6181610c81565b15610e6b57600080fd5b6001600260008373ffffffffffffffffffffffffffffffffffffffff1673ffffffffffffffffffffffffffffffffffffffff16815260200190815260200160002060000160006101000a81548160ff02191690831515021790555050565b600160009054906101000a900473ffffffffffffffffffffffffffffffffffffffff1673ffffffffffffffffffffffffffffffffffffffff163373ffffffffffffffffffffffffffffffffffffffff1614610f2357600080fd5b610f2c81610802565b15610f3657600080fd5b6001600260008373ffffffffffffffffffffffffffffffffffffffff1673ffffffffffffffffffffffffffffffffffffffff16815260200190815260200160002060000160016101000a81548160ff02191690831515021790555050565b610f9d33610c81565b610fa657600080fd5b610fae611674565b60005481600001516020018181525050838160000151600001819052508281600001516040018181525050818160000151606001819052503381604001516000019073ffffffffffffffffffffffffffffffffffffffff16908173ffffffffffffffffffffffffffffffffffffffff1681525050858160400151602001819052508481604001516040018190525060008160200190600081111561104e57fe5b9081600081111561105b57fe5b8152505080600360008054815260200190815260200160002060008201518160000160008201518160000190805190602001906110999291906116d2565b50602082015181600101556040820151816002015560608201518160030190805190602001906110ca9291906116d2565b50505060208201518160040160006101000a81548160ff021916908360008111156110f157fe5b021790555060408201518160050160008201518160000160006101000a81548173ffffffffffffffffffffffffffffffffffffffff021916908373ffffffffffffffffffffffffffffffffffffffff16021790555060208201518160010190805190602001906111629291906116d2565b50604082015181600201908051906020019061117f9291906116d2565b50505060608201518160080160008201518160000160006101000a81548173ffffffffffffffffffffffffffffffffffffffff021916908373ffffffffffffffffffffffffffffffffffffffff16021790555060208201518160010190805190602001906111ee9291906116d2565b50604082015181600201908051906020019061120b9291906116d2565b505050608082015181600b0160008201518160000160006101000a81548173ffffffffffffffffffffffffffffffffffffffff021916908373ffffffffffffffffffffffffffffffffffffffff160217905550602082015181600101908051906020019061127a9291906116d2565b5060408201518160020190805190602001906112979291906116d2565b50505060a082015181600e0160008201518160000160006101000a81548173ffffffffffffffffffffffffffffffffffffffff021916908373ffffffffffffffffffffffffffffffffffffffff16021790555060208201518160010190805190602001906113069291906116d2565b5060408201518160020190805190602001906113239291906116d2565b5050509050506004600080548152602001908152602001600020600001819080600181540180825580915050906001820390600052602060002090601102016000909192909190915060008201518160000160008201518160000190805190602001906113919291906116d2565b50602082015181600101556040820151816002015560608201518160030190805190602001906113c29291906116d2565b50505060208201518160040160006101000a81548160ff021916908360008111156113e957fe5b021790555060408201518160050160008201518160000160006101000a81548173ffffffffffffffffffffffffffffffffffffffff021916908373ffffffffffffffffffffffffffffffffffffffff160217905550602082015181600101908051906020019061145a9291906116d2565b5060408201518160020190805190602001906114779291906116d2565b50505060608201518160080160008201518160000160006101000a81548173ffffffffffffffffffffffffffffffffffffffff021916908373ffffffffffffffffffffffffffffffffffffffff16021790555060208201518160010190805190602001906114e69291906116d2565b5060408201518160020190805190602001906115039291906116d2565b505050608082015181600b0160008201518160000160006101000a81548173ffffffffffffffffffffffffffffffffffffffff021916908373ffffffffffffffffffffffffffffffffffffffff16021790555060208201518160010190805190602001906115729291906116d2565b50604082015181600201908051906020019061158f9291906116d2565b50505060a082015181600e0160008201518160000160006101000a81548173ffffffffffffffffffffffffffffffffffffffff021916908373ffffffffffffffffffffffffffffffffffffffff16021790555060208201518160010190805190602001906115fe9291906116d2565b50604082015181600201908051906020019061161b9291906116d2565b5050505050507fd29d8a68ca7c8c74be5579719d445aabfe230ed6e6a83aff475a663500eb76096000546040518082815260200191505060405180910390a1600160005401600081905550505050505050565b60005481565b6040518060c00160405280611687611752565b815260200160008081111561169857fe5b81526020016116a561177a565b81526020016116b26117b1565b81526020016116bf6117e8565b81526020016116cc61181f565b81525090565b828054600181600116156101000203166002900490600052602060002090601f016020900481019282601f1061171357805160ff1916838001178555611741565b82800160010185558215611741579182015b82811115611740578251825591602001919060010190611725565b5b50905061174e9190611856565b5090565b6040518060800160405280606081526020016000815260200160008152602001606081525090565b6040518060600160405280600073ffffffffffffffffffffffffffffffffffffffff16815260200160608152602001606081525090565b6040518060600160405280600073ffffffffffffffffffffffffffffffffffffffff16815260200160608152602001606081525090565b6040518060600160405280600073ffffffffffffffffffffffffffffffffffffffff16815260200160608152602001606081525090565b6040518060600160405280600073ffffffffffffffffffffffffffffffffffffffff16815260200160608152602001606081525090565b61187891905b8082111561187457600081600090555060010161185c565b5090565b9056fea265627a7a72315820333e137b8b9a25b3874d2a6f0dcf3299d1bfd681060a1f54ccd7ad790e7b613264736f6c63430005100032",
  "source": "// SPDX-License-Identifier: MIT\r\npragma solidity >=0.4.21 <8.10.0;\r\n\r\nimport \"./Structure.sol\";\r\n\r\ncontract SupplyChain {\r\n    uint256 public uid;\r\n    address owner;\r\n\r\n    mapping(address => Structure.Roles) roles;\r\n    mapping(uint256 => Structure.Product) products;\r\n    mapping(uint256 => Structure.ProductHistory) productHistory;\r\n\r\n    constructor() public {\r\n        owner = msg.sender;\r\n        uid = 1;\r\n    }\r\n\r\n    event Manufactured(uint256 uid);\r\n\r\n    function hasManufacturerRole(address _account) public view returns (bool) {\r\n        return roles[_account].Manufacturer;\r\n    }\r\n\r\n    function addManufacturerRole(address _account) public {\r\n        require(msg.sender == owner);\r\n        require(!hasManufacturerRole(_account));\r\n        roles[_account].Manufacturer = true;\r\n    }\r\n\r\n    function hasDistributorRole(address _account) public view returns (bool) {\r\n        return roles[_account].Distributor;\r\n    }\r\n\r\n    function addDistributorRole(address _account) public {\r\n        require(msg.sender == owner);\r\n        require(!hasDistributorRole(_account));\r\n        roles[_account].Distributor = true;\r\n    }\r\n\r\n    function hasDeliveryRole(address _account) public view returns (bool) {\r\n        return roles[_account].Delivery;\r\n    }\r\n\r\n    function addDeliveryRole(address _account) public {\r\n        require(msg.sender == owner);\r\n        require(!hasDeliveryRole(_account));\r\n\r\n        roles[_account].Delivery = true;\r\n    }\r\n\r\n    function hasVaccinationCenterRole(address _account)\r\n        public\r\n        view\r\n        returns (bool)\r\n    {\r\n        return roles[_account].VaccinationCenter;\r\n    }\r\n\r\n    function addVaccinationCenterRole(address _account) public {\r\n        require(msg.sender == owner);\r\n        require(!hasVaccinationCenterRole(_account));\r\n        roles[_account].VaccinationCenter = true;\r\n    }\r\n\r\n    function manufactureProduct(\r\n        string memory manufacturerLongitude,\r\n        string memory manufacturerLatitude,\r\n        string memory productName,\r\n        uint256 productPrice,\r\n        string memory productCategory\r\n    ) public {\r\n        require(hasManufacturerRole(msg.sender));\r\n        Structure.Product memory product;\r\n        product.productdet.productid = uid;\r\n        product.productdet.productName = productName;\r\n        product.productdet.productPrice = productPrice;\r\n        product.productdet.productCategory = productCategory;\r\n        product.manufacturer.manufacturer = msg.sender;\r\n        product.manufacturer.manufacturerLongitude = manufacturerLongitude;\r\n        product.manufacturer.manufacturerLatitude = manufacturerLatitude;\r\n        product.productState = Structure.State.Manufactured;\r\n\r\n        products[uid] = product;\r\n\r\n        productHistory[uid].history.push(product);\r\n\r\n        emit Manufactured(uid);\r\n        uid = uid + 1;\r\n    }\r\n\r\n    function fetchProduct(uint256 _uid) public view returns (uint256,\r\n    string memory,\r\n    uint256,\r\n    string memory,\r\n    address,\r\n    string memory,\r\n    string memory\r\n    ) {\r\n        Structure.Product storage product = products[_uid];\r\n        return ( product.productdet.productid, product.productdet.productName, product.productdet.productPrice, product.productdet.productCategory, product.manufacturer.manufacturer,\r\n        product.manufacturer.manufacturerLongitude, product.manufacturer.manufacturerLatitude);\r\n    }\r\n}\r\n",
  "sourcePath": "C:\\Users\\Yash Tayal\\Desktop\\Projects\\vaccine-distributtion-system\\contracts\\SupplyChain.sol",
  "compiler": {
    "name": "solc",
    "version": "0.5.16+commit.9c3226ce.Emscripten.clang"
  },
  "schemaVersion": "3.4.3",
  "updatedAt": "2022-01-31T17:42:14.302Z",
  "networkType": "ethereum",
  "devdoc": {
    "methods": {}
  },
  "userdoc": {
    "methods": {}
  }
}