{
  "contractName": "SupplyChain",
  "abi": [
    {
      "inputs": [],
      "payable": false,
      "stateMutability": "nonpayable",
      "type": "constructor"
    },
    {
      "anonymous": false,
      "inputs": [
        {
          "indexed": false,
          "internalType": "uint256",
          "name": "uid",
          "type": "uint256"
        }
      ],
      "name": "Manufactured",
      "type": "event"
    },
    {
      "anonymous": false,
      "inputs": [
        {
          "indexed": false,
          "internalType": "uint256",
          "name": "uid",
          "type": "uint256"
        }
      ],
      "name": "PurchasedByDistributor",
      "type": "event"
    },
    {
      "anonymous": false,
      "inputs": [
        {
          "indexed": false,
          "internalType": "uint256",
          "name": "uid",
          "type": "uint256"
        }
      ],
      "name": "PurchasedByVaccinationCenter",
      "type": "event"
    },
    {
      "anonymous": false,
      "inputs": [
        {
          "indexed": false,
          "internalType": "uint256",
          "name": "uid",
          "type": "uint256"
        }
      ],
      "name": "ReceivedByDeliveryHub",
      "type": "event"
    },
    {
      "anonymous": false,
      "inputs": [
        {
          "indexed": false,
          "internalType": "uint256",
          "name": "uid",
          "type": "uint256"
        }
      ],
      "name": "ReceivedByDistributor",
      "type": "event"
    },
    {
      "anonymous": false,
      "inputs": [
        {
          "indexed": false,
          "internalType": "uint256",
          "name": "uid",
          "type": "uint256"
        }
      ],
      "name": "ReceivedByVaccinationCenter",
      "type": "event"
    },
    {
      "anonymous": false,
      "inputs": [
        {
          "indexed": false,
          "internalType": "uint256",
          "name": "uid",
          "type": "uint256"
        }
      ],
      "name": "ShippedByDeliveryHub",
      "type": "event"
    },
    {
      "anonymous": false,
      "inputs": [
        {
          "indexed": false,
          "internalType": "uint256",
          "name": "uid",
          "type": "uint256"
        }
      ],
      "name": "ShippedByDistributor",
      "type": "event"
    },
    {
      "anonymous": false,
      "inputs": [
        {
          "indexed": false,
          "internalType": "uint256",
          "name": "uid",
          "type": "uint256"
        }
      ],
      "name": "ShippedByManufacturer",
      "type": "event"
    },
    {
      "constant": true,
      "inputs": [],
      "name": "uid",
      "outputs": [
        {
          "internalType": "uint256",
          "name": "",
          "type": "uint256"
        }
      ],
      "payable": false,
      "stateMutability": "view",
      "type": "function"
    },
    {
      "constant": true,
      "inputs": [
        {
          "internalType": "address",
          "name": "_account",
          "type": "address"
        }
      ],
      "name": "hasManufacturerRole",
      "outputs": [
        {
          "internalType": "bool",
          "name": "",
          "type": "bool"
        }
      ],
      "payable": false,
      "stateMutability": "view",
      "type": "function"
    },
    {
      "constant": false,
      "inputs": [
        {
          "internalType": "address",
          "name": "_account",
          "type": "address"
        }
      ],
      "name": "addManufacturerRole",
      "outputs": [],
      "payable": false,
      "stateMutability": "nonpayable",
      "type": "function"
    },
    {
      "constant": true,
      "inputs": [
        {
          "internalType": "address",
          "name": "_account",
          "type": "address"
        }
      ],
      "name": "hasDistributorRole",
      "outputs": [
        {
          "internalType": "bool",
          "name": "",
          "type": "bool"
        }
      ],
      "payable": false,
      "stateMutability": "view",
      "type": "function"
    },
    {
      "constant": false,
      "inputs": [
        {
          "internalType": "address",
          "name": "_account",
          "type": "address"
        }
      ],
      "name": "addDistributorRole",
      "outputs": [],
      "payable": false,
      "stateMutability": "nonpayable",
      "type": "function"
    },
    {
      "constant": true,
      "inputs": [
        {
          "internalType": "address",
          "name": "_account",
          "type": "address"
        }
      ],
      "name": "hasDeliveryHubRole",
      "outputs": [
        {
          "internalType": "bool",
          "name": "",
          "type": "bool"
        }
      ],
      "payable": false,
      "stateMutability": "view",
      "type": "function"
    },
    {
      "constant": false,
      "inputs": [
        {
          "internalType": "address",
          "name": "_account",
          "type": "address"
        }
      ],
      "name": "addDeliveryHubRole",
      "outputs": [],
      "payable": false,
      "stateMutability": "nonpayable",
      "type": "function"
    },
    {
      "constant": true,
      "inputs": [
        {
          "internalType": "address",
          "name": "_account",
          "type": "address"
        }
      ],
      "name": "hasVaccinationCenterRole",
      "outputs": [
        {
          "internalType": "bool",
          "name": "",
          "type": "bool"
        }
      ],
      "payable": false,
      "stateMutability": "view",
      "type": "function"
    },
    {
      "constant": false,
      "inputs": [
        {
          "internalType": "address",
          "name": "_account",
          "type": "address"
        }
      ],
      "name": "addVaccinationCenterRole",
      "outputs": [],
      "payable": false,
      "stateMutability": "nonpayable",
      "type": "function"
    },
    {
      "constant": false,
      "inputs": [
        {
          "internalType": "string",
          "name": "manufacturerLongitude",
          "type": "string"
        },
        {
          "internalType": "string",
          "name": "manufacturerLatitude",
          "type": "string"
        },
        {
          "internalType": "string",
          "name": "productName",
          "type": "string"
        },
        {
          "internalType": "uint256",
          "name": "productPrice",
          "type": "uint256"
        },
        {
          "internalType": "string",
          "name": "productCategory",
          "type": "string"
        }
      ],
      "name": "manufactureProduct",
      "outputs": [],
      "payable": false,
      "stateMutability": "nonpayable",
      "type": "function"
    },
    {
      "constant": false,
      "inputs": [
        {
          "internalType": "uint256",
          "name": "_uid",
          "type": "uint256"
        }
      ],
      "name": "purchaseByDistributor",
      "outputs": [],
      "payable": false,
      "stateMutability": "nonpayable",
      "type": "function"
    },
    {
      "constant": false,
      "inputs": [
        {
          "internalType": "uint256",
          "name": "_uid",
          "type": "uint256"
        }
      ],
      "name": "shipToDistributor",
      "outputs": [],
      "payable": false,
      "stateMutability": "nonpayable",
      "type": "function"
    },
    {
      "constant": false,
      "inputs": [
        {
          "internalType": "uint256",
          "name": "_uid",
          "type": "uint256"
        },
        {
          "internalType": "string",
          "name": "distributorLongitude",
          "type": "string"
        },
        {
          "internalType": "string",
          "name": "distributorLatitude",
          "type": "string"
        }
      ],
      "name": "receiveByDistributor",
      "outputs": [],
      "payable": false,
      "stateMutability": "nonpayable",
      "type": "function"
    },
    {
      "constant": false,
      "inputs": [
        {
          "internalType": "uint256",
          "name": "_uid",
          "type": "uint256"
        }
      ],
      "name": "purchaseByVaccinationCenter",
      "outputs": [],
      "payable": false,
      "stateMutability": "nonpayable",
      "type": "function"
    },
    {
      "constant": false,
      "inputs": [
        {
          "internalType": "uint256",
          "name": "_uid",
          "type": "uint256"
        }
      ],
      "name": "shipByDistributor",
      "outputs": [],
      "payable": false,
      "stateMutability": "nonpayable",
      "type": "function"
    },
    {
      "constant": false,
      "inputs": [
        {
          "internalType": "uint256",
          "name": "_uid",
          "type": "uint256"
        },
        {
          "internalType": "string",
          "name": "deliveryHubLongitude",
          "type": "string"
        },
        {
          "internalType": "string",
          "name": "deliveryHubLatitude",
          "type": "string"
        }
      ],
      "name": "receiveByDeliveryHub",
      "outputs": [],
      "payable": false,
      "stateMutability": "nonpayable",
      "type": "function"
    },
    {
      "constant": false,
      "inputs": [
        {
          "internalType": "uint256",
          "name": "_uid",
          "type": "uint256"
        }
      ],
      "name": "shipByDeliveryHub",
      "outputs": [],
      "payable": false,
      "stateMutability": "nonpayable",
      "type": "function"
    },
    {
      "constant": false,
      "inputs": [
        {
          "internalType": "uint256",
          "name": "_uid",
          "type": "uint256"
        },
        {
          "internalType": "string",
          "name": "vaccinationcenterLongitude",
          "type": "string"
        },
        {
          "internalType": "string",
          "name": "vaccinationcenterLatitude",
          "type": "string"
        }
      ],
      "name": "receiveByCustomer",
      "outputs": [],
      "payable": false,
      "stateMutability": "nonpayable",
      "type": "function"
    },
    {
      "constant": true,
      "inputs": [],
      "name": "fetchProductCount",
      "outputs": [
        {
          "internalType": "uint256",
          "name": "",
          "type": "uint256"
        }
      ],
      "payable": false,
      "stateMutability": "view",
      "type": "function"
    },
    {
      "constant": true,
      "inputs": [
        {
          "internalType": "uint256",
          "name": "_uid",
          "type": "uint256"
        }
      ],
      "name": "fetchProductState",
      "outputs": [
        {
          "internalType": "enum Structure.State",
          "name": "",
          "type": "uint8"
        }
      ],
      "payable": false,
      "stateMutability": "view",
      "type": "function"
    },
    {
      "constant": true,
      "inputs": [
        {
          "internalType": "uint256",
          "name": "_uid",
          "type": "uint256"
        }
      ],
      "name": "fetchProduct",
      "outputs": [
        {
          "internalType": "uint256",
          "name": "",
          "type": "uint256"
        },
        {
          "internalType": "string",
          "name": "",
          "type": "string"
        },
        {
          "internalType": "uint256",
          "name": "",
          "type": "uint256"
        },
        {
          "internalType": "string",
          "name": "",
          "type": "string"
        },
        {
          "internalType": "address",
          "name": "",
          "type": "address"
        },
        {
          "internalType": "string",
          "name": "",
          "type": "string"
        },
        {
          "internalType": "string",
          "name": "",
          "type": "string"
        },
        {
          "internalType": "address",
          "name": "",
          "type": "address"
        }
      ],
      "payable": false,
      "stateMutability": "view",
      "type": "function"
    }
  ],
  "bytecode": "0x608060405234801561001057600080fd5b5033600160006101000a81548173ffffffffffffffffffffffffffffffffffffffff021916908373ffffffffffffffffffffffffffffffffffffffff1602179055506001600081905550614fee806100696000396000f3fe608060405234801561001057600080fd5b50600436106101375760003560e01c806390d75b37116100b8578063d44bebcc1161007c578063d44bebcc14610cd1578063e2f1fe1414610d2d578063e35d76ce14610d7d578063f16791b314610dab578063f4121b6714610dc9578063f514ce3614610e0d57610137565b806390d75b3714610979578063a8a7acad146109a7578063ad12770d146109eb578063c56142b514610a19578063cf86dee714610ca357610137565b80636971d383116100ff5780636971d3831461070b5780636cf07e24146107675780637c7507c4146107955780638290f859146107d95780638eee90ea1461081d57610137565b806303ea0b5a1461013c5780630cb28a53146101985780634bbd4e67146103f7578063532b26a1146105535780636000ada1146106af575b600080fd5b61017e6004803603602081101561015257600080fd5b81019080803573ffffffffffffffffffffffffffffffffffffffff169060200190929190505050610e2b565b604051808215151515815260200191505060405180910390f35b6101c4600480360360208110156101ae57600080fd5b8101908080359060200190929190505050610e84565b6040518089815260200180602001888152602001806020018773ffffffffffffffffffffffffffffffffffffffff1673ffffffffffffffffffffffffffffffffffffffff16815260200180602001806020018673ffffffffffffffffffffffffffffffffffffffff1673ffffffffffffffffffffffffffffffffffffffff16815260200185810385528c818151815260200191508051906020019080838360005b83811015610280578082015181840152602081019050610265565b50505050905090810190601f1680156102ad5780820380516001836020036101000a031916815260200191505b5085810384528a818151815260200191508051906020019080838360005b838110156102e65780820151818401526020810190506102cb565b50505050905090810190601f1680156103135780820380516001836020036101000a031916815260200191505b50858103835288818151815260200191508051906020019080838360005b8381101561034c578082015181840152602081019050610331565b50505050905090810190601f1680156103795780820380516001836020036101000a031916815260200191505b50858103825287818151815260200191508051906020019080838360005b838110156103b2578082015181840152602081019050610397565b50505050905090810190601f1680156103df5780820380516001836020036101000a031916815260200191505b509c5050505050505050505050505060405180910390f35b6105516004803603606081101561040d57600080fd5b81019080803590602001909291908035906020019064010000000081111561043457600080fd5b82018360208201111561044657600080fd5b8035906020019184600183028401116401000000008311171561046857600080fd5b91908080601f016020809104026020016040519081016040528093929190818152602001838380828437600081840152601f19601f820116905080830192505050505050509192919290803590602001906401000000008111156104cb57600080fd5b8201836020820111156104dd57600080fd5b803590602001918460018302840111640100000000831117156104ff57600080fd5b91908080601f016020809104026020016040519081016040528093929190818152602001838380828437600081840152601f19601f8201169050808301925050505050505091929192905050506111b1565b005b6106ad6004803603606081101561056957600080fd5b81019080803590602001909291908035906020019064010000000081111561059057600080fd5b8201836020820111156105a257600080fd5b803590602001918460018302840111640100000000831117156105c457600080fd5b91908080601f016020809104026020016040519081016040528093929190818152602001838380828437600081840152601f19601f8201169050808301925050505050505091929192908035906020019064010000000081111561062757600080fd5b82018360208201111561063957600080fd5b8035906020019184600183028401116401000000008311171561065b57600080fd5b91908080601f016020809104026020016040519081016040528093929190818152602001838380828437600081840152601f19601f820116905080830192505050505050509192919290505050611809565b005b6106f1600480360360208110156106c557600080fd5b81019080803573ffffffffffffffffffffffffffffffffffffffff169060200190929190505050611e60565b604051808215151515815260200191505060405180910390f35b61074d6004803603602081101561072157600080fd5b81019080803573ffffffffffffffffffffffffffffffffffffffff169060200190929190505050611eb9565b604051808215151515815260200191505060405180910390f35b6107936004803603602081101561077d57600080fd5b8101908080359060200190929190505050611f12565b005b6107d7600480360360208110156107ab57600080fd5b81019080803573ffffffffffffffffffffffffffffffffffffffff1690602001909291905050506124b4565b005b61081b600480360360208110156107ef57600080fd5b81019080803573ffffffffffffffffffffffffffffffffffffffff16906020019092919050505061257f565b005b6109776004803603606081101561083357600080fd5b81019080803590602001909291908035906020019064010000000081111561085a57600080fd5b82018360208201111561086c57600080fd5b8035906020019184600183028401116401000000008311171561088e57600080fd5b91908080601f016020809104026020016040519081016040528093929190818152602001838380828437600081840152601f19601f820116905080830192505050505050509192919290803590602001906401000000008111156108f157600080fd5b82018360208201111561090357600080fd5b8035906020019184600183028401116401000000008311171561092557600080fd5b91908080601f016020809104026020016040519081016040528093929190818152602001838380828437600081840152601f19601f82011690508083019250505050505050919291929050505061264a565b005b6109a56004803603602081101561098f57600080fd5b8101908080359060200190929190505050612c87565b005b6109e9600480360360208110156109bd57600080fd5b81019080803573ffffffffffffffffffffffffffffffffffffffff169060200190929190505050613211565b005b610a1760048036036020811015610a0157600080fd5b81019080803590602001909291905050506132dc565b005b610ca1600480360360a0811015610a2f57600080fd5b8101908080359060200190640100000000811115610a4c57600080fd5b820183602082011115610a5e57600080fd5b80359060200191846001830284011164010000000083111715610a8057600080fd5b91908080601f016020809104026020016040519081016040528093929190818152602001838380828437600081840152601f19601f82011690508083019250505050505050919291929080359060200190640100000000811115610ae357600080fd5b820183602082011115610af557600080fd5b80359060200191846001830284011164010000000083111715610b1757600080fd5b91908080601f016020809104026020016040519081016040528093929190818152602001838380828437600081840152601f19601f82011690508083019250505050505050919291929080359060200190640100000000811115610b7a57600080fd5b820183602082011115610b8c57600080fd5b80359060200191846001830284011164010000000083111715610bae57600080fd5b91908080601f016020809104026020016040519081016040528093929190818152602001838380828437600081840152601f19601f8201169050808301925050505050505091929192908035906020019092919080359060200190640100000000811115610c1b57600080fd5b820183602082011115610c2d57600080fd5b80359060200191846001830284011164010000000083111715610c4f57600080fd5b91908080601f016020809104026020016040519081016040528093929190818152602001838380828437600081840152601f19601f820116905080830192505050505050509192919290505050613866565b005b610ccf60048036036020811015610cb957600080fd5b8101908080359060200190929190505050614006565b005b610d1360048036036020811015610ce757600080fd5b81019080803573ffffffffffffffffffffffffffffffffffffffff1690602001909291905050506145d3565b604051808215151515815260200191505060405180910390f35b610d5960048036036020811015610d4357600080fd5b810190808035906020019092919050505061462c565b60405180826008811115610d6957fe5b60ff16815260200191505060405180910390f35b610da960048036036020811015610d9357600080fd5b8101908080359060200190929190505050614659565b005b610db3614bb3565b6040518082815260200191505060405180910390f35b610e0b60048036036020811015610ddf57600080fd5b81019080803573ffffffffffffffffffffffffffffffffffffffff169060200190929190505050614bbc565b005b610e15614c87565b6040518082815260200191505060405180910390f35b6000600260008373ffffffffffffffffffffffffffffffffffffffff1673ffffffffffffffffffffffffffffffffffffffff16815260200190815260200160002060000160019054906101000a900460ff169050919050565b60006060600060606000606080600080600360008b815260200190815260200160002090508060010160010154816001016000018260010160020154836001016003018460060160000160009054906101000a900473ffffffffffffffffffffffffffffffffffffffff1685600601600101866006016002018760090160000160009054906101000a900473ffffffffffffffffffffffffffffffffffffffff16868054600181600116156101000203166002900480601f016020809104026020016040519081016040528092919081815260200182805460018160011615610100020316600290048015610fba5780601f10610f8f57610100808354040283529160200191610fba565b820191906000526020600020905b815481529060010190602001808311610f9d57829003601f168201915b50505050509650848054600181600116156101000203166002900480601f0160208091040260200160405190810160405280929190818152602001828054600181600116156101000203166002900480156110565780601f1061102b57610100808354040283529160200191611056565b820191906000526020600020905b81548152906001019060200180831161103957829003601f168201915b50505050509450828054600181600116156101000203166002900480601f0160208091040260200160405190810160405280929190818152602001828054600181600116156101000203166002900480156110f25780601f106110c7576101008083540402835291602001916110f2565b820191906000526020600020905b8154815290600101906020018083116110d557829003601f168201915b50505050509250818054600181600116156101000203166002900480601f01602080910402602001604051908101604052809291908181526020018280546001816001161561010002031660029004801561118e5780601f106111635761010080835404028352916020019161118e565b820191906000526020600020905b81548152906001019060200180831161117157829003601f168201915b505050505091509850985098509850985098509850985050919395975091939597565b82600760088111156111bf57fe5b6003600083815260200190815260200160002060050160009054906101000a900460ff1660088111156111ee57fe5b146111f857600080fd5b60036000858152602001908152602001600020600f0160000160009054906101000a900473ffffffffffffffffffffffffffffffffffffffff168073ffffffffffffffffffffffffffffffffffffffff163373ffffffffffffffffffffffffffffffffffffffff161461126a57600080fd5b61127333611eb9565b61127c57600080fd5b336003600087815260200190815260200160002060000160006101000a81548173ffffffffffffffffffffffffffffffffffffffff021916908373ffffffffffffffffffffffffffffffffffffffff1602179055508360036000878152602001908152602001600020600f0160010190805190602001906112fe929190614c8d565b508260036000878152602001908152602001600020600f01600201908051906020019061132c929190614c8d565b5060086003600087815260200190815260200160002060050160006101000a81548160ff0219169083600881111561136057fe5b02179055506004600086815260200190815260200160002060000160036000878152602001908152602001600020908060018154018082558091505090600182039060005260206000209060120201600090919290919091506000820160009054906101000a900473ffffffffffffffffffffffffffffffffffffffff168160000160006101000a81548173ffffffffffffffffffffffffffffffffffffffff021916908373ffffffffffffffffffffffffffffffffffffffff16021790555060018201816001016000820181600001908054600181600116156101000203166002900461144f929190614d0d565b5060018201548160010155600282015481600201556003820181600301908054600181600116156101000203166002900461148b929190614d0d565b5050506005820160009054906101000a900460ff168160050160006101000a81548160ff021916908360088111156114bf57fe5b021790555060068201816006016000820160009054906101000a900473ffffffffffffffffffffffffffffffffffffffff168160000160006101000a81548173ffffffffffffffffffffffffffffffffffffffff021916908373ffffffffffffffffffffffffffffffffffffffff1602179055506001820181600101908054600181600116156101000203166002900461155a929190614d0d565b5060028201816002019080546001816001161561010002031660029004611582929190614d0d565b50505060098201816009016000820160009054906101000a900473ffffffffffffffffffffffffffffffffffffffff168160000160006101000a81548173ffffffffffffffffffffffffffffffffffffffff021916908373ffffffffffffffffffffffffffffffffffffffff1602179055506001820181600101908054600181600116156101000203166002900461161b929190614d0d565b5060028201816002019080546001816001161561010002031660029004611643929190614d0d565b505050600c820181600c016000820160009054906101000a900473ffffffffffffffffffffffffffffffffffffffff168160000160006101000a81548173ffffffffffffffffffffffffffffffffffffffff021916908373ffffffffffffffffffffffffffffffffffffffff160217905550600182018160010190805460018160011615610100020316600290046116dc929190614d0d565b5060028201816002019080546001816001161561010002031660029004611704929190614d0d565b505050600f820181600f016000820160009054906101000a900473ffffffffffffffffffffffffffffffffffffffff168160000160006101000a81548173ffffffffffffffffffffffffffffffffffffffff021916908373ffffffffffffffffffffffffffffffffffffffff1602179055506001820181600101908054600181600116156101000203166002900461179d929190614d0d565b50600282018160020190805460018160011615610100020316600290046117c5929190614d0d565b5050505050507faeafd725bf462493136b40ed95631fe00d2c8ee209d1631e376845207386e147856040518082815260200191505060405180910390a15050505050565b826002600881111561181757fe5b6003600083815260200190815260200160002060050160009054906101000a900460ff16600881111561184657fe5b1461185057600080fd5b6003600085815260200190815260200160002060090160000160009054906101000a900473ffffffffffffffffffffffffffffffffffffffff168073ffffffffffffffffffffffffffffffffffffffff163373ffffffffffffffffffffffffffffffffffffffff16146118c257600080fd5b6118cb33610e2b565b6118d457600080fd5b336003600087815260200190815260200160002060000160006101000a81548173ffffffffffffffffffffffffffffffffffffffff021916908373ffffffffffffffffffffffffffffffffffffffff16021790555083600360008781526020019081526020016000206009016001019080519060200190611956929190614c8d565b5082600360008781526020019081526020016000206009016002019080519060200190611984929190614c8d565b50600380600087815260200190815260200160002060050160006101000a81548160ff021916908360088111156119b757fe5b02179055506004600086815260200190815260200160002060000160036000878152602001908152602001600020908060018154018082558091505090600182039060005260206000209060120201600090919290919091506000820160009054906101000a900473ffffffffffffffffffffffffffffffffffffffff168160000160006101000a81548173ffffffffffffffffffffffffffffffffffffffff021916908373ffffffffffffffffffffffffffffffffffffffff160217905550600182018160010160008201816000019080546001816001161561010002031660029004611aa6929190614d0d565b50600182015481600101556002820154816002015560038201816003019080546001816001161561010002031660029004611ae2929190614d0d565b5050506005820160009054906101000a900460ff168160050160006101000a81548160ff02191690836008811115611b1657fe5b021790555060068201816006016000820160009054906101000a900473ffffffffffffffffffffffffffffffffffffffff168160000160006101000a81548173ffffffffffffffffffffffffffffffffffffffff021916908373ffffffffffffffffffffffffffffffffffffffff16021790555060018201816001019080546001816001161561010002031660029004611bb1929190614d0d565b5060028201816002019080546001816001161561010002031660029004611bd9929190614d0d565b50505060098201816009016000820160009054906101000a900473ffffffffffffffffffffffffffffffffffffffff168160000160006101000a81548173ffffffffffffffffffffffffffffffffffffffff021916908373ffffffffffffffffffffffffffffffffffffffff16021790555060018201816001019080546001816001161561010002031660029004611c72929190614d0d565b5060028201816002019080546001816001161561010002031660029004611c9a929190614d0d565b505050600c820181600c016000820160009054906101000a900473ffffffffffffffffffffffffffffffffffffffff168160000160006101000a81548173ffffffffffffffffffffffffffffffffffffffff021916908373ffffffffffffffffffffffffffffffffffffffff16021790555060018201816001019080546001816001161561010002031660029004611d33929190614d0d565b5060028201816002019080546001816001161561010002031660029004611d5b929190614d0d565b505050600f820181600f016000820160009054906101000a900473ffffffffffffffffffffffffffffffffffffffff168160000160006101000a81548173ffffffffffffffffffffffffffffffffffffffff021916908373ffffffffffffffffffffffffffffffffffffffff16021790555060018201816001019080546001816001161561010002031660029004611df4929190614d0d565b5060028201816002019080546001816001161561010002031660029004611e1c929190614d0d565b5050505050507fc8ca2150e6e1849a10ef5aa4932060fa353bcacdffeb150c9e1890c6ab9403cc856040518082815260200191505060405180910390a15050505050565b6000600260008373ffffffffffffffffffffffffffffffffffffffff1673ffffffffffffffffffffffffffffffffffffffff16815260200190815260200160002060000160009054906101000a900460ff169050919050565b6000600260008373ffffffffffffffffffffffffffffffffffffffff1673ffffffffffffffffffffffffffffffffffffffff16815260200190815260200160002060000160039054906101000a900460ff169050919050565b8060066008811115611f2057fe5b6003600083815260200190815260200160002060050160009054906101000a900460ff166008811115611f4f57fe5b14611f5957600080fd5b6003600083815260200190815260200160002060000160009054906101000a900473ffffffffffffffffffffffffffffffffffffffff168073ffffffffffffffffffffffffffffffffffffffff163373ffffffffffffffffffffffffffffffffffffffff1614611fc857600080fd5b611fd1336145d3565b611fda57600080fd5b60076003600085815260200190815260200160002060050160006101000a81548160ff0219169083600881111561200d57fe5b02179055506004600084815260200190815260200160002060000160036000858152602001908152602001600020908060018154018082558091505090600182039060005260206000209060120201600090919290919091506000820160009054906101000a900473ffffffffffffffffffffffffffffffffffffffff168160000160006101000a81548173ffffffffffffffffffffffffffffffffffffffff021916908373ffffffffffffffffffffffffffffffffffffffff1602179055506001820181600101600082018160000190805460018160011615610100020316600290046120fc929190614d0d565b50600182015481600101556002820154816002015560038201816003019080546001816001161561010002031660029004612138929190614d0d565b5050506005820160009054906101000a900460ff168160050160006101000a81548160ff0219169083600881111561216c57fe5b021790555060068201816006016000820160009054906101000a900473ffffffffffffffffffffffffffffffffffffffff168160000160006101000a81548173ffffffffffffffffffffffffffffffffffffffff021916908373ffffffffffffffffffffffffffffffffffffffff16021790555060018201816001019080546001816001161561010002031660029004612207929190614d0d565b506002820181600201908054600181600116156101000203166002900461222f929190614d0d565b50505060098201816009016000820160009054906101000a900473ffffffffffffffffffffffffffffffffffffffff168160000160006101000a81548173ffffffffffffffffffffffffffffffffffffffff021916908373ffffffffffffffffffffffffffffffffffffffff160217905550600182018160010190805460018160011615610100020316600290046122c8929190614d0d565b50600282018160020190805460018160011615610100020316600290046122f0929190614d0d565b505050600c820181600c016000820160009054906101000a900473ffffffffffffffffffffffffffffffffffffffff168160000160006101000a81548173ffffffffffffffffffffffffffffffffffffffff021916908373ffffffffffffffffffffffffffffffffffffffff16021790555060018201816001019080546001816001161561010002031660029004612389929190614d0d565b50600282018160020190805460018160011615610100020316600290046123b1929190614d0d565b505050600f820181600f016000820160009054906101000a900473ffffffffffffffffffffffffffffffffffffffff168160000160006101000a81548173ffffffffffffffffffffffffffffffffffffffff021916908373ffffffffffffffffffffffffffffffffffffffff1602179055506001820181600101908054600181600116156101000203166002900461244a929190614d0d565b5060028201816002019080546001816001161561010002031660029004612472929190614d0d565b5050505050507f9a96442e96ac96ba57e48273f290bf3bb9c6b0b2c86843cc4bf2353119918fdf836040518082815260200191505060405180910390a1505050565b600160009054906101000a900473ffffffffffffffffffffffffffffffffffffffff1673ffffffffffffffffffffffffffffffffffffffff163373ffffffffffffffffffffffffffffffffffffffff161461250e57600080fd5b61251781611eb9565b1561252157600080fd5b6001600260008373ffffffffffffffffffffffffffffffffffffffff1673ffffffffffffffffffffffffffffffffffffffff16815260200190815260200160002060000160036101000a81548160ff02191690831515021790555050565b600160009054906101000a900473ffffffffffffffffffffffffffffffffffffffff1673ffffffffffffffffffffffffffffffffffffffff163373ffffffffffffffffffffffffffffffffffffffff16146125d957600080fd5b6125e281611e60565b156125ec57600080fd5b6001600260008373ffffffffffffffffffffffffffffffffffffffff1673ffffffffffffffffffffffffffffffffffffffff16815260200190815260200160002060000160006101000a81548160ff02191690831515021790555050565b826005600881111561265857fe5b6003600083815260200190815260200160002060050160009054906101000a900460ff16600881111561268757fe5b1461269157600080fd5b61269a336145d3565b6126a357600080fd5b336003600086815260200190815260200160002060000160006101000a81548173ffffffffffffffffffffffffffffffffffffffff021916908373ffffffffffffffffffffffffffffffffffffffff1602179055503360036000868152602001908152602001600020600c0160000160006101000a81548173ffffffffffffffffffffffffffffffffffffffff021916908373ffffffffffffffffffffffffffffffffffffffff1602179055508260036000868152602001908152602001600020600c01600101908051906020019061277d929190614c8d565b508160036000868152602001908152602001600020600c0160020190805190602001906127ab929190614c8d565b5060066003600086815260200190815260200160002060050160006101000a81548160ff021916908360088111156127df57fe5b02179055506004600085815260200190815260200160002060000160036000868152602001908152602001600020908060018154018082558091505090600182039060005260206000209060120201600090919290919091506000820160009054906101000a900473ffffffffffffffffffffffffffffffffffffffff168160000160006101000a81548173ffffffffffffffffffffffffffffffffffffffff021916908373ffffffffffffffffffffffffffffffffffffffff1602179055506001820181600101600082018160000190805460018160011615610100020316600290046128ce929190614d0d565b5060018201548160010155600282015481600201556003820181600301908054600181600116156101000203166002900461290a929190614d0d565b5050506005820160009054906101000a900460ff168160050160006101000a81548160ff0219169083600881111561293e57fe5b021790555060068201816006016000820160009054906101000a900473ffffffffffffffffffffffffffffffffffffffff168160000160006101000a81548173ffffffffffffffffffffffffffffffffffffffff021916908373ffffffffffffffffffffffffffffffffffffffff160217905550600182018160010190805460018160011615610100020316600290046129d9929190614d0d565b5060028201816002019080546001816001161561010002031660029004612a01929190614d0d565b50505060098201816009016000820160009054906101000a900473ffffffffffffffffffffffffffffffffffffffff168160000160006101000a81548173ffffffffffffffffffffffffffffffffffffffff021916908373ffffffffffffffffffffffffffffffffffffffff16021790555060018201816001019080546001816001161561010002031660029004612a9a929190614d0d565b5060028201816002019080546001816001161561010002031660029004612ac2929190614d0d565b505050600c820181600c016000820160009054906101000a900473ffffffffffffffffffffffffffffffffffffffff168160000160006101000a81548173ffffffffffffffffffffffffffffffffffffffff021916908373ffffffffffffffffffffffffffffffffffffffff16021790555060018201816001019080546001816001161561010002031660029004612b5b929190614d0d565b5060028201816002019080546001816001161561010002031660029004612b83929190614d0d565b505050600f820181600f016000820160009054906101000a900473ffffffffffffffffffffffffffffffffffffffff168160000160006101000a81548173ffffffffffffffffffffffffffffffffffffffff021916908373ffffffffffffffffffffffffffffffffffffffff16021790555060018201816001019080546001816001161561010002031660029004612c1c929190614d0d565b5060028201816002019080546001816001161561010002031660029004612c44929190614d0d565b5050505050507fb6589947d486bf61c31a4e6d2e81d4d2c93e7832fdda27f2492009b4755c29ed846040518082815260200191505060405180910390a150505050565b8060006008811115612c9557fe5b6003600083815260200190815260200160002060050160009054906101000a900460ff166008811115612cc457fe5b14612cce57600080fd5b612cd733610e2b565b612ce057600080fd5b336003600084815260200190815260200160002060090160000160006101000a81548173ffffffffffffffffffffffffffffffffffffffff021916908373ffffffffffffffffffffffffffffffffffffffff16021790555060016003600084815260200190815260200160002060050160006101000a81548160ff02191690836008811115612d6b57fe5b02179055506004600083815260200190815260200160002060000160036000848152602001908152602001600020908060018154018082558091505090600182039060005260206000209060120201600090919290919091506000820160009054906101000a900473ffffffffffffffffffffffffffffffffffffffff168160000160006101000a81548173ffffffffffffffffffffffffffffffffffffffff021916908373ffffffffffffffffffffffffffffffffffffffff160217905550600182018160010160008201816000019080546001816001161561010002031660029004612e5a929190614d0d565b50600182015481600101556002820154816002015560038201816003019080546001816001161561010002031660029004612e96929190614d0d565b5050506005820160009054906101000a900460ff168160050160006101000a81548160ff02191690836008811115612eca57fe5b021790555060068201816006016000820160009054906101000a900473ffffffffffffffffffffffffffffffffffffffff168160000160006101000a81548173ffffffffffffffffffffffffffffffffffffffff021916908373ffffffffffffffffffffffffffffffffffffffff16021790555060018201816001019080546001816001161561010002031660029004612f65929190614d0d565b5060028201816002019080546001816001161561010002031660029004612f8d929190614d0d565b50505060098201816009016000820160009054906101000a900473ffffffffffffffffffffffffffffffffffffffff168160000160006101000a81548173ffffffffffffffffffffffffffffffffffffffff021916908373ffffffffffffffffffffffffffffffffffffffff16021790555060018201816001019080546001816001161561010002031660029004613026929190614d0d565b506002820181600201908054600181600116156101000203166002900461304e929190614d0d565b505050600c820181600c016000820160009054906101000a900473ffffffffffffffffffffffffffffffffffffffff168160000160006101000a81548173ffffffffffffffffffffffffffffffffffffffff021916908373ffffffffffffffffffffffffffffffffffffffff160217905550600182018160010190805460018160011615610100020316600290046130e7929190614d0d565b506002820181600201908054600181600116156101000203166002900461310f929190614d0d565b505050600f820181600f016000820160009054906101000a900473ffffffffffffffffffffffffffffffffffffffff168160000160006101000a81548173ffffffffffffffffffffffffffffffffffffffff021916908373ffffffffffffffffffffffffffffffffffffffff160217905550600182018160010190805460018160011615610100020316600290046131a8929190614d0d565b50600282018160020190805460018160011615610100020316600290046131d0929190614d0d565b5050505050507facd9402b9f9e8c15fa7c1819f8393ca56eb61316cc354fc6ac2150aed3ce7931826040518082815260200191505060405180910390a15050565b600160009054906101000a900473ffffffffffffffffffffffffffffffffffffffff1673ffffffffffffffffffffffffffffffffffffffff163373ffffffffffffffffffffffffffffffffffffffff161461326b57600080fd5b61327481610e2b565b1561327e57600080fd5b6001600260008373ffffffffffffffffffffffffffffffffffffffff1673ffffffffffffffffffffffffffffffffffffffff16815260200190815260200160002060000160016101000a81548160ff02191690831515021790555050565b80600360088111156132ea57fe5b6003600083815260200190815260200160002060050160009054906101000a900460ff16600881111561331957fe5b1461332357600080fd5b61332c33611eb9565b61333557600080fd5b3360036000848152602001908152602001600020600f0160000160006101000a81548173ffffffffffffffffffffffffffffffffffffffff021916908373ffffffffffffffffffffffffffffffffffffffff16021790555060046003600084815260200190815260200160002060050160006101000a81548160ff021916908360088111156133c057fe5b02179055506004600083815260200190815260200160002060000160036000848152602001908152602001600020908060018154018082558091505090600182039060005260206000209060120201600090919290919091506000820160009054906101000a900473ffffffffffffffffffffffffffffffffffffffff168160000160006101000a81548173ffffffffffffffffffffffffffffffffffffffff021916908373ffffffffffffffffffffffffffffffffffffffff1602179055506001820181600101600082018160000190805460018160011615610100020316600290046134af929190614d0d565b506001820154816001015560028201548160020155600382018160030190805460018160011615610100020316600290046134eb929190614d0d565b5050506005820160009054906101000a900460ff168160050160006101000a81548160ff0219169083600881111561351f57fe5b021790555060068201816006016000820160009054906101000a900473ffffffffffffffffffffffffffffffffffffffff168160000160006101000a81548173ffffffffffffffffffffffffffffffffffffffff021916908373ffffffffffffffffffffffffffffffffffffffff160217905550600182018160010190805460018160011615610100020316600290046135ba929190614d0d565b50600282018160020190805460018160011615610100020316600290046135e2929190614d0d565b50505060098201816009016000820160009054906101000a900473ffffffffffffffffffffffffffffffffffffffff168160000160006101000a81548173ffffffffffffffffffffffffffffffffffffffff021916908373ffffffffffffffffffffffffffffffffffffffff1602179055506001820181600101908054600181600116156101000203166002900461367b929190614d0d565b50600282018160020190805460018160011615610100020316600290046136a3929190614d0d565b505050600c820181600c016000820160009054906101000a900473ffffffffffffffffffffffffffffffffffffffff168160000160006101000a81548173ffffffffffffffffffffffffffffffffffffffff021916908373ffffffffffffffffffffffffffffffffffffffff1602179055506001820181600101908054600181600116156101000203166002900461373c929190614d0d565b5060028201816002019080546001816001161561010002031660029004613764929190614d0d565b505050600f820181600f016000820160009054906101000a900473ffffffffffffffffffffffffffffffffffffffff168160000160006101000a81548173ffffffffffffffffffffffffffffffffffffffff021916908373ffffffffffffffffffffffffffffffffffffffff160217905550600182018160010190805460018160011615610100020316600290046137fd929190614d0d565b5060028201816002019080546001816001161561010002031660029004613825929190614d0d565b5050505050507fda1b5272c78a876b6ee948dcb311f9d42ebabc9dd56c7c7a29798aaea34f62f8826040518082815260200191505060405180910390a15050565b61386f33611e60565b61387857600080fd5b613880614d94565b33816000019073ffffffffffffffffffffffffffffffffffffffff16908173ffffffffffffffffffffffffffffffffffffffff168152505060005481602001516020018181525050838160200151600001819052508281602001516040018181525050818160200151606001819052503381606001516000019073ffffffffffffffffffffffffffffffffffffffff16908173ffffffffffffffffffffffffffffffffffffffff1681525050858160600151602001819052508481606001516040018190525060008160400190600881111561395857fe5b9081600881111561396557fe5b8152505080600360008054815260200190815260200160002060008201518160000160006101000a81548173ffffffffffffffffffffffffffffffffffffffff021916908373ffffffffffffffffffffffffffffffffffffffff16021790555060208201518160010160008201518160000190805190602001906139ea929190614e10565b5060208201518160010155604082015181600201556060820151816003019080519060200190613a1b929190614e10565b50505060408201518160050160006101000a81548160ff02191690836008811115613a4257fe5b021790555060608201518160060160008201518160000160006101000a81548173ffffffffffffffffffffffffffffffffffffffff021916908373ffffffffffffffffffffffffffffffffffffffff1602179055506020820151816001019080519060200190613ab3929190614e10565b506040820151816002019080519060200190613ad0929190614e10565b50505060808201518160090160008201518160000160006101000a81548173ffffffffffffffffffffffffffffffffffffffff021916908373ffffffffffffffffffffffffffffffffffffffff1602179055506020820151816001019080519060200190613b3f929190614e10565b506040820151816002019080519060200190613b5c929190614e10565b50505060a082015181600c0160008201518160000160006101000a81548173ffffffffffffffffffffffffffffffffffffffff021916908373ffffffffffffffffffffffffffffffffffffffff1602179055506020820151816001019080519060200190613bcb929190614e10565b506040820151816002019080519060200190613be8929190614e10565b50505060c082015181600f0160008201518160000160006101000a81548173ffffffffffffffffffffffffffffffffffffffff021916908373ffffffffffffffffffffffffffffffffffffffff1602179055506020820151816001019080519060200190613c57929190614e10565b506040820151816002019080519060200190613c74929190614e10565b5050509050506004600080548152602001908152602001600020600001819080600181540180825580915050906001820390600052602060002090601202016000909192909190915060008201518160000160006101000a81548173ffffffffffffffffffffffffffffffffffffffff021916908373ffffffffffffffffffffffffffffffffffffffff1602179055506020820151816001016000820151816000019080519060200190613d29929190614e10565b5060208201518160010155604082015181600201556060820151816003019080519060200190613d5a929190614e10565b50505060408201518160050160006101000a81548160ff02191690836008811115613d8157fe5b021790555060608201518160060160008201518160000160006101000a81548173ffffffffffffffffffffffffffffffffffffffff021916908373ffffffffffffffffffffffffffffffffffffffff1602179055506020820151816001019080519060200190613df2929190614e10565b506040820151816002019080519060200190613e0f929190614e10565b50505060808201518160090160008201518160000160006101000a81548173ffffffffffffffffffffffffffffffffffffffff021916908373ffffffffffffffffffffffffffffffffffffffff1602179055506020820151816001019080519060200190613e7e929190614e10565b506040820151816002019080519060200190613e9b929190614e10565b50505060a082015181600c0160008201518160000160006101000a81548173ffffffffffffffffffffffffffffffffffffffff021916908373ffffffffffffffffffffffffffffffffffffffff1602179055506020820151816001019080519060200190613f0a929190614e10565b506040820151816002019080519060200190613f27929190614e10565b50505060c082015181600f0160008201518160000160006101000a81548173ffffffffffffffffffffffffffffffffffffffff021916908373ffffffffffffffffffffffffffffffffffffffff1602179055506020820151816001019080519060200190613f96929190614e10565b506040820151816002019080519060200190613fb3929190614e10565b5050505050507fd29d8a68ca7c8c74be5579719d445aabfe230ed6e6a83aff475a663500eb76096000546040518082815260200191505060405180910390a1600160005401600081905550505050505050565b6003600082815260200190815260200160002060000160009054906101000a900473ffffffffffffffffffffffffffffffffffffffff168073ffffffffffffffffffffffffffffffffffffffff163373ffffffffffffffffffffffffffffffffffffffff161461407557600080fd5b6003600083815260200190815260200160002060090160000160009054906101000a900473ffffffffffffffffffffffffffffffffffffffff168073ffffffffffffffffffffffffffffffffffffffff163373ffffffffffffffffffffffffffffffffffffffff16146140e757600080fd5b6140f033610e2b565b6140f957600080fd5b60056003600085815260200190815260200160002060050160006101000a81548160ff0219169083600881111561412c57fe5b02179055506004600084815260200190815260200160002060000160036000858152602001908152602001600020908060018154018082558091505090600182039060005260206000209060120201600090919290919091506000820160009054906101000a900473ffffffffffffffffffffffffffffffffffffffff168160000160006101000a81548173ffffffffffffffffffffffffffffffffffffffff021916908373ffffffffffffffffffffffffffffffffffffffff16021790555060018201816001016000820181600001908054600181600116156101000203166002900461421b929190614d0d565b50600182015481600101556002820154816002015560038201816003019080546001816001161561010002031660029004614257929190614d0d565b5050506005820160009054906101000a900460ff168160050160006101000a81548160ff0219169083600881111561428b57fe5b021790555060068201816006016000820160009054906101000a900473ffffffffffffffffffffffffffffffffffffffff168160000160006101000a81548173ffffffffffffffffffffffffffffffffffffffff021916908373ffffffffffffffffffffffffffffffffffffffff16021790555060018201816001019080546001816001161561010002031660029004614326929190614d0d565b506002820181600201908054600181600116156101000203166002900461434e929190614d0d565b50505060098201816009016000820160009054906101000a900473ffffffffffffffffffffffffffffffffffffffff168160000160006101000a81548173ffffffffffffffffffffffffffffffffffffffff021916908373ffffffffffffffffffffffffffffffffffffffff160217905550600182018160010190805460018160011615610100020316600290046143e7929190614d0d565b506002820181600201908054600181600116156101000203166002900461440f929190614d0d565b505050600c820181600c016000820160009054906101000a900473ffffffffffffffffffffffffffffffffffffffff168160000160006101000a81548173ffffffffffffffffffffffffffffffffffffffff021916908373ffffffffffffffffffffffffffffffffffffffff160217905550600182018160010190805460018160011615610100020316600290046144a8929190614d0d565b50600282018160020190805460018160011615610100020316600290046144d0929190614d0d565b505050600f820181600f016000820160009054906101000a900473ffffffffffffffffffffffffffffffffffffffff168160000160006101000a81548173ffffffffffffffffffffffffffffffffffffffff021916908373ffffffffffffffffffffffffffffffffffffffff16021790555060018201816001019080546001816001161561010002031660029004614569929190614d0d565b5060028201816002019080546001816001161561010002031660029004614591929190614d0d565b5050505050507fc5c33776d405e5686e4386e1ef31a65cf6195e4f7ceb8808ab64d05b6ccbc2a6836040518082815260200191505060405180910390a1505050565b6000600260008373ffffffffffffffffffffffffffffffffffffffff1673ffffffffffffffffffffffffffffffffffffffff16815260200190815260200160002060000160029054906101000a900460ff169050919050565b60006003600083815260200190815260200160002060050160009054906101000a900460ff169050919050565b6003600082815260200190815260200160002060000160009054906101000a900473ffffffffffffffffffffffffffffffffffffffff168073ffffffffffffffffffffffffffffffffffffffff163373ffffffffffffffffffffffffffffffffffffffff16146146c857600080fd5b6146d133611e60565b6146da57600080fd5b60026003600084815260200190815260200160002060050160006101000a81548160ff0219169083600881111561470d57fe5b02179055506004600083815260200190815260200160002060000160036000848152602001908152602001600020908060018154018082558091505090600182039060005260206000209060120201600090919290919091506000820160009054906101000a900473ffffffffffffffffffffffffffffffffffffffff168160000160006101000a81548173ffffffffffffffffffffffffffffffffffffffff021916908373ffffffffffffffffffffffffffffffffffffffff1602179055506001820181600101600082018160000190805460018160011615610100020316600290046147fc929190614d0d565b50600182015481600101556002820154816002015560038201816003019080546001816001161561010002031660029004614838929190614d0d565b5050506005820160009054906101000a900460ff168160050160006101000a81548160ff0219169083600881111561486c57fe5b021790555060068201816006016000820160009054906101000a900473ffffffffffffffffffffffffffffffffffffffff168160000160006101000a81548173ffffffffffffffffffffffffffffffffffffffff021916908373ffffffffffffffffffffffffffffffffffffffff16021790555060018201816001019080546001816001161561010002031660029004614907929190614d0d565b506002820181600201908054600181600116156101000203166002900461492f929190614d0d565b50505060098201816009016000820160009054906101000a900473ffffffffffffffffffffffffffffffffffffffff168160000160006101000a81548173ffffffffffffffffffffffffffffffffffffffff021916908373ffffffffffffffffffffffffffffffffffffffff160217905550600182018160010190805460018160011615610100020316600290046149c8929190614d0d565b50600282018160020190805460018160011615610100020316600290046149f0929190614d0d565b505050600c820181600c016000820160009054906101000a900473ffffffffffffffffffffffffffffffffffffffff168160000160006101000a81548173ffffffffffffffffffffffffffffffffffffffff021916908373ffffffffffffffffffffffffffffffffffffffff16021790555060018201816001019080546001816001161561010002031660029004614a89929190614d0d565b5060028201816002019080546001816001161561010002031660029004614ab1929190614d0d565b505050600f820181600f016000820160009054906101000a900473ffffffffffffffffffffffffffffffffffffffff168160000160006101000a81548173ffffffffffffffffffffffffffffffffffffffff021916908373ffffffffffffffffffffffffffffffffffffffff16021790555060018201816001019080546001816001161561010002031660029004614b4a929190614d0d565b5060028201816002019080546001816001161561010002031660029004614b72929190614d0d565b5050505050507f25727bef8a186dd95a062151451f2d651551b53124c18208d7653b1217ae31ba826040518082815260200191505060405180910390a15050565b60008054905090565b600160009054906101000a900473ffffffffffffffffffffffffffffffffffffffff1673ffffffffffffffffffffffffffffffffffffffff163373ffffffffffffffffffffffffffffffffffffffff1614614c1657600080fd5b614c1f816145d3565b15614c2957600080fd5b6001600260008373ffffffffffffffffffffffffffffffffffffffff1673ffffffffffffffffffffffffffffffffffffffff16815260200190815260200160002060000160026101000a81548160ff02191690831515021790555050565b60005481565b828054600181600116156101000203166002900490600052602060002090601f016020900481019282601f10614cce57805160ff1916838001178555614cfc565b82800160010185558215614cfc579182015b82811115614cfb578251825591602001919060010190614ce0565b5b509050614d099190614e90565b5090565b828054600181600116156101000203166002900490600052602060002090601f016020900481019282601f10614d465780548555614d83565b82800160010185558215614d8357600052602060002091601f016020900482015b82811115614d82578254825591600101919060010190614d67565b5b509050614d909190614e90565b5090565b6040518060e00160405280600073ffffffffffffffffffffffffffffffffffffffff168152602001614dc4614eb5565b815260200160006008811115614dd657fe5b8152602001614de3614edd565b8152602001614df0614f14565b8152602001614dfd614f4b565b8152602001614e0a614f82565b81525090565b828054600181600116156101000203166002900490600052602060002090601f016020900481019282601f10614e5157805160ff1916838001178555614e7f565b82800160010185558215614e7f579182015b82811115614e7e578251825591602001919060010190614e63565b5b509050614e8c9190614e90565b5090565b614eb291905b80821115614eae576000816000905550600101614e96565b5090565b90565b6040518060800160405280606081526020016000815260200160008152602001606081525090565b6040518060600160405280600073ffffffffffffffffffffffffffffffffffffffff16815260200160608152602001606081525090565b6040518060600160405280600073ffffffffffffffffffffffffffffffffffffffff16815260200160608152602001606081525090565b6040518060600160405280600073ffffffffffffffffffffffffffffffffffffffff16815260200160608152602001606081525090565b6040518060600160405280600073ffffffffffffffffffffffffffffffffffffffff1681526020016060815260200160608152509056fea265627a7a72315820bc18979279a9833e3a1ed378716f972570a02abfde83b3d9f7c28273fbd8356764736f6c63430005100032",
  "source": "// SPDX-License-Identifier: MIT\npragma solidity >=0.4.21 <8.10.0;\n\nimport \"./Structure.sol\";\n\ncontract SupplyChain {\n    uint256 public uid;\n    address owner;\n\n    mapping(address => Structure.Roles) roles;\n    mapping(uint256 => Structure.Product) products;\n    mapping(uint256 => Structure.ProductHistory) productHistory;\n\n    constructor() public {\n        owner = msg.sender;\n        uid = 1;\n    }\n\n    event Manufactured(uint256 uid);\n    event PurchasedByDistributor(uint256 uid);\n    event ShippedByManufacturer(uint256 uid);\n    event ReceivedByDistributor(uint256 uid);\n    event PurchasedByVaccinationCenter(uint256 uid);\n    event ShippedByDistributor(uint256 uid);\n    event ReceivedByDeliveryHub(uint256 uid);\n    event ShippedByDeliveryHub(uint256 uid);\n    event ReceivedByVaccinationCenter(uint256 uid);\n\n    function hasManufacturerRole(address _account) public view returns (bool) {\n        return roles[_account].Manufacturer;\n    }\n\n    function addManufacturerRole(address _account) public {\n        require(msg.sender == owner);\n        require(!hasManufacturerRole(_account));\n        roles[_account].Manufacturer = true;\n    }\n\n    function hasDistributorRole(address _account) public view returns (bool) {\n        return roles[_account].Distributor;\n    }\n\n    function addDistributorRole(address _account) public {\n        require(msg.sender == owner);\n        require(!hasDistributorRole(_account));\n        roles[_account].Distributor = true;\n    }\n\n    function hasDeliveryHubRole(address _account) public view returns (bool) {\n        return roles[_account].DeliveryHub;\n    }\n\n    function addDeliveryHubRole(address _account) public {\n        require(msg.sender == owner);\n        require(!hasDeliveryHubRole(_account));\n\n        roles[_account].DeliveryHub = true;\n    }\n\n    function hasVaccinationCenterRole(address _account)\n        public\n        view\n        returns (bool)\n    {\n        return roles[_account].VaccinationCenter;\n    }\n\n    function addVaccinationCenterRole(address _account) public {\n        require(msg.sender == owner);\n        require(!hasVaccinationCenterRole(_account));\n        roles[_account].VaccinationCenter = true;\n    }\n\n    modifier verifyAddress(address add) {\n        require(msg.sender == add);\n        _;\n    }\n\n    modifier manufactured(uint256 _uid) {\n        require(products[_uid].productState == Structure.State.Manufactured);\n        _;\n    }\n\n    modifier shippedByManufacturer(uint256 _uid) {\n        require(\n            products[_uid].productState == Structure.State.ShippedByManufacturer\n        );\n        _;\n    }\n\n    modifier receivedByDistributor(uint256 _uid) {\n        require(\n            products[_uid].productState == Structure.State.ReceivedByDistributor\n        );\n        _;\n    }\n\n    modifier purchasedByVaccinationCenter(uint256 _uid) {\n        require(\n            products[_uid].productState == Structure.State.PurchasedByVaccinationCenter\n        );\n        _;\n    }\n\n    modifier shippedByDistributor(uint256 _uid) {\n        require(\n            products[_uid].productState == Structure.State.ShippedByDistributor\n        );\n        _;\n    }\n\n    modifier receivedByDeliveryHub(uint256 _uid) {\n        require(\n            products[_uid].productState == Structure.State.ReceivedByDeliveryHub\n        );\n        _;\n    }\n\n    modifier shippedByDeliveryHub(uint256 _uid) {\n        require(\n            products[_uid].productState == Structure.State.ShippedByDeliveryHub\n        );\n        _;\n    }\n\n    modifier receivedByVaccinationCenter(uint256 _uid) {\n        require(\n            products[_uid].productState == Structure.State.ReceivedByVaccinationCenter\n        );\n        _;\n    }\n\n    // STEP 1 : Manufacture a product.\n    function manufactureProduct(\n        string memory manufacturerLongitude,\n        string memory manufacturerLatitude,\n        string memory productName,\n        uint256 productPrice,\n        string memory productCategory\n    ) public {\n        require(hasManufacturerRole(msg.sender));\n        Structure.Product memory product;\n        product.owner=msg.sender;\n        product.productdet.productid = uid;\n        product.productdet.productName = productName;\n        product.productdet.productPrice = productPrice;\n        product.productdet.productCategory = productCategory;\n        product.manufacturer.manufacturer = msg.sender;\n        product.manufacturer.manufacturerLongitude = manufacturerLongitude;\n        product.manufacturer.manufacturerLatitude = manufacturerLatitude;\n        product.productState = Structure.State.Manufactured;\n\n        products[uid] = product;\n\n        productHistory[uid].history.push(product);\n\n        emit Manufactured(uid);\n        uid = uid + 1;\n    }\n\n   // STEP 2 : Purchase of manufactured product by Distributor.\n    function purchaseByDistributor(uint256 _uid) public manufactured(_uid) {\n        require(hasDistributorRole((msg.sender)));\n        products[_uid].distributor.distributor = msg.sender;\n        products[_uid].productState = Structure.State.PurchasedByDistributor;\n        productHistory[_uid].history.push(products[_uid]);\n\n        emit PurchasedByDistributor(_uid);\n    }\n\n    // STEP 3 : Shipping of purchased product to Distributor.\n    function shipToDistributor(uint256 _uid)\n        public\n        verifyAddress(products[_uid].owner)\n    {\n        require(hasManufacturerRole(msg.sender));\n        products[_uid].productState = Structure.State.ShippedByManufacturer;\n        productHistory[_uid].history.push(products[_uid]);\n\n        emit ShippedByManufacturer(_uid);\n    }\n\n    // STEP 4 : Receive the purchased product shipped by Manufacturer.\n    function receiveByDistributor(\n        uint256 _uid,\n        string memory distributorLongitude,\n        string memory distributorLatitude\n    )\n        public\n        shippedByManufacturer(_uid)\n        verifyAddress(products[_uid].distributor.distributor)\n    {\n        require(hasDistributorRole(msg.sender));\n        products[_uid].owner = msg.sender;\n        products[_uid].distributor.distributorLongitude = distributorLongitude;\n        products[_uid].distributor.distributorLatitude = distributorLatitude;\n        products[_uid].productState = Structure.State.ReceivedByDistributor;\n        productHistory[_uid].history.push(products[_uid]);\n\n        emit ReceivedByDistributor(_uid);\n    }\n\n    // STEP 5 : Purchase of a product at Distributor by VaccinationCenter.\n    function purchaseByVaccinationCenter(uint256 _uid)\n        public\n        receivedByDistributor(_uid)\n    {\n        require(hasVaccinationCenterRole(msg.sender));\n        products[_uid].vaccinationcenter.vaccinationcenter = msg.sender;\n        products[_uid].productState = Structure.State.PurchasedByVaccinationCenter;\n        productHistory[_uid].history.push(products[_uid]);\n\n        emit PurchasedByVaccinationCenter(_uid);\n    }\n\n    // STEP 6 : Shipping of product by Distributor purchased by VaccinationCenter.\n    function shipByDistributor(uint256 _uid)\n        public\n        verifyAddress(products[_uid].owner)\n        verifyAddress(products[_uid].distributor.distributor)\n    {\n        require(hasDistributorRole(msg.sender));\n        products[_uid].productState = Structure.State.ShippedByDistributor;\n        productHistory[_uid].history.push(products[_uid]);\n\n        emit ShippedByDistributor(_uid);\n    }\n\n    // STEP 7 : Receiveing of product by delivery hub purchased by VaccinationCenter.\n    function receiveByDeliveryHub(\n        uint256 _uid,\n        string memory deliveryHubLongitude,\n        string memory deliveryHubLatitude\n    ) public shippedByDistributor(_uid) {\n        require(hasDeliveryHubRole(msg.sender));\n        products[_uid].owner = msg.sender;\n        products[_uid].deliveryhub.deliveryHub = msg.sender;\n        products[_uid].deliveryhub.deliveryHubLongitude = deliveryHubLongitude;\n        products[_uid].deliveryhub.deliveryHubLatitude = deliveryHubLatitude;\n        products[_uid].productState = Structure.State.ReceivedByDeliveryHub;\n        productHistory[_uid].history.push(products[_uid]);\n\n        emit ReceivedByDeliveryHub(_uid);\n    }\n\n    // STEP 8 : Shipping of product by delivery hub purchased by VaccinationCenter.\n    function shipByDeliveryHub(uint256 _uid)\n        public\n        receivedByDeliveryHub(_uid)\n        verifyAddress(products[_uid].owner)\n    {\n        require(hasDeliveryHubRole(msg.sender));\n        products[_uid].productState = Structure.State.ShippedByDeliveryHub;\n        productHistory[_uid].history.push(products[_uid]);\n\n        emit ShippedByDeliveryHub(_uid);\n    }\n\n    // STEP 9 : Receive the purchased product by VaccinationCenter.\n    function receiveByCustomer(\n        uint256 _uid,\n        string memory vaccinationcenterLongitude,\n        string memory vaccinationcenterLatitude\n        )\n        public\n        shippedByDeliveryHub(_uid)\n        verifyAddress(products[_uid].vaccinationcenter.vaccinationcenter)\n    {\n        require(hasVaccinationCenterRole(msg.sender));\n        products[_uid].owner = msg.sender;\n        products[_uid].vaccinationcenter.vaccinationcenterLongitude = vaccinationcenterLongitude;\n        products[_uid].vaccinationcenter.vaccinationcenterLatitude = vaccinationcenterLatitude;\n        products[_uid].productState = Structure.State.ReceivedByVaccinationCenter;\n        productHistory[_uid].history.push(products[_uid]);\n\n        emit ReceivedByVaccinationCenter(_uid);\n    }\n\n    function fetchProductCount() public view returns (uint256) {\n        return uid;\n    }\n\n    function fetchProductState(uint256 _uid) public view returns (Structure.State) {\n        return products[_uid].productState;\n    }\n\n    function fetchProduct(uint256 _uid) public view returns (uint256,\n    string memory,\n    uint256,\n    string memory,\n    address,\n    string memory,\n    string memory,\n    address\n    ) {\n        Structure.Product storage product = products[_uid];\n        return ( product.productdet.productid, product.productdet.productName, product.productdet.productPrice, product.productdet.productCategory, product.manufacturer.manufacturer,\n        product.manufacturer.manufacturerLongitude, product.manufacturer.manufacturerLatitude, product.distributor.distributor);\n    }\n\n}\n",
  "sourcePath": "/home/piyush/Desktop/major-project/vaccine-distributtion-system/contracts/SupplyChain.sol",
  "compiler": {
    "name": "solc",
    "version": "0.5.16+commit.9c3226ce.Emscripten.clang"
  },
  "schemaVersion": "3.4.3",
  "updatedAt": "2022-02-26T04:44:22.896Z",
  "networkType": "ethereum",
  "devdoc": {
    "methods": {}
  },
  "userdoc": {
    "methods": {}
  }
}