{
  "contractName": "SupplyChain",
  "abi": [
    {
      "inputs": [],
      "payable": false,
      "stateMutability": "nonpayable",
      "type": "constructor"
    },
    {
      "anonymous": false,
      "inputs": [
        {
          "indexed": false,
          "internalType": "uint256",
          "name": "uid",
          "type": "uint256"
        }
      ],
      "name": "Manufactured",
      "type": "event"
    },
    {
      "anonymous": false,
      "inputs": [
        {
          "indexed": false,
          "internalType": "uint256",
          "name": "uid",
          "type": "uint256"
        }
      ],
      "name": "PurchasedByDistributor",
      "type": "event"
    },
    {
      "anonymous": false,
      "inputs": [
        {
          "indexed": false,
          "internalType": "uint256",
          "name": "uid",
          "type": "uint256"
        }
      ],
      "name": "PurchasedByVaccinationCenter",
      "type": "event"
    },
    {
      "anonymous": false,
      "inputs": [
        {
          "indexed": false,
          "internalType": "uint256",
          "name": "uid",
          "type": "uint256"
        }
      ],
      "name": "ReceivedByDeliveryHub",
      "type": "event"
    },
    {
      "anonymous": false,
      "inputs": [
        {
          "indexed": false,
          "internalType": "uint256",
          "name": "uid",
          "type": "uint256"
        }
      ],
      "name": "ReceivedByDistributor",
      "type": "event"
    },
    {
      "anonymous": false,
      "inputs": [
        {
          "indexed": false,
          "internalType": "uint256",
          "name": "uid",
          "type": "uint256"
        }
      ],
      "name": "ReceivedByVaccinationCenter",
      "type": "event"
    },
    {
      "anonymous": false,
      "inputs": [
        {
          "indexed": false,
          "internalType": "uint256",
          "name": "uid",
          "type": "uint256"
        }
      ],
      "name": "ShippedByDeliveryHub",
      "type": "event"
    },
    {
      "anonymous": false,
      "inputs": [
        {
          "indexed": false,
          "internalType": "uint256",
          "name": "uid",
          "type": "uint256"
        }
      ],
      "name": "ShippedByDistributor",
      "type": "event"
    },
    {
      "anonymous": false,
      "inputs": [
        {
          "indexed": false,
          "internalType": "uint256",
          "name": "uid",
          "type": "uint256"
        }
      ],
      "name": "ShippedByManufacturer",
      "type": "event"
    },
    {
      "constant": true,
      "inputs": [],
      "name": "uid",
      "outputs": [
        {
          "internalType": "uint256",
          "name": "",
          "type": "uint256"
        }
      ],
      "payable": false,
      "stateMutability": "view",
      "type": "function"
    },
    {
      "constant": true,
      "inputs": [
        {
          "internalType": "address",
          "name": "_account",
          "type": "address"
        }
      ],
      "name": "hasManufacturerRole",
      "outputs": [
        {
          "internalType": "bool",
          "name": "",
          "type": "bool"
        }
      ],
      "payable": false,
      "stateMutability": "view",
      "type": "function"
    },
    {
      "constant": false,
      "inputs": [
        {
          "internalType": "address",
          "name": "_account",
          "type": "address"
        }
      ],
      "name": "addManufacturerRole",
      "outputs": [],
      "payable": false,
      "stateMutability": "nonpayable",
      "type": "function"
    },
    {
      "constant": true,
      "inputs": [
        {
          "internalType": "address",
          "name": "_account",
          "type": "address"
        }
      ],
      "name": "hasDistributorRole",
      "outputs": [
        {
          "internalType": "bool",
          "name": "",
          "type": "bool"
        }
      ],
      "payable": false,
      "stateMutability": "view",
      "type": "function"
    },
    {
      "constant": false,
      "inputs": [
        {
          "internalType": "address",
          "name": "_account",
          "type": "address"
        }
      ],
      "name": "addDistributorRole",
      "outputs": [],
      "payable": false,
      "stateMutability": "nonpayable",
      "type": "function"
    },
    {
      "constant": true,
      "inputs": [
        {
          "internalType": "address",
          "name": "_account",
          "type": "address"
        }
      ],
      "name": "hasDeliveryHubRole",
      "outputs": [
        {
          "internalType": "bool",
          "name": "",
          "type": "bool"
        }
      ],
      "payable": false,
      "stateMutability": "view",
      "type": "function"
    },
    {
      "constant": false,
      "inputs": [
        {
          "internalType": "address",
          "name": "_account",
          "type": "address"
        }
      ],
      "name": "addDeliveryHubRole",
      "outputs": [],
      "payable": false,
      "stateMutability": "nonpayable",
      "type": "function"
    },
    {
      "constant": true,
      "inputs": [
        {
          "internalType": "address",
          "name": "_account",
          "type": "address"
        }
      ],
      "name": "hasVaccinationCenterRole",
      "outputs": [
        {
          "internalType": "bool",
          "name": "",
          "type": "bool"
        }
      ],
      "payable": false,
      "stateMutability": "view",
      "type": "function"
    },
    {
      "constant": false,
      "inputs": [
        {
          "internalType": "address",
          "name": "_account",
          "type": "address"
        }
      ],
      "name": "addVaccinationCenterRole",
      "outputs": [],
      "payable": false,
      "stateMutability": "nonpayable",
      "type": "function"
    },
    {
      "constant": false,
      "inputs": [
        {
          "internalType": "string",
          "name": "manufacturerLongitude",
          "type": "string"
        },
        {
          "internalType": "string",
          "name": "manufacturerLatitude",
          "type": "string"
        },
        {
          "internalType": "string",
          "name": "productName",
          "type": "string"
        },
        {
          "internalType": "uint256",
          "name": "productPrice",
          "type": "uint256"
        },
        {
          "internalType": "string",
          "name": "productCategory",
          "type": "string"
        }
      ],
      "name": "manufactureProduct",
      "outputs": [],
      "payable": false,
      "stateMutability": "nonpayable",
      "type": "function"
    },
    {
      "constant": false,
      "inputs": [
        {
          "internalType": "uint256",
          "name": "_uid",
          "type": "uint256"
        }
      ],
      "name": "purchaseByDistributor",
      "outputs": [],
      "payable": false,
      "stateMutability": "nonpayable",
      "type": "function"
    },
    {
      "constant": false,
      "inputs": [
        {
          "internalType": "uint256",
          "name": "_uid",
          "type": "uint256"
        }
      ],
      "name": "shipToDistributor",
      "outputs": [],
      "payable": false,
      "stateMutability": "nonpayable",
      "type": "function"
    },
    {
      "constant": false,
      "inputs": [
        {
          "internalType": "uint256",
          "name": "_uid",
          "type": "uint256"
        },
        {
          "internalType": "string",
          "name": "distributorLongitude",
          "type": "string"
        },
        {
          "internalType": "string",
          "name": "distributorLatitude",
          "type": "string"
        }
      ],
      "name": "receiveByDistributor",
      "outputs": [],
      "payable": false,
      "stateMutability": "nonpayable",
      "type": "function"
    },
    {
      "constant": false,
      "inputs": [
        {
          "internalType": "uint256",
          "name": "_uid",
          "type": "uint256"
        }
      ],
      "name": "purchaseByVaccinationCenter",
      "outputs": [],
      "payable": false,
      "stateMutability": "nonpayable",
      "type": "function"
    },
    {
      "constant": false,
      "inputs": [
        {
          "internalType": "uint256",
          "name": "_uid",
          "type": "uint256"
        }
      ],
      "name": "shipByDistributor",
      "outputs": [],
      "payable": false,
      "stateMutability": "nonpayable",
      "type": "function"
    },
    {
      "constant": false,
      "inputs": [
        {
          "internalType": "uint256",
          "name": "_uid",
          "type": "uint256"
        },
        {
          "internalType": "string",
          "name": "deliveryHubLongitude",
          "type": "string"
        },
        {
          "internalType": "string",
          "name": "deliveryHubLatitude",
          "type": "string"
        }
      ],
      "name": "receiveByDeliveryHub",
      "outputs": [],
      "payable": false,
      "stateMutability": "nonpayable",
      "type": "function"
    },
    {
      "constant": false,
      "inputs": [
        {
          "internalType": "uint256",
          "name": "_uid",
          "type": "uint256"
        }
      ],
      "name": "shipByDeliveryHub",
      "outputs": [],
      "payable": false,
      "stateMutability": "nonpayable",
      "type": "function"
    },
    {
      "constant": false,
      "inputs": [
        {
          "internalType": "uint256",
          "name": "_uid",
          "type": "uint256"
        },
        {
          "internalType": "string",
          "name": "vaccinationcenterLongitude",
          "type": "string"
        },
        {
          "internalType": "string",
          "name": "vaccinationcenterLatitude",
          "type": "string"
        }
      ],
      "name": "receiveByCustomer",
      "outputs": [],
      "payable": false,
      "stateMutability": "nonpayable",
      "type": "function"
    },
    {
      "constant": true,
      "inputs": [
        {
          "internalType": "uint256",
          "name": "_uid",
          "type": "uint256"
        }
      ],
      "name": "fetchProduct",
      "outputs": [
        {
          "internalType": "uint256",
          "name": "",
          "type": "uint256"
        },
        {
          "internalType": "string",
          "name": "",
          "type": "string"
        },
        {
          "internalType": "uint256",
          "name": "",
          "type": "uint256"
        },
        {
          "internalType": "string",
          "name": "",
          "type": "string"
        },
        {
          "internalType": "address",
          "name": "",
          "type": "address"
        },
        {
          "internalType": "string",
          "name": "",
          "type": "string"
        },
        {
          "internalType": "string",
          "name": "",
          "type": "string"
        },
        {
          "internalType": "address",
          "name": "",
          "type": "address"
        }
      ],
      "payable": false,
      "stateMutability": "view",
      "type": "function"
    }
  ],
  "bytecode": "0x608060405234801561001057600080fd5b5033600160006101000a81548173ffffffffffffffffffffffffffffffffffffffff021916908373ffffffffffffffffffffffffffffffffffffffff1602179055506001600081905550614f34806100696000396000f3fe608060405234801561001057600080fd5b50600436106101215760003560e01c80638eee90ea116100ad578063cf86dee711610071578063cf86dee714610c8d578063d44bebcc14610cbb578063e35d76ce14610d17578063f4121b6714610d45578063f514ce3614610d8957610121565b80638eee90ea1461080757806390d75b3714610963578063a8a7acad14610991578063ad12770d146109d5578063c56142b514610a0357610121565b80636000ada1116100f45780636000ada1146106995780636971d383146106f55780636cf07e24146107515780637c7507c41461077f5780638290f859146107c357610121565b806303ea0b5a146101265780630cb28a53146101825780634bbd4e67146103e1578063532b26a11461053d575b600080fd5b6101686004803603602081101561013c57600080fd5b81019080803573ffffffffffffffffffffffffffffffffffffffff169060200190929190505050610da7565b604051808215151515815260200191505060405180910390f35b6101ae6004803603602081101561019857600080fd5b8101908080359060200190929190505050610e00565b6040518089815260200180602001888152602001806020018773ffffffffffffffffffffffffffffffffffffffff1673ffffffffffffffffffffffffffffffffffffffff16815260200180602001806020018673ffffffffffffffffffffffffffffffffffffffff1673ffffffffffffffffffffffffffffffffffffffff16815260200185810385528c818151815260200191508051906020019080838360005b8381101561026a57808201518184015260208101905061024f565b50505050905090810190601f1680156102975780820380516001836020036101000a031916815260200191505b5085810384528a818151815260200191508051906020019080838360005b838110156102d05780820151818401526020810190506102b5565b50505050905090810190601f1680156102fd5780820380516001836020036101000a031916815260200191505b50858103835288818151815260200191508051906020019080838360005b8381101561033657808201518184015260208101905061031b565b50505050905090810190601f1680156103635780820380516001836020036101000a031916815260200191505b50858103825287818151815260200191508051906020019080838360005b8381101561039c578082015181840152602081019050610381565b50505050905090810190601f1680156103c95780820380516001836020036101000a031916815260200191505b509c5050505050505050505050505060405180910390f35b61053b600480360360608110156103f757600080fd5b81019080803590602001909291908035906020019064010000000081111561041e57600080fd5b82018360208201111561043057600080fd5b8035906020019184600183028401116401000000008311171561045257600080fd5b91908080601f016020809104026020016040519081016040528093929190818152602001838380828437600081840152601f19601f820116905080830192505050505050509192919290803590602001906401000000008111156104b557600080fd5b8201836020820111156104c757600080fd5b803590602001918460018302840111640100000000831117156104e957600080fd5b91908080601f016020809104026020016040519081016040528093929190818152602001838380828437600081840152601f19601f82011690508083019250505050505050919291929050505061112d565b005b6106976004803603606081101561055357600080fd5b81019080803590602001909291908035906020019064010000000081111561057a57600080fd5b82018360208201111561058c57600080fd5b803590602001918460018302840111640100000000831117156105ae57600080fd5b91908080601f016020809104026020016040519081016040528093929190818152602001838380828437600081840152601f19601f8201169050808301925050505050505091929192908035906020019064010000000081111561061157600080fd5b82018360208201111561062357600080fd5b8035906020019184600183028401116401000000008311171561064557600080fd5b91908080601f016020809104026020016040519081016040528093929190818152602001838380828437600081840152601f19601f820116905080830192505050505050509192919290505050611785565b005b6106db600480360360208110156106af57600080fd5b81019080803573ffffffffffffffffffffffffffffffffffffffff169060200190929190505050611ddc565b604051808215151515815260200191505060405180910390f35b6107376004803603602081101561070b57600080fd5b81019080803573ffffffffffffffffffffffffffffffffffffffff169060200190929190505050611e35565b604051808215151515815260200191505060405180910390f35b61077d6004803603602081101561076757600080fd5b8101908080359060200190929190505050611e8e565b005b6107c16004803603602081101561079557600080fd5b81019080803573ffffffffffffffffffffffffffffffffffffffff169060200190929190505050612430565b005b610805600480360360208110156107d957600080fd5b81019080803573ffffffffffffffffffffffffffffffffffffffff1690602001909291905050506124fb565b005b6109616004803603606081101561081d57600080fd5b81019080803590602001909291908035906020019064010000000081111561084457600080fd5b82018360208201111561085657600080fd5b8035906020019184600183028401116401000000008311171561087857600080fd5b91908080601f016020809104026020016040519081016040528093929190818152602001838380828437600081840152601f19601f820116905080830192505050505050509192919290803590602001906401000000008111156108db57600080fd5b8201836020820111156108ed57600080fd5b8035906020019184600183028401116401000000008311171561090f57600080fd5b91908080601f016020809104026020016040519081016040528093929190818152602001838380828437600081840152601f19601f8201169050808301925050505050505091929192905050506125c6565b005b61098f6004803603602081101561097957600080fd5b8101908080359060200190929190505050612c03565b005b6109d3600480360360208110156109a757600080fd5b81019080803573ffffffffffffffffffffffffffffffffffffffff16906020019092919050505061318d565b005b610a01600480360360208110156109eb57600080fd5b8101908080359060200190929190505050613258565b005b610c8b600480360360a0811015610a1957600080fd5b8101908080359060200190640100000000811115610a3657600080fd5b820183602082011115610a4857600080fd5b80359060200191846001830284011164010000000083111715610a6a57600080fd5b91908080601f016020809104026020016040519081016040528093929190818152602001838380828437600081840152601f19601f82011690508083019250505050505050919291929080359060200190640100000000811115610acd57600080fd5b820183602082011115610adf57600080fd5b80359060200191846001830284011164010000000083111715610b0157600080fd5b91908080601f016020809104026020016040519081016040528093929190818152602001838380828437600081840152601f19601f82011690508083019250505050505050919291929080359060200190640100000000811115610b6457600080fd5b820183602082011115610b7657600080fd5b80359060200191846001830284011164010000000083111715610b9857600080fd5b91908080601f016020809104026020016040519081016040528093929190818152602001838380828437600081840152601f19601f8201169050808301925050505050505091929192908035906020019092919080359060200190640100000000811115610c0557600080fd5b820183602082011115610c1757600080fd5b80359060200191846001830284011164010000000083111715610c3957600080fd5b91908080601f016020809104026020016040519081016040528093929190818152602001838380828437600081840152601f19601f8201169050808301925050505050505091929192905050506137e2565b005b610cb960048036036020811015610ca357600080fd5b8101908080359060200190929190505050613f82565b005b610cfd60048036036020811015610cd157600080fd5b81019080803573ffffffffffffffffffffffffffffffffffffffff16906020019092919050505061454f565b604051808215151515815260200191505060405180910390f35b610d4360048036036020811015610d2d57600080fd5b81019080803590602001909291905050506145a8565b005b610d8760048036036020811015610d5b57600080fd5b81019080803573ffffffffffffffffffffffffffffffffffffffff169060200190929190505050614b02565b005b610d91614bcd565b6040518082815260200191505060405180910390f35b6000600260008373ffffffffffffffffffffffffffffffffffffffff1673ffffffffffffffffffffffffffffffffffffffff16815260200190815260200160002060000160019054906101000a900460ff169050919050565b60006060600060606000606080600080600360008b815260200190815260200160002090508060010160010154816001016000018260010160020154836001016003018460060160000160009054906101000a900473ffffffffffffffffffffffffffffffffffffffff1685600601600101866006016002018760090160000160009054906101000a900473ffffffffffffffffffffffffffffffffffffffff16868054600181600116156101000203166002900480601f016020809104026020016040519081016040528092919081815260200182805460018160011615610100020316600290048015610f365780601f10610f0b57610100808354040283529160200191610f36565b820191906000526020600020905b815481529060010190602001808311610f1957829003601f168201915b50505050509650848054600181600116156101000203166002900480601f016020809104026020016040519081016040528092919081815260200182805460018160011615610100020316600290048015610fd25780601f10610fa757610100808354040283529160200191610fd2565b820191906000526020600020905b815481529060010190602001808311610fb557829003601f168201915b50505050509450828054600181600116156101000203166002900480601f01602080910402602001604051908101604052809291908181526020018280546001816001161561010002031660029004801561106e5780601f106110435761010080835404028352916020019161106e565b820191906000526020600020905b81548152906001019060200180831161105157829003601f168201915b50505050509250818054600181600116156101000203166002900480601f01602080910402602001604051908101604052809291908181526020018280546001816001161561010002031660029004801561110a5780601f106110df5761010080835404028352916020019161110a565b820191906000526020600020905b8154815290600101906020018083116110ed57829003601f168201915b505050505091509850985098509850985098509850985050919395975091939597565b826007600881111561113b57fe5b6003600083815260200190815260200160002060050160009054906101000a900460ff16600881111561116a57fe5b1461117457600080fd5b60036000858152602001908152602001600020600f0160000160009054906101000a900473ffffffffffffffffffffffffffffffffffffffff168073ffffffffffffffffffffffffffffffffffffffff163373ffffffffffffffffffffffffffffffffffffffff16146111e657600080fd5b6111ef33611e35565b6111f857600080fd5b336003600087815260200190815260200160002060000160006101000a81548173ffffffffffffffffffffffffffffffffffffffff021916908373ffffffffffffffffffffffffffffffffffffffff1602179055508360036000878152602001908152602001600020600f01600101908051906020019061127a929190614bd3565b508260036000878152602001908152602001600020600f0160020190805190602001906112a8929190614bd3565b5060086003600087815260200190815260200160002060050160006101000a81548160ff021916908360088111156112dc57fe5b02179055506004600086815260200190815260200160002060000160036000878152602001908152602001600020908060018154018082558091505090600182039060005260206000209060120201600090919290919091506000820160009054906101000a900473ffffffffffffffffffffffffffffffffffffffff168160000160006101000a81548173ffffffffffffffffffffffffffffffffffffffff021916908373ffffffffffffffffffffffffffffffffffffffff1602179055506001820181600101600082018160000190805460018160011615610100020316600290046113cb929190614c53565b50600182015481600101556002820154816002015560038201816003019080546001816001161561010002031660029004611407929190614c53565b5050506005820160009054906101000a900460ff168160050160006101000a81548160ff0219169083600881111561143b57fe5b021790555060068201816006016000820160009054906101000a900473ffffffffffffffffffffffffffffffffffffffff168160000160006101000a81548173ffffffffffffffffffffffffffffffffffffffff021916908373ffffffffffffffffffffffffffffffffffffffff160217905550600182018160010190805460018160011615610100020316600290046114d6929190614c53565b50600282018160020190805460018160011615610100020316600290046114fe929190614c53565b50505060098201816009016000820160009054906101000a900473ffffffffffffffffffffffffffffffffffffffff168160000160006101000a81548173ffffffffffffffffffffffffffffffffffffffff021916908373ffffffffffffffffffffffffffffffffffffffff16021790555060018201816001019080546001816001161561010002031660029004611597929190614c53565b50600282018160020190805460018160011615610100020316600290046115bf929190614c53565b505050600c820181600c016000820160009054906101000a900473ffffffffffffffffffffffffffffffffffffffff168160000160006101000a81548173ffffffffffffffffffffffffffffffffffffffff021916908373ffffffffffffffffffffffffffffffffffffffff16021790555060018201816001019080546001816001161561010002031660029004611658929190614c53565b5060028201816002019080546001816001161561010002031660029004611680929190614c53565b505050600f820181600f016000820160009054906101000a900473ffffffffffffffffffffffffffffffffffffffff168160000160006101000a81548173ffffffffffffffffffffffffffffffffffffffff021916908373ffffffffffffffffffffffffffffffffffffffff16021790555060018201816001019080546001816001161561010002031660029004611719929190614c53565b5060028201816002019080546001816001161561010002031660029004611741929190614c53565b5050505050507faeafd725bf462493136b40ed95631fe00d2c8ee209d1631e376845207386e147856040518082815260200191505060405180910390a15050505050565b826002600881111561179357fe5b6003600083815260200190815260200160002060050160009054906101000a900460ff1660088111156117c257fe5b146117cc57600080fd5b6003600085815260200190815260200160002060090160000160009054906101000a900473ffffffffffffffffffffffffffffffffffffffff168073ffffffffffffffffffffffffffffffffffffffff163373ffffffffffffffffffffffffffffffffffffffff161461183e57600080fd5b61184733610da7565b61185057600080fd5b336003600087815260200190815260200160002060000160006101000a81548173ffffffffffffffffffffffffffffffffffffffff021916908373ffffffffffffffffffffffffffffffffffffffff160217905550836003600087815260200190815260200160002060090160010190805190602001906118d2929190614bd3565b5082600360008781526020019081526020016000206009016002019080519060200190611900929190614bd3565b50600380600087815260200190815260200160002060050160006101000a81548160ff0219169083600881111561193357fe5b02179055506004600086815260200190815260200160002060000160036000878152602001908152602001600020908060018154018082558091505090600182039060005260206000209060120201600090919290919091506000820160009054906101000a900473ffffffffffffffffffffffffffffffffffffffff168160000160006101000a81548173ffffffffffffffffffffffffffffffffffffffff021916908373ffffffffffffffffffffffffffffffffffffffff160217905550600182018160010160008201816000019080546001816001161561010002031660029004611a22929190614c53565b50600182015481600101556002820154816002015560038201816003019080546001816001161561010002031660029004611a5e929190614c53565b5050506005820160009054906101000a900460ff168160050160006101000a81548160ff02191690836008811115611a9257fe5b021790555060068201816006016000820160009054906101000a900473ffffffffffffffffffffffffffffffffffffffff168160000160006101000a81548173ffffffffffffffffffffffffffffffffffffffff021916908373ffffffffffffffffffffffffffffffffffffffff16021790555060018201816001019080546001816001161561010002031660029004611b2d929190614c53565b5060028201816002019080546001816001161561010002031660029004611b55929190614c53565b50505060098201816009016000820160009054906101000a900473ffffffffffffffffffffffffffffffffffffffff168160000160006101000a81548173ffffffffffffffffffffffffffffffffffffffff021916908373ffffffffffffffffffffffffffffffffffffffff16021790555060018201816001019080546001816001161561010002031660029004611bee929190614c53565b5060028201816002019080546001816001161561010002031660029004611c16929190614c53565b505050600c820181600c016000820160009054906101000a900473ffffffffffffffffffffffffffffffffffffffff168160000160006101000a81548173ffffffffffffffffffffffffffffffffffffffff021916908373ffffffffffffffffffffffffffffffffffffffff16021790555060018201816001019080546001816001161561010002031660029004611caf929190614c53565b5060028201816002019080546001816001161561010002031660029004611cd7929190614c53565b505050600f820181600f016000820160009054906101000a900473ffffffffffffffffffffffffffffffffffffffff168160000160006101000a81548173ffffffffffffffffffffffffffffffffffffffff021916908373ffffffffffffffffffffffffffffffffffffffff16021790555060018201816001019080546001816001161561010002031660029004611d70929190614c53565b5060028201816002019080546001816001161561010002031660029004611d98929190614c53565b5050505050507fc8ca2150e6e1849a10ef5aa4932060fa353bcacdffeb150c9e1890c6ab9403cc856040518082815260200191505060405180910390a15050505050565b6000600260008373ffffffffffffffffffffffffffffffffffffffff1673ffffffffffffffffffffffffffffffffffffffff16815260200190815260200160002060000160009054906101000a900460ff169050919050565b6000600260008373ffffffffffffffffffffffffffffffffffffffff1673ffffffffffffffffffffffffffffffffffffffff16815260200190815260200160002060000160039054906101000a900460ff169050919050565b8060066008811115611e9c57fe5b6003600083815260200190815260200160002060050160009054906101000a900460ff166008811115611ecb57fe5b14611ed557600080fd5b6003600083815260200190815260200160002060000160009054906101000a900473ffffffffffffffffffffffffffffffffffffffff168073ffffffffffffffffffffffffffffffffffffffff163373ffffffffffffffffffffffffffffffffffffffff1614611f4457600080fd5b611f4d3361454f565b611f5657600080fd5b60076003600085815260200190815260200160002060050160006101000a81548160ff02191690836008811115611f8957fe5b02179055506004600084815260200190815260200160002060000160036000858152602001908152602001600020908060018154018082558091505090600182039060005260206000209060120201600090919290919091506000820160009054906101000a900473ffffffffffffffffffffffffffffffffffffffff168160000160006101000a81548173ffffffffffffffffffffffffffffffffffffffff021916908373ffffffffffffffffffffffffffffffffffffffff160217905550600182018160010160008201816000019080546001816001161561010002031660029004612078929190614c53565b506001820154816001015560028201548160020155600382018160030190805460018160011615610100020316600290046120b4929190614c53565b5050506005820160009054906101000a900460ff168160050160006101000a81548160ff021916908360088111156120e857fe5b021790555060068201816006016000820160009054906101000a900473ffffffffffffffffffffffffffffffffffffffff168160000160006101000a81548173ffffffffffffffffffffffffffffffffffffffff021916908373ffffffffffffffffffffffffffffffffffffffff16021790555060018201816001019080546001816001161561010002031660029004612183929190614c53565b50600282018160020190805460018160011615610100020316600290046121ab929190614c53565b50505060098201816009016000820160009054906101000a900473ffffffffffffffffffffffffffffffffffffffff168160000160006101000a81548173ffffffffffffffffffffffffffffffffffffffff021916908373ffffffffffffffffffffffffffffffffffffffff16021790555060018201816001019080546001816001161561010002031660029004612244929190614c53565b506002820181600201908054600181600116156101000203166002900461226c929190614c53565b505050600c820181600c016000820160009054906101000a900473ffffffffffffffffffffffffffffffffffffffff168160000160006101000a81548173ffffffffffffffffffffffffffffffffffffffff021916908373ffffffffffffffffffffffffffffffffffffffff16021790555060018201816001019080546001816001161561010002031660029004612305929190614c53565b506002820181600201908054600181600116156101000203166002900461232d929190614c53565b505050600f820181600f016000820160009054906101000a900473ffffffffffffffffffffffffffffffffffffffff168160000160006101000a81548173ffffffffffffffffffffffffffffffffffffffff021916908373ffffffffffffffffffffffffffffffffffffffff160217905550600182018160010190805460018160011615610100020316600290046123c6929190614c53565b50600282018160020190805460018160011615610100020316600290046123ee929190614c53565b5050505050507f9a96442e96ac96ba57e48273f290bf3bb9c6b0b2c86843cc4bf2353119918fdf836040518082815260200191505060405180910390a1505050565b600160009054906101000a900473ffffffffffffffffffffffffffffffffffffffff1673ffffffffffffffffffffffffffffffffffffffff163373ffffffffffffffffffffffffffffffffffffffff161461248a57600080fd5b61249381611e35565b1561249d57600080fd5b6001600260008373ffffffffffffffffffffffffffffffffffffffff1673ffffffffffffffffffffffffffffffffffffffff16815260200190815260200160002060000160036101000a81548160ff02191690831515021790555050565b600160009054906101000a900473ffffffffffffffffffffffffffffffffffffffff1673ffffffffffffffffffffffffffffffffffffffff163373ffffffffffffffffffffffffffffffffffffffff161461255557600080fd5b61255e81611ddc565b1561256857600080fd5b6001600260008373ffffffffffffffffffffffffffffffffffffffff1673ffffffffffffffffffffffffffffffffffffffff16815260200190815260200160002060000160006101000a81548160ff02191690831515021790555050565b82600560088111156125d457fe5b6003600083815260200190815260200160002060050160009054906101000a900460ff16600881111561260357fe5b1461260d57600080fd5b6126163361454f565b61261f57600080fd5b336003600086815260200190815260200160002060000160006101000a81548173ffffffffffffffffffffffffffffffffffffffff021916908373ffffffffffffffffffffffffffffffffffffffff1602179055503360036000868152602001908152602001600020600c0160000160006101000a81548173ffffffffffffffffffffffffffffffffffffffff021916908373ffffffffffffffffffffffffffffffffffffffff1602179055508260036000868152602001908152602001600020600c0160010190805190602001906126f9929190614bd3565b508160036000868152602001908152602001600020600c016002019080519060200190612727929190614bd3565b5060066003600086815260200190815260200160002060050160006101000a81548160ff0219169083600881111561275b57fe5b02179055506004600085815260200190815260200160002060000160036000868152602001908152602001600020908060018154018082558091505090600182039060005260206000209060120201600090919290919091506000820160009054906101000a900473ffffffffffffffffffffffffffffffffffffffff168160000160006101000a81548173ffffffffffffffffffffffffffffffffffffffff021916908373ffffffffffffffffffffffffffffffffffffffff16021790555060018201816001016000820181600001908054600181600116156101000203166002900461284a929190614c53565b50600182015481600101556002820154816002015560038201816003019080546001816001161561010002031660029004612886929190614c53565b5050506005820160009054906101000a900460ff168160050160006101000a81548160ff021916908360088111156128ba57fe5b021790555060068201816006016000820160009054906101000a900473ffffffffffffffffffffffffffffffffffffffff168160000160006101000a81548173ffffffffffffffffffffffffffffffffffffffff021916908373ffffffffffffffffffffffffffffffffffffffff16021790555060018201816001019080546001816001161561010002031660029004612955929190614c53565b506002820181600201908054600181600116156101000203166002900461297d929190614c53565b50505060098201816009016000820160009054906101000a900473ffffffffffffffffffffffffffffffffffffffff168160000160006101000a81548173ffffffffffffffffffffffffffffffffffffffff021916908373ffffffffffffffffffffffffffffffffffffffff16021790555060018201816001019080546001816001161561010002031660029004612a16929190614c53565b5060028201816002019080546001816001161561010002031660029004612a3e929190614c53565b505050600c820181600c016000820160009054906101000a900473ffffffffffffffffffffffffffffffffffffffff168160000160006101000a81548173ffffffffffffffffffffffffffffffffffffffff021916908373ffffffffffffffffffffffffffffffffffffffff16021790555060018201816001019080546001816001161561010002031660029004612ad7929190614c53565b5060028201816002019080546001816001161561010002031660029004612aff929190614c53565b505050600f820181600f016000820160009054906101000a900473ffffffffffffffffffffffffffffffffffffffff168160000160006101000a81548173ffffffffffffffffffffffffffffffffffffffff021916908373ffffffffffffffffffffffffffffffffffffffff16021790555060018201816001019080546001816001161561010002031660029004612b98929190614c53565b5060028201816002019080546001816001161561010002031660029004612bc0929190614c53565b5050505050507fb6589947d486bf61c31a4e6d2e81d4d2c93e7832fdda27f2492009b4755c29ed846040518082815260200191505060405180910390a150505050565b8060006008811115612c1157fe5b6003600083815260200190815260200160002060050160009054906101000a900460ff166008811115612c4057fe5b14612c4a57600080fd5b612c5333610da7565b612c5c57600080fd5b336003600084815260200190815260200160002060090160000160006101000a81548173ffffffffffffffffffffffffffffffffffffffff021916908373ffffffffffffffffffffffffffffffffffffffff16021790555060016003600084815260200190815260200160002060050160006101000a81548160ff02191690836008811115612ce757fe5b02179055506004600083815260200190815260200160002060000160036000848152602001908152602001600020908060018154018082558091505090600182039060005260206000209060120201600090919290919091506000820160009054906101000a900473ffffffffffffffffffffffffffffffffffffffff168160000160006101000a81548173ffffffffffffffffffffffffffffffffffffffff021916908373ffffffffffffffffffffffffffffffffffffffff160217905550600182018160010160008201816000019080546001816001161561010002031660029004612dd6929190614c53565b50600182015481600101556002820154816002015560038201816003019080546001816001161561010002031660029004612e12929190614c53565b5050506005820160009054906101000a900460ff168160050160006101000a81548160ff02191690836008811115612e4657fe5b021790555060068201816006016000820160009054906101000a900473ffffffffffffffffffffffffffffffffffffffff168160000160006101000a81548173ffffffffffffffffffffffffffffffffffffffff021916908373ffffffffffffffffffffffffffffffffffffffff16021790555060018201816001019080546001816001161561010002031660029004612ee1929190614c53565b5060028201816002019080546001816001161561010002031660029004612f09929190614c53565b50505060098201816009016000820160009054906101000a900473ffffffffffffffffffffffffffffffffffffffff168160000160006101000a81548173ffffffffffffffffffffffffffffffffffffffff021916908373ffffffffffffffffffffffffffffffffffffffff16021790555060018201816001019080546001816001161561010002031660029004612fa2929190614c53565b5060028201816002019080546001816001161561010002031660029004612fca929190614c53565b505050600c820181600c016000820160009054906101000a900473ffffffffffffffffffffffffffffffffffffffff168160000160006101000a81548173ffffffffffffffffffffffffffffffffffffffff021916908373ffffffffffffffffffffffffffffffffffffffff16021790555060018201816001019080546001816001161561010002031660029004613063929190614c53565b506002820181600201908054600181600116156101000203166002900461308b929190614c53565b505050600f820181600f016000820160009054906101000a900473ffffffffffffffffffffffffffffffffffffffff168160000160006101000a81548173ffffffffffffffffffffffffffffffffffffffff021916908373ffffffffffffffffffffffffffffffffffffffff16021790555060018201816001019080546001816001161561010002031660029004613124929190614c53565b506002820181600201908054600181600116156101000203166002900461314c929190614c53565b5050505050507facd9402b9f9e8c15fa7c1819f8393ca56eb61316cc354fc6ac2150aed3ce7931826040518082815260200191505060405180910390a15050565b600160009054906101000a900473ffffffffffffffffffffffffffffffffffffffff1673ffffffffffffffffffffffffffffffffffffffff163373ffffffffffffffffffffffffffffffffffffffff16146131e757600080fd5b6131f081610da7565b156131fa57600080fd5b6001600260008373ffffffffffffffffffffffffffffffffffffffff1673ffffffffffffffffffffffffffffffffffffffff16815260200190815260200160002060000160016101000a81548160ff02191690831515021790555050565b806003600881111561326657fe5b6003600083815260200190815260200160002060050160009054906101000a900460ff16600881111561329557fe5b1461329f57600080fd5b6132a833611e35565b6132b157600080fd5b3360036000848152602001908152602001600020600f0160000160006101000a81548173ffffffffffffffffffffffffffffffffffffffff021916908373ffffffffffffffffffffffffffffffffffffffff16021790555060046003600084815260200190815260200160002060050160006101000a81548160ff0219169083600881111561333c57fe5b02179055506004600083815260200190815260200160002060000160036000848152602001908152602001600020908060018154018082558091505090600182039060005260206000209060120201600090919290919091506000820160009054906101000a900473ffffffffffffffffffffffffffffffffffffffff168160000160006101000a81548173ffffffffffffffffffffffffffffffffffffffff021916908373ffffffffffffffffffffffffffffffffffffffff16021790555060018201816001016000820181600001908054600181600116156101000203166002900461342b929190614c53565b50600182015481600101556002820154816002015560038201816003019080546001816001161561010002031660029004613467929190614c53565b5050506005820160009054906101000a900460ff168160050160006101000a81548160ff0219169083600881111561349b57fe5b021790555060068201816006016000820160009054906101000a900473ffffffffffffffffffffffffffffffffffffffff168160000160006101000a81548173ffffffffffffffffffffffffffffffffffffffff021916908373ffffffffffffffffffffffffffffffffffffffff16021790555060018201816001019080546001816001161561010002031660029004613536929190614c53565b506002820181600201908054600181600116156101000203166002900461355e929190614c53565b50505060098201816009016000820160009054906101000a900473ffffffffffffffffffffffffffffffffffffffff168160000160006101000a81548173ffffffffffffffffffffffffffffffffffffffff021916908373ffffffffffffffffffffffffffffffffffffffff160217905550600182018160010190805460018160011615610100020316600290046135f7929190614c53565b506002820181600201908054600181600116156101000203166002900461361f929190614c53565b505050600c820181600c016000820160009054906101000a900473ffffffffffffffffffffffffffffffffffffffff168160000160006101000a81548173ffffffffffffffffffffffffffffffffffffffff021916908373ffffffffffffffffffffffffffffffffffffffff160217905550600182018160010190805460018160011615610100020316600290046136b8929190614c53565b50600282018160020190805460018160011615610100020316600290046136e0929190614c53565b505050600f820181600f016000820160009054906101000a900473ffffffffffffffffffffffffffffffffffffffff168160000160006101000a81548173ffffffffffffffffffffffffffffffffffffffff021916908373ffffffffffffffffffffffffffffffffffffffff16021790555060018201816001019080546001816001161561010002031660029004613779929190614c53565b50600282018160020190805460018160011615610100020316600290046137a1929190614c53565b5050505050507fda1b5272c78a876b6ee948dcb311f9d42ebabc9dd56c7c7a29798aaea34f62f8826040518082815260200191505060405180910390a15050565b6137eb33611ddc565b6137f457600080fd5b6137fc614cda565b33816000019073ffffffffffffffffffffffffffffffffffffffff16908173ffffffffffffffffffffffffffffffffffffffff168152505060005481602001516020018181525050838160200151600001819052508281602001516040018181525050818160200151606001819052503381606001516000019073ffffffffffffffffffffffffffffffffffffffff16908173ffffffffffffffffffffffffffffffffffffffff168152505085816060015160200181905250848160600151604001819052506000816040019060088111156138d457fe5b908160088111156138e157fe5b8152505080600360008054815260200190815260200160002060008201518160000160006101000a81548173ffffffffffffffffffffffffffffffffffffffff021916908373ffffffffffffffffffffffffffffffffffffffff1602179055506020820151816001016000820151816000019080519060200190613966929190614d56565b5060208201518160010155604082015181600201556060820151816003019080519060200190613997929190614d56565b50505060408201518160050160006101000a81548160ff021916908360088111156139be57fe5b021790555060608201518160060160008201518160000160006101000a81548173ffffffffffffffffffffffffffffffffffffffff021916908373ffffffffffffffffffffffffffffffffffffffff1602179055506020820151816001019080519060200190613a2f929190614d56565b506040820151816002019080519060200190613a4c929190614d56565b50505060808201518160090160008201518160000160006101000a81548173ffffffffffffffffffffffffffffffffffffffff021916908373ffffffffffffffffffffffffffffffffffffffff1602179055506020820151816001019080519060200190613abb929190614d56565b506040820151816002019080519060200190613ad8929190614d56565b50505060a082015181600c0160008201518160000160006101000a81548173ffffffffffffffffffffffffffffffffffffffff021916908373ffffffffffffffffffffffffffffffffffffffff1602179055506020820151816001019080519060200190613b47929190614d56565b506040820151816002019080519060200190613b64929190614d56565b50505060c082015181600f0160008201518160000160006101000a81548173ffffffffffffffffffffffffffffffffffffffff021916908373ffffffffffffffffffffffffffffffffffffffff1602179055506020820151816001019080519060200190613bd3929190614d56565b506040820151816002019080519060200190613bf0929190614d56565b5050509050506004600080548152602001908152602001600020600001819080600181540180825580915050906001820390600052602060002090601202016000909192909190915060008201518160000160006101000a81548173ffffffffffffffffffffffffffffffffffffffff021916908373ffffffffffffffffffffffffffffffffffffffff1602179055506020820151816001016000820151816000019080519060200190613ca5929190614d56565b5060208201518160010155604082015181600201556060820151816003019080519060200190613cd6929190614d56565b50505060408201518160050160006101000a81548160ff02191690836008811115613cfd57fe5b021790555060608201518160060160008201518160000160006101000a81548173ffffffffffffffffffffffffffffffffffffffff021916908373ffffffffffffffffffffffffffffffffffffffff1602179055506020820151816001019080519060200190613d6e929190614d56565b506040820151816002019080519060200190613d8b929190614d56565b50505060808201518160090160008201518160000160006101000a81548173ffffffffffffffffffffffffffffffffffffffff021916908373ffffffffffffffffffffffffffffffffffffffff1602179055506020820151816001019080519060200190613dfa929190614d56565b506040820151816002019080519060200190613e17929190614d56565b50505060a082015181600c0160008201518160000160006101000a81548173ffffffffffffffffffffffffffffffffffffffff021916908373ffffffffffffffffffffffffffffffffffffffff1602179055506020820151816001019080519060200190613e86929190614d56565b506040820151816002019080519060200190613ea3929190614d56565b50505060c082015181600f0160008201518160000160006101000a81548173ffffffffffffffffffffffffffffffffffffffff021916908373ffffffffffffffffffffffffffffffffffffffff1602179055506020820151816001019080519060200190613f12929190614d56565b506040820151816002019080519060200190613f2f929190614d56565b5050505050507fd29d8a68ca7c8c74be5579719d445aabfe230ed6e6a83aff475a663500eb76096000546040518082815260200191505060405180910390a1600160005401600081905550505050505050565b6003600082815260200190815260200160002060000160009054906101000a900473ffffffffffffffffffffffffffffffffffffffff168073ffffffffffffffffffffffffffffffffffffffff163373ffffffffffffffffffffffffffffffffffffffff1614613ff157600080fd5b6003600083815260200190815260200160002060090160000160009054906101000a900473ffffffffffffffffffffffffffffffffffffffff168073ffffffffffffffffffffffffffffffffffffffff163373ffffffffffffffffffffffffffffffffffffffff161461406357600080fd5b61406c33610da7565b61407557600080fd5b60056003600085815260200190815260200160002060050160006101000a81548160ff021916908360088111156140a857fe5b02179055506004600084815260200190815260200160002060000160036000858152602001908152602001600020908060018154018082558091505090600182039060005260206000209060120201600090919290919091506000820160009054906101000a900473ffffffffffffffffffffffffffffffffffffffff168160000160006101000a81548173ffffffffffffffffffffffffffffffffffffffff021916908373ffffffffffffffffffffffffffffffffffffffff160217905550600182018160010160008201816000019080546001816001161561010002031660029004614197929190614c53565b506001820154816001015560028201548160020155600382018160030190805460018160011615610100020316600290046141d3929190614c53565b5050506005820160009054906101000a900460ff168160050160006101000a81548160ff0219169083600881111561420757fe5b021790555060068201816006016000820160009054906101000a900473ffffffffffffffffffffffffffffffffffffffff168160000160006101000a81548173ffffffffffffffffffffffffffffffffffffffff021916908373ffffffffffffffffffffffffffffffffffffffff160217905550600182018160010190805460018160011615610100020316600290046142a2929190614c53565b50600282018160020190805460018160011615610100020316600290046142ca929190614c53565b50505060098201816009016000820160009054906101000a900473ffffffffffffffffffffffffffffffffffffffff168160000160006101000a81548173ffffffffffffffffffffffffffffffffffffffff021916908373ffffffffffffffffffffffffffffffffffffffff16021790555060018201816001019080546001816001161561010002031660029004614363929190614c53565b506002820181600201908054600181600116156101000203166002900461438b929190614c53565b505050600c820181600c016000820160009054906101000a900473ffffffffffffffffffffffffffffffffffffffff168160000160006101000a81548173ffffffffffffffffffffffffffffffffffffffff021916908373ffffffffffffffffffffffffffffffffffffffff16021790555060018201816001019080546001816001161561010002031660029004614424929190614c53565b506002820181600201908054600181600116156101000203166002900461444c929190614c53565b505050600f820181600f016000820160009054906101000a900473ffffffffffffffffffffffffffffffffffffffff168160000160006101000a81548173ffffffffffffffffffffffffffffffffffffffff021916908373ffffffffffffffffffffffffffffffffffffffff160217905550600182018160010190805460018160011615610100020316600290046144e5929190614c53565b506002820181600201908054600181600116156101000203166002900461450d929190614c53565b5050505050507fc5c33776d405e5686e4386e1ef31a65cf6195e4f7ceb8808ab64d05b6ccbc2a6836040518082815260200191505060405180910390a1505050565b6000600260008373ffffffffffffffffffffffffffffffffffffffff1673ffffffffffffffffffffffffffffffffffffffff16815260200190815260200160002060000160029054906101000a900460ff169050919050565b6003600082815260200190815260200160002060000160009054906101000a900473ffffffffffffffffffffffffffffffffffffffff168073ffffffffffffffffffffffffffffffffffffffff163373ffffffffffffffffffffffffffffffffffffffff161461461757600080fd5b61462033611ddc565b61462957600080fd5b60026003600084815260200190815260200160002060050160006101000a81548160ff0219169083600881111561465c57fe5b02179055506004600083815260200190815260200160002060000160036000848152602001908152602001600020908060018154018082558091505090600182039060005260206000209060120201600090919290919091506000820160009054906101000a900473ffffffffffffffffffffffffffffffffffffffff168160000160006101000a81548173ffffffffffffffffffffffffffffffffffffffff021916908373ffffffffffffffffffffffffffffffffffffffff16021790555060018201816001016000820181600001908054600181600116156101000203166002900461474b929190614c53565b50600182015481600101556002820154816002015560038201816003019080546001816001161561010002031660029004614787929190614c53565b5050506005820160009054906101000a900460ff168160050160006101000a81548160ff021916908360088111156147bb57fe5b021790555060068201816006016000820160009054906101000a900473ffffffffffffffffffffffffffffffffffffffff168160000160006101000a81548173ffffffffffffffffffffffffffffffffffffffff021916908373ffffffffffffffffffffffffffffffffffffffff16021790555060018201816001019080546001816001161561010002031660029004614856929190614c53565b506002820181600201908054600181600116156101000203166002900461487e929190614c53565b50505060098201816009016000820160009054906101000a900473ffffffffffffffffffffffffffffffffffffffff168160000160006101000a81548173ffffffffffffffffffffffffffffffffffffffff021916908373ffffffffffffffffffffffffffffffffffffffff16021790555060018201816001019080546001816001161561010002031660029004614917929190614c53565b506002820181600201908054600181600116156101000203166002900461493f929190614c53565b505050600c820181600c016000820160009054906101000a900473ffffffffffffffffffffffffffffffffffffffff168160000160006101000a81548173ffffffffffffffffffffffffffffffffffffffff021916908373ffffffffffffffffffffffffffffffffffffffff160217905550600182018160010190805460018160011615610100020316600290046149d8929190614c53565b5060028201816002019080546001816001161561010002031660029004614a00929190614c53565b505050600f820181600f016000820160009054906101000a900473ffffffffffffffffffffffffffffffffffffffff168160000160006101000a81548173ffffffffffffffffffffffffffffffffffffffff021916908373ffffffffffffffffffffffffffffffffffffffff16021790555060018201816001019080546001816001161561010002031660029004614a99929190614c53565b5060028201816002019080546001816001161561010002031660029004614ac1929190614c53565b5050505050507f25727bef8a186dd95a062151451f2d651551b53124c18208d7653b1217ae31ba826040518082815260200191505060405180910390a15050565b600160009054906101000a900473ffffffffffffffffffffffffffffffffffffffff1673ffffffffffffffffffffffffffffffffffffffff163373ffffffffffffffffffffffffffffffffffffffff1614614b5c57600080fd5b614b658161454f565b15614b6f57600080fd5b6001600260008373ffffffffffffffffffffffffffffffffffffffff1673ffffffffffffffffffffffffffffffffffffffff16815260200190815260200160002060000160026101000a81548160ff02191690831515021790555050565b60005481565b828054600181600116156101000203166002900490600052602060002090601f016020900481019282601f10614c1457805160ff1916838001178555614c42565b82800160010185558215614c42579182015b82811115614c41578251825591602001919060010190614c26565b5b509050614c4f9190614dd6565b5090565b828054600181600116156101000203166002900490600052602060002090601f016020900481019282601f10614c8c5780548555614cc9565b82800160010185558215614cc957600052602060002091601f016020900482015b82811115614cc8578254825591600101919060010190614cad565b5b509050614cd69190614dd6565b5090565b6040518060e00160405280600073ffffffffffffffffffffffffffffffffffffffff168152602001614d0a614dfb565b815260200160006008811115614d1c57fe5b8152602001614d29614e23565b8152602001614d36614e5a565b8152602001614d43614e91565b8152602001614d50614ec8565b81525090565b828054600181600116156101000203166002900490600052602060002090601f016020900481019282601f10614d9757805160ff1916838001178555614dc5565b82800160010185558215614dc5579182015b82811115614dc4578251825591602001919060010190614da9565b5b509050614dd29190614dd6565b5090565b614df891905b80821115614df4576000816000905550600101614ddc565b5090565b90565b6040518060800160405280606081526020016000815260200160008152602001606081525090565b6040518060600160405280600073ffffffffffffffffffffffffffffffffffffffff16815260200160608152602001606081525090565b6040518060600160405280600073ffffffffffffffffffffffffffffffffffffffff16815260200160608152602001606081525090565b6040518060600160405280600073ffffffffffffffffffffffffffffffffffffffff16815260200160608152602001606081525090565b6040518060600160405280600073ffffffffffffffffffffffffffffffffffffffff1681526020016060815260200160608152509056fea265627a7a7231582001ea92ac3d5b8f1057ce849e60d78e7c690d3e3ee671f3de0a6521f01c60cc1f64736f6c63430005100032",
  "source": "// SPDX-License-Identifier: MIT\r\npragma solidity >=0.4.21 <8.10.0;\r\n\r\nimport \"./Structure.sol\";\r\n\r\ncontract SupplyChain {\r\n    uint256 public uid;\r\n    address owner;\r\n\r\n    mapping(address => Structure.Roles) roles;\r\n    mapping(uint256 => Structure.Product) products;\r\n    mapping(uint256 => Structure.ProductHistory) productHistory;\r\n\r\n    constructor() public {\r\n        owner = msg.sender;\r\n        uid = 1;\r\n    }\r\n\r\n    event Manufactured(uint256 uid);\r\n    event PurchasedByDistributor(uint256 uid);\r\n    event ShippedByManufacturer(uint256 uid);\r\n    event ReceivedByDistributor(uint256 uid);\r\n    event PurchasedByVaccinationCenter(uint256 uid);\r\n    event ShippedByDistributor(uint256 uid);\r\n    event ReceivedByDeliveryHub(uint256 uid);\r\n    event ShippedByDeliveryHub(uint256 uid);\r\n    event ReceivedByVaccinationCenter(uint256 uid);\r\n\r\n    function hasManufacturerRole(address _account) public view returns (bool) {\r\n        return roles[_account].Manufacturer;\r\n    }\r\n\r\n    function addManufacturerRole(address _account) public {\r\n        require(msg.sender == owner);\r\n        require(!hasManufacturerRole(_account));\r\n        roles[_account].Manufacturer = true;\r\n    }\r\n\r\n    function hasDistributorRole(address _account) public view returns (bool) {\r\n        return roles[_account].Distributor;\r\n    }\r\n\r\n    function addDistributorRole(address _account) public {\r\n        require(msg.sender == owner);\r\n        require(!hasDistributorRole(_account));\r\n        roles[_account].Distributor = true;\r\n    }\r\n\r\n    function hasDeliveryHubRole(address _account) public view returns (bool) {\r\n        return roles[_account].DeliveryHub;\r\n    }\r\n\r\n    function addDeliveryHubRole(address _account) public {\r\n        require(msg.sender == owner);\r\n        require(!hasDeliveryHubRole(_account));\r\n\r\n        roles[_account].DeliveryHub = true;\r\n    }\r\n\r\n    function hasVaccinationCenterRole(address _account)\r\n        public\r\n        view\r\n        returns (bool)\r\n    {\r\n        return roles[_account].VaccinationCenter;\r\n    }\r\n\r\n    function addVaccinationCenterRole(address _account) public {\r\n        require(msg.sender == owner);\r\n        require(!hasVaccinationCenterRole(_account));\r\n        roles[_account].VaccinationCenter = true;\r\n    }\r\n\r\n    modifier verifyAddress(address add) {\r\n        require(msg.sender == add);\r\n        _;\r\n    }\r\n\r\n    modifier manufactured(uint256 _uid) {\r\n        require(products[_uid].productState == Structure.State.Manufactured);\r\n        _;\r\n    }\r\n\r\n    modifier shippedByManufacturer(uint256 _uid) {\r\n        require(\r\n            products[_uid].productState == Structure.State.ShippedByManufacturer\r\n        );\r\n        _;\r\n    }\r\n\r\n    modifier receivedByDistributor(uint256 _uid) {\r\n        require(\r\n            products[_uid].productState == Structure.State.ReceivedByDistributor\r\n        );\r\n        _;\r\n    }\r\n\r\n    modifier purchasedByVaccinationCenter(uint256 _uid) {\r\n        require(\r\n            products[_uid].productState == Structure.State.PurchasedByVaccinationCenter\r\n        );\r\n        _;\r\n    }\r\n\r\n    modifier shippedByDistributor(uint256 _uid) {\r\n        require(\r\n            products[_uid].productState == Structure.State.ShippedByDistributor\r\n        );\r\n        _;\r\n    }\r\n\r\n    modifier receivedByDeliveryHub(uint256 _uid) {\r\n        require(\r\n            products[_uid].productState == Structure.State.ReceivedByDeliveryHub\r\n        );\r\n        _;\r\n    }\r\n\r\n    modifier shippedByDeliveryHub(uint256 _uid) {\r\n        require(\r\n            products[_uid].productState == Structure.State.ShippedByDeliveryHub\r\n        );\r\n        _;\r\n    }\r\n\r\n    modifier receivedByVaccinationCenter(uint256 _uid) {\r\n        require(\r\n            products[_uid].productState == Structure.State.ReceivedByVaccinationCenter\r\n        );\r\n        _;\r\n    }\r\n\r\n    // STEP 1 : Manufacture a product.\r\n    function manufactureProduct(\r\n        string memory manufacturerLongitude,\r\n        string memory manufacturerLatitude,\r\n        string memory productName,\r\n        uint256 productPrice,\r\n        string memory productCategory\r\n    ) public {\r\n        require(hasManufacturerRole(msg.sender));\r\n        Structure.Product memory product;\r\n        product.owner=msg.sender;\r\n        product.productdet.productid = uid;\r\n        product.productdet.productName = productName;\r\n        product.productdet.productPrice = productPrice;\r\n        product.productdet.productCategory = productCategory;\r\n        product.manufacturer.manufacturer = msg.sender;\r\n        product.manufacturer.manufacturerLongitude = manufacturerLongitude;\r\n        product.manufacturer.manufacturerLatitude = manufacturerLatitude;\r\n        product.productState = Structure.State.Manufactured;\r\n\r\n        products[uid] = product;\r\n\r\n        productHistory[uid].history.push(product);\r\n\r\n        emit Manufactured(uid);\r\n        uid = uid + 1;\r\n    }\r\n\r\n   // STEP 2 : Purchase of manufactured product by Distributor.\r\n    function purchaseByDistributor(uint256 _uid) public manufactured(_uid) {\r\n        require(hasDistributorRole((msg.sender)));\r\n        products[_uid].distributor.distributor = msg.sender;\r\n        products[_uid].productState = Structure.State.PurchasedByDistributor;\r\n        productHistory[_uid].history.push(products[_uid]);\r\n\r\n        emit PurchasedByDistributor(_uid);\r\n    }\r\n\r\n    // STEP 3 : Shipping of purchased product to Distributor.\r\n    function shipToDistributor(uint256 _uid)\r\n        public\r\n        verifyAddress(products[_uid].owner)\r\n    {\r\n        require(hasManufacturerRole(msg.sender));\r\n        products[_uid].productState = Structure.State.ShippedByManufacturer;\r\n        productHistory[_uid].history.push(products[_uid]);\r\n\r\n        emit ShippedByManufacturer(_uid);\r\n    }\r\n\r\n    // STEP 4 : Receive the purchased product shipped by Manufacturer.\r\n    function receiveByDistributor(\r\n        uint256 _uid,\r\n        string memory distributorLongitude,\r\n        string memory distributorLatitude\r\n    )\r\n        public\r\n        shippedByManufacturer(_uid)\r\n        verifyAddress(products[_uid].distributor.distributor)\r\n    {\r\n        require(hasDistributorRole(msg.sender));\r\n        products[_uid].owner = msg.sender;\r\n        products[_uid].distributor.distributorLongitude = distributorLongitude;\r\n        products[_uid].distributor.distributorLatitude = distributorLatitude;\r\n        products[_uid].productState = Structure.State.ReceivedByDistributor;\r\n        productHistory[_uid].history.push(products[_uid]);\r\n\r\n        emit ReceivedByDistributor(_uid);\r\n    }\r\n\r\n    // STEP 5 : Purchase of a product at Distributor by VaccinationCenter.\r\n    function purchaseByVaccinationCenter(uint256 _uid)\r\n        public\r\n        receivedByDistributor(_uid)\r\n    {\r\n        require(hasVaccinationCenterRole(msg.sender));\r\n        products[_uid].vaccinationcenter.vaccinationcenter = msg.sender;\r\n        products[_uid].productState = Structure.State.PurchasedByVaccinationCenter;\r\n        productHistory[_uid].history.push(products[_uid]);\r\n\r\n        emit PurchasedByVaccinationCenter(_uid);\r\n    }\r\n\r\n    // STEP 6 : Shipping of product by Distributor purchased by VaccinationCenter.\r\n    function shipByDistributor(uint256 _uid)\r\n        public\r\n        verifyAddress(products[_uid].owner)\r\n        verifyAddress(products[_uid].distributor.distributor)\r\n    {\r\n        require(hasDistributorRole(msg.sender));\r\n        products[_uid].productState = Structure.State.ShippedByDistributor;\r\n        productHistory[_uid].history.push(products[_uid]);\r\n\r\n        emit ShippedByDistributor(_uid);\r\n    }\r\n\r\n    // STEP 7 : Receiveing of product by delivery hub purchased by VaccinationCenter.\r\n    function receiveByDeliveryHub(\r\n        uint256 _uid,\r\n        string memory deliveryHubLongitude,\r\n        string memory deliveryHubLatitude\r\n    ) public shippedByDistributor(_uid) {\r\n        require(hasDeliveryHubRole(msg.sender));\r\n        products[_uid].owner = msg.sender;\r\n        products[_uid].deliveryhub.deliveryHub = msg.sender;\r\n        products[_uid].deliveryhub.deliveryHubLongitude = deliveryHubLongitude;\r\n        products[_uid].deliveryhub.deliveryHubLatitude = deliveryHubLatitude;\r\n        products[_uid].productState = Structure.State.ReceivedByDeliveryHub;\r\n        productHistory[_uid].history.push(products[_uid]);\r\n\r\n        emit ReceivedByDeliveryHub(_uid);\r\n    }\r\n\r\n    // STEP 8 : Shipping of product by delivery hub purchased by VaccinationCenter.\r\n    function shipByDeliveryHub(uint256 _uid)\r\n        public\r\n        receivedByDeliveryHub(_uid)\r\n        verifyAddress(products[_uid].owner)\r\n    {\r\n        require(hasDeliveryHubRole(msg.sender));\r\n        products[_uid].productState = Structure.State.ShippedByDeliveryHub;\r\n        productHistory[_uid].history.push(products[_uid]);\r\n\r\n        emit ShippedByDeliveryHub(_uid);\r\n    }\r\n\r\n    // STEP 9 : Receive the purchased product by VaccinationCenter.\r\n    function receiveByCustomer(\r\n        uint256 _uid,\r\n        string memory vaccinationcenterLongitude,\r\n        string memory vaccinationcenterLatitude\r\n        )\r\n        public\r\n        shippedByDeliveryHub(_uid)\r\n        verifyAddress(products[_uid].vaccinationcenter.vaccinationcenter)\r\n    {\r\n        require(hasVaccinationCenterRole(msg.sender));\r\n        products[_uid].owner = msg.sender;\r\n        products[_uid].vaccinationcenter.vaccinationcenterLongitude = vaccinationcenterLongitude;\r\n        products[_uid].vaccinationcenter.vaccinationcenterLatitude = vaccinationcenterLatitude;\r\n        products[_uid].productState = Structure.State.ReceivedByVaccinationCenter;\r\n        productHistory[_uid].history.push(products[_uid]);\r\n\r\n        emit ReceivedByVaccinationCenter(_uid);\r\n    }\r\n\r\n    function fetchProduct(uint256 _uid) public view returns (uint256,\r\n    string memory,\r\n    uint256,\r\n    string memory,\r\n    address,\r\n    string memory,\r\n    string memory,\r\n    address\r\n    ) {\r\n        Structure.Product storage product = products[_uid];\r\n        return ( product.productdet.productid, product.productdet.productName, product.productdet.productPrice, product.productdet.productCategory, product.manufacturer.manufacturer,\r\n        product.manufacturer.manufacturerLongitude, product.manufacturer.manufacturerLatitude,product.distributor.distributor);\r\n    }\r\n}\r\n",
  "sourcePath": "C:\\Users\\Yash Tayal\\Desktop\\Projects\\vaccine-distributtion-system\\contracts\\SupplyChain.sol",
  "compiler": {
    "name": "solc",
    "version": "0.5.16+commit.9c3226ce.Emscripten.clang"
  },
  "schemaVersion": "3.4.3",
  "updatedAt": "2022-02-20T09:30:22.606Z",
  "networkType": "ethereum",
  "devdoc": {
    "methods": {}
  },
  "userdoc": {
    "methods": {}
  }
}