{
  "contractName": "SupplyChain",
  "abi": [
    {
      "inputs": [],
      "payable": false,
      "stateMutability": "nonpayable",
      "type": "constructor"
    },
    {
      "anonymous": false,
      "inputs": [
        {
          "indexed": false,
          "internalType": "uint256",
          "name": "uid",
          "type": "uint256"
        }
      ],
      "name": "Manufactured",
      "type": "event"
    },
    {
      "constant": true,
      "inputs": [],
      "name": "uid",
      "outputs": [
        {
          "internalType": "uint256",
          "name": "",
          "type": "uint256"
        }
      ],
      "payable": false,
      "stateMutability": "view",
      "type": "function"
    },
    {
      "constant": true,
      "inputs": [
        {
          "internalType": "address",
          "name": "_account",
          "type": "address"
        }
      ],
      "name": "hasManufacturerRole",
      "outputs": [
        {
          "internalType": "bool",
          "name": "",
          "type": "bool"
        }
      ],
      "payable": false,
      "stateMutability": "view",
      "type": "function"
    },
    {
      "constant": false,
      "inputs": [
        {
          "internalType": "address",
          "name": "_account",
          "type": "address"
        }
      ],
      "name": "addManufacturerRole",
      "outputs": [],
      "payable": false,
      "stateMutability": "nonpayable",
      "type": "function"
    },
    {
      "constant": true,
      "inputs": [
        {
          "internalType": "address",
          "name": "_account",
          "type": "address"
        }
      ],
      "name": "hasDistributorRole",
      "outputs": [
        {
          "internalType": "bool",
          "name": "",
          "type": "bool"
        }
      ],
      "payable": false,
      "stateMutability": "view",
      "type": "function"
    },
    {
      "constant": false,
      "inputs": [
        {
          "internalType": "address",
          "name": "_account",
          "type": "address"
        }
      ],
      "name": "addDistributorRole",
      "outputs": [],
      "payable": false,
      "stateMutability": "nonpayable",
      "type": "function"
    },
    {
      "constant": true,
      "inputs": [
        {
          "internalType": "address",
          "name": "_account",
          "type": "address"
        }
      ],
      "name": "hasDeliveryRole",
      "outputs": [
        {
          "internalType": "bool",
          "name": "",
          "type": "bool"
        }
      ],
      "payable": false,
      "stateMutability": "view",
      "type": "function"
    },
    {
      "constant": false,
      "inputs": [
        {
          "internalType": "address",
          "name": "_account",
          "type": "address"
        }
      ],
      "name": "addDeliveryRole",
      "outputs": [],
      "payable": false,
      "stateMutability": "nonpayable",
      "type": "function"
    },
    {
      "constant": true,
      "inputs": [
        {
          "internalType": "address",
          "name": "_account",
          "type": "address"
        }
      ],
      "name": "hasVaccinationCenterRole",
      "outputs": [
        {
          "internalType": "bool",
          "name": "",
          "type": "bool"
        }
      ],
      "payable": false,
      "stateMutability": "view",
      "type": "function"
    },
    {
      "constant": false,
      "inputs": [
        {
          "internalType": "address",
          "name": "_account",
          "type": "address"
        }
      ],
      "name": "addVaccinationCenterRole",
      "outputs": [],
      "payable": false,
      "stateMutability": "nonpayable",
      "type": "function"
    },
    {
      "constant": false,
      "inputs": [
        {
          "internalType": "string",
          "name": "manufacturerLongitude",
          "type": "string"
        },
        {
          "internalType": "string",
          "name": "manufacturerLatitude",
          "type": "string"
        },
        {
          "internalType": "string",
          "name": "productName",
          "type": "string"
        },
        {
          "internalType": "uint256",
          "name": "productPrice",
          "type": "uint256"
        },
        {
          "internalType": "string",
          "name": "productCategory",
          "type": "string"
        }
      ],
      "name": "manufactureProduct",
      "outputs": [],
      "payable": false,
      "stateMutability": "nonpayable",
      "type": "function"
    },
    {
      "constant": true,
      "inputs": [
        {
          "internalType": "uint256",
          "name": "_uid",
          "type": "uint256"
        }
      ],
      "name": "fetchProduct",
      "outputs": [
        {
          "internalType": "address",
          "name": "",
          "type": "address"
        }
      ],
      "payable": false,
      "stateMutability": "view",
      "type": "function"
    }
  ],
  "bytecode": "0x608060405234801561001057600080fd5b5033600160006101000a81548173ffffffffffffffffffffffffffffffffffffffff021916908373ffffffffffffffffffffffffffffffffffffffff1602179055506001600081905550611438806100696000396000f3fe608060405234801561001057600080fd5b50600436106100a95760003560e01c80636971d383116100715780636971d383146102745780637c7507c4146102d05780638290f85914610314578063a8a7acad14610358578063c56142b51461039c578063f514ce3614610626576100a9565b806303ea0b5a146100ae5780630cb28a531461010a578063179c5c57146101785780635ac65f30146101bc5780636000ada114610218575b600080fd5b6100f0600480360360208110156100c457600080fd5b81019080803573ffffffffffffffffffffffffffffffffffffffff169060200190929190505050610644565b604051808215151515815260200191505060405180910390f35b6101366004803603602081101561012057600080fd5b810190808035906020019092919050505061069d565b604051808273ffffffffffffffffffffffffffffffffffffffff1673ffffffffffffffffffffffffffffffffffffffff16815260200191505060405180910390f35b6101ba6004803603602081101561018e57600080fd5b81019080803573ffffffffffffffffffffffffffffffffffffffff1690602001909291905050506106e5565b005b6101fe600480360360208110156101d257600080fd5b81019080803573ffffffffffffffffffffffffffffffffffffffff1690602001909291905050506107b0565b604051808215151515815260200191505060405180910390f35b61025a6004803603602081101561022e57600080fd5b81019080803573ffffffffffffffffffffffffffffffffffffffff169060200190929190505050610809565b604051808215151515815260200191505060405180910390f35b6102b66004803603602081101561028a57600080fd5b81019080803573ffffffffffffffffffffffffffffffffffffffff169060200190929190505050610862565b604051808215151515815260200191505060405180910390f35b610312600480360360208110156102e657600080fd5b81019080803573ffffffffffffffffffffffffffffffffffffffff1690602001909291905050506108bb565b005b6103566004803603602081101561032a57600080fd5b81019080803573ffffffffffffffffffffffffffffffffffffffff169060200190929190505050610986565b005b61039a6004803603602081101561036e57600080fd5b81019080803573ffffffffffffffffffffffffffffffffffffffff169060200190929190505050610a51565b005b610624600480360360a08110156103b257600080fd5b81019080803590602001906401000000008111156103cf57600080fd5b8201836020820111156103e157600080fd5b8035906020019184600183028401116401000000008311171561040357600080fd5b91908080601f016020809104026020016040519081016040528093929190818152602001838380828437600081840152601f19601f8201169050808301925050505050505091929192908035906020019064010000000081111561046657600080fd5b82018360208201111561047857600080fd5b8035906020019184600183028401116401000000008311171561049a57600080fd5b91908080601f016020809104026020016040519081016040528093929190818152602001838380828437600081840152601f19601f820116905080830192505050505050509192919290803590602001906401000000008111156104fd57600080fd5b82018360208201111561050f57600080fd5b8035906020019184600183028401116401000000008311171561053157600080fd5b91908080601f016020809104026020016040519081016040528093929190818152602001838380828437600081840152601f19601f820116905080830192505050505050509192919290803590602001909291908035906020019064010000000081111561059e57600080fd5b8201836020820111156105b057600080fd5b803590602001918460018302840111640100000000831117156105d257600080fd5b91908080601f016020809104026020016040519081016040528093929190818152602001838380828437600081840152601f19601f820116905080830192505050505050509192919290505050610b1c565b005b61062e6111f6565b6040518082815260200191505060405180910390f35b6000600260008373ffffffffffffffffffffffffffffffffffffffff1673ffffffffffffffffffffffffffffffffffffffff16815260200190815260200160002060000160019054906101000a900460ff169050919050565b6000806003600084815260200190815260200160002090508060050160000160009054906101000a900473ffffffffffffffffffffffffffffffffffffffff16915050919050565b600160009054906101000a900473ffffffffffffffffffffffffffffffffffffffff1673ffffffffffffffffffffffffffffffffffffffff163373ffffffffffffffffffffffffffffffffffffffff161461073f57600080fd5b610748816107b0565b1561075257600080fd5b6001600260008373ffffffffffffffffffffffffffffffffffffffff1673ffffffffffffffffffffffffffffffffffffffff16815260200190815260200160002060000160026101000a81548160ff02191690831515021790555050565b6000600260008373ffffffffffffffffffffffffffffffffffffffff1673ffffffffffffffffffffffffffffffffffffffff16815260200190815260200160002060000160029054906101000a900460ff169050919050565b6000600260008373ffffffffffffffffffffffffffffffffffffffff1673ffffffffffffffffffffffffffffffffffffffff16815260200190815260200160002060000160009054906101000a900460ff169050919050565b6000600260008373ffffffffffffffffffffffffffffffffffffffff1673ffffffffffffffffffffffffffffffffffffffff16815260200190815260200160002060000160039054906101000a900460ff169050919050565b600160009054906101000a900473ffffffffffffffffffffffffffffffffffffffff1673ffffffffffffffffffffffffffffffffffffffff163373ffffffffffffffffffffffffffffffffffffffff161461091557600080fd5b61091e81610862565b1561092857600080fd5b6001600260008373ffffffffffffffffffffffffffffffffffffffff1673ffffffffffffffffffffffffffffffffffffffff16815260200190815260200160002060000160036101000a81548160ff02191690831515021790555050565b600160009054906101000a900473ffffffffffffffffffffffffffffffffffffffff1673ffffffffffffffffffffffffffffffffffffffff163373ffffffffffffffffffffffffffffffffffffffff16146109e057600080fd5b6109e981610809565b156109f357600080fd5b6001600260008373ffffffffffffffffffffffffffffffffffffffff1673ffffffffffffffffffffffffffffffffffffffff16815260200190815260200160002060000160006101000a81548160ff02191690831515021790555050565b600160009054906101000a900473ffffffffffffffffffffffffffffffffffffffff1673ffffffffffffffffffffffffffffffffffffffff163373ffffffffffffffffffffffffffffffffffffffff1614610aab57600080fd5b610ab481610644565b15610abe57600080fd5b6001600260008373ffffffffffffffffffffffffffffffffffffffff1673ffffffffffffffffffffffffffffffffffffffff16815260200190815260200160002060000160016101000a81548160ff02191690831515021790555050565b610b2533610809565b610b2e57600080fd5b610b366111fc565b60005481600001516020018181525050838160000151600001819052508281600001516040018181525050818160000151606001819052503381604001516000019073ffffffffffffffffffffffffffffffffffffffff16908173ffffffffffffffffffffffffffffffffffffffff16815250508581604001516020018190525084816040015160400181905250600081602001906000811115610bd657fe5b90816000811115610be357fe5b815250508060036000805481526020019081526020016000206000820151816000016000820151816000019080519060200190610c2192919061125a565b5060208201518160010155604082015181600201556060820151816003019080519060200190610c5292919061125a565b50505060208201518160040160006101000a81548160ff02191690836000811115610c7957fe5b021790555060408201518160050160008201518160000160006101000a81548173ffffffffffffffffffffffffffffffffffffffff021916908373ffffffffffffffffffffffffffffffffffffffff1602179055506020820151816001019080519060200190610cea92919061125a565b506040820151816002019080519060200190610d0792919061125a565b50505060608201518160080160008201518160000160006101000a81548173ffffffffffffffffffffffffffffffffffffffff021916908373ffffffffffffffffffffffffffffffffffffffff1602179055506020820151816001019080519060200190610d7692919061125a565b506040820151816002019080519060200190610d9392919061125a565b505050608082015181600b0160008201518160000160006101000a81548173ffffffffffffffffffffffffffffffffffffffff021916908373ffffffffffffffffffffffffffffffffffffffff1602179055506020820151816001019080519060200190610e0292919061125a565b506040820151816002019080519060200190610e1f92919061125a565b50505060a082015181600e0160008201518160000160006101000a81548173ffffffffffffffffffffffffffffffffffffffff021916908373ffffffffffffffffffffffffffffffffffffffff1602179055506020820151816001019080519060200190610e8e92919061125a565b506040820151816002019080519060200190610eab92919061125a565b505050905050600460008054815260200190815260200160002060000181908060018154018082558091505090600182039060005260206000209060110201600090919290919091506000820151816000016000820151816000019080519060200190610f1992919061125a565b5060208201518160010155604082015181600201556060820151816003019080519060200190610f4a92919061125a565b50505060208201518160040160006101000a81548160ff02191690836000811115610f7157fe5b021790555060408201518160050160008201518160000160006101000a81548173ffffffffffffffffffffffffffffffffffffffff021916908373ffffffffffffffffffffffffffffffffffffffff1602179055506020820151816001019080519060200190610fe292919061125a565b506040820151816002019080519060200190610fff92919061125a565b50505060608201518160080160008201518160000160006101000a81548173ffffffffffffffffffffffffffffffffffffffff021916908373ffffffffffffffffffffffffffffffffffffffff160217905550602082015181600101908051906020019061106e92919061125a565b50604082015181600201908051906020019061108b92919061125a565b505050608082015181600b0160008201518160000160006101000a81548173ffffffffffffffffffffffffffffffffffffffff021916908373ffffffffffffffffffffffffffffffffffffffff16021790555060208201518160010190805190602001906110fa92919061125a565b50604082015181600201908051906020019061111792919061125a565b50505060a082015181600e0160008201518160000160006101000a81548173ffffffffffffffffffffffffffffffffffffffff021916908373ffffffffffffffffffffffffffffffffffffffff160217905550602082015181600101908051906020019061118692919061125a565b5060408201518160020190805190602001906111a392919061125a565b5050505050507fd29d8a68ca7c8c74be5579719d445aabfe230ed6e6a83aff475a663500eb76096000546040518082815260200191505060405180910390a1600160005401600081905550505050505050565b60005481565b6040518060c0016040528061120f6112da565b815260200160008081111561122057fe5b815260200161122d611302565b815260200161123a611339565b8152602001611247611370565b81526020016112546113a7565b81525090565b828054600181600116156101000203166002900490600052602060002090601f016020900481019282601f1061129b57805160ff19168380011785556112c9565b828001600101855582156112c9579182015b828111156112c85782518255916020019190600101906112ad565b5b5090506112d691906113de565b5090565b6040518060800160405280606081526020016000815260200160008152602001606081525090565b6040518060600160405280600073ffffffffffffffffffffffffffffffffffffffff16815260200160608152602001606081525090565b6040518060600160405280600073ffffffffffffffffffffffffffffffffffffffff16815260200160608152602001606081525090565b6040518060600160405280600073ffffffffffffffffffffffffffffffffffffffff16815260200160608152602001606081525090565b6040518060600160405280600073ffffffffffffffffffffffffffffffffffffffff16815260200160608152602001606081525090565b61140091905b808211156113fc5760008160009055506001016113e4565b5090565b9056fea265627a7a72315820c0dcab3f8d35570d4d25b651605165e67dc66a94b6473e298ee74d3e50b3254364736f6c63430005100032",
  "source": "// SPDX-License-Identifier: MIT\npragma solidity >=0.4.21 <8.10.0;\n\nimport \"./Structure.sol\";\n\ncontract SupplyChain {\n    uint256 public uid;\n    address owner;\n\n    mapping(address => Structure.Roles) roles;\n    mapping(uint256 => Structure.Product) products;\n    mapping(uint256 => Structure.ProductHistory) productHistory;\n\n    constructor() public {\n        owner = msg.sender;\n        uid = 1;\n    }\n\n    event Manufactured(uint256 uid);\n\n    function hasManufacturerRole(address _account) public view returns (bool) {\n        return roles[_account].Manufacturer;\n    }\n\n    function addManufacturerRole(address _account) public {\n        require(msg.sender == owner);\n        require(!hasManufacturerRole(_account));\n        roles[_account].Manufacturer = true;\n    }\n\n    function hasDistributorRole(address _account) public view returns (bool) {\n        return roles[_account].Distributor;\n    }\n\n    function addDistributorRole(address _account) public {\n        require(msg.sender == owner);\n        require(!hasDistributorRole(_account));\n        roles[_account].Distributor = true;\n    }\n\n    function hasDeliveryRole(address _account) public view returns (bool) {\n        return roles[_account].Delivery;\n    }\n\n    function addDeliveryRole(address _account) public {\n        require(msg.sender == owner);\n        require(!hasDeliveryRole(_account));\n\n        roles[_account].Delivery = true;\n    }\n\n    function hasVaccinationCenterRole(address _account)\n        public\n        view\n        returns (bool)\n    {\n        return roles[_account].VaccinationCenter;\n    }\n\n    function addVaccinationCenterRole(address _account) public {\n        require(msg.sender == owner);\n        require(!hasVaccinationCenterRole(_account));\n        roles[_account].VaccinationCenter = true;\n    }\n\n    function manufactureProduct(\n        string memory manufacturerLongitude,\n        string memory manufacturerLatitude,\n        string memory productName,\n        uint256 productPrice,\n        string memory productCategory\n    ) public {\n        require(hasManufacturerRole(msg.sender));\n        Structure.Product memory product;\n        product.productdet.productid = uid;\n        product.productdet.productName = productName;\n        product.productdet.productPrice = productPrice;\n        product.productdet.productCategory = productCategory;\n        product.manufacturer.manufacturer = msg.sender;\n        product.manufacturer.manufacturerLongitude = manufacturerLongitude;\n        product.manufacturer.manufacturerLatitude = manufacturerLatitude;\n        product.productState = Structure.State.Manufactured;\n\n        products[uid] = product;\n\n        productHistory[uid].history.push(product);\n\n        emit Manufactured(uid);\n        uid = uid + 1;\n    }\n\n    function fetchProduct(uint256 _uid) public view returns (address) {\n        Structure.Product storage product = products[_uid];\n        return product.manufacturer.manufacturer;\n    }\n}\n",
  "sourcePath": "/home/piyush/Desktop/major-project/vaccine-distributtion-system/contracts/SupplyChain.sol",
  "compiler": {
    "name": "solc",
    "version": "0.5.16+commit.9c3226ce.Emscripten.clang"
  },
  "schemaVersion": "3.4.3",
  "updatedAt": "2022-01-31T17:18:30.387Z",
  "networkType": "ethereum",
  "devdoc": {
    "methods": {}
  },
  "userdoc": {
    "methods": {}
  }
}