{
  "contractName": "SupplyChain",
  "abi": [
    {
      "constant": true,
      "inputs": [],
      "name": "uid",
      "outputs": [
        {
          "name": "",
          "type": "uint256"
        }
      ],
      "payable": false,
      "stateMutability": "view",
      "type": "function",
      "signature": "0xf514ce36"
    },
    {
      "inputs": [],
      "payable": false,
      "stateMutability": "nonpayable",
      "type": "constructor",
      "signature": "constructor"
    },
    {
      "anonymous": false,
      "inputs": [
        {
          "indexed": false,
          "name": "uid",
          "type": "uint256"
        }
      ],
      "name": "Manufactured",
      "type": "event",
      "signature": "0xd29d8a68ca7c8c74be5579719d445aabfe230ed6e6a83aff475a663500eb7609"
    },
    {
      "anonymous": false,
      "inputs": [
        {
          "indexed": false,
          "name": "uid",
          "type": "uint256"
        }
      ],
      "name": "PurchasedByDistributor",
      "type": "event",
      "signature": "0xacd9402b9f9e8c15fa7c1819f8393ca56eb61316cc354fc6ac2150aed3ce7931"
    },
    {
      "anonymous": false,
      "inputs": [
        {
          "indexed": false,
          "name": "uid",
          "type": "uint256"
        }
      ],
      "name": "ShippedByManufacturer",
      "type": "event",
      "signature": "0x25727bef8a186dd95a062151451f2d651551b53124c18208d7653b1217ae31ba"
    },
    {
      "anonymous": false,
      "inputs": [
        {
          "indexed": false,
          "name": "uid",
          "type": "uint256"
        }
      ],
      "name": "ReceivedByDistributor",
      "type": "event",
      "signature": "0xc8ca2150e6e1849a10ef5aa4932060fa353bcacdffeb150c9e1890c6ab9403cc"
    },
    {
      "anonymous": false,
      "inputs": [
        {
          "indexed": false,
          "name": "uid",
          "type": "uint256"
        }
      ],
      "name": "PurchasedByVaccinationCenter",
      "type": "event",
      "signature": "0xda1b5272c78a876b6ee948dcb311f9d42ebabc9dd56c7c7a29798aaea34f62f8"
    },
    {
      "anonymous": false,
      "inputs": [
        {
          "indexed": false,
          "name": "uid",
          "type": "uint256"
        }
      ],
      "name": "ShippedByDistributor",
      "type": "event",
      "signature": "0xc5c33776d405e5686e4386e1ef31a65cf6195e4f7ceb8808ab64d05b6ccbc2a6"
    },
    {
      "anonymous": false,
      "inputs": [
        {
          "indexed": false,
          "name": "uid",
          "type": "uint256"
        }
      ],
      "name": "ReceivedByDeliveryHub",
      "type": "event",
      "signature": "0xb6589947d486bf61c31a4e6d2e81d4d2c93e7832fdda27f2492009b4755c29ed"
    },
    {
      "anonymous": false,
      "inputs": [
        {
          "indexed": false,
          "name": "uid",
          "type": "uint256"
        }
      ],
      "name": "ShippedByDeliveryHub",
      "type": "event",
      "signature": "0x9a96442e96ac96ba57e48273f290bf3bb9c6b0b2c86843cc4bf2353119918fdf"
    },
    {
      "anonymous": false,
      "inputs": [
        {
          "indexed": false,
          "name": "uid",
          "type": "uint256"
        }
      ],
      "name": "ReceivedByVaccinationCenter",
      "type": "event",
      "signature": "0xaeafd725bf462493136b40ed95631fe00d2c8ee209d1631e376845207386e147"
    },
    {
      "constant": true,
      "inputs": [
        {
          "name": "_account",
          "type": "address"
        }
      ],
      "name": "hasManufacturerRole",
      "outputs": [
        {
          "name": "",
          "type": "bool"
        }
      ],
      "payable": false,
      "stateMutability": "view",
      "type": "function",
      "signature": "0x6000ada1"
    },
    {
      "constant": false,
      "inputs": [
        {
          "name": "_account",
          "type": "address"
        }
      ],
      "name": "addManufacturerRole",
      "outputs": [],
      "payable": false,
      "stateMutability": "nonpayable",
      "type": "function",
      "signature": "0x8290f859"
    },
    {
      "constant": true,
      "inputs": [
        {
          "name": "_account",
          "type": "address"
        }
      ],
      "name": "hasDistributorRole",
      "outputs": [
        {
          "name": "",
          "type": "bool"
        }
      ],
      "payable": false,
      "stateMutability": "view",
      "type": "function",
      "signature": "0x03ea0b5a"
    },
    {
      "constant": false,
      "inputs": [
        {
          "name": "_account",
          "type": "address"
        }
      ],
      "name": "addDistributorRole",
      "outputs": [],
      "payable": false,
      "stateMutability": "nonpayable",
      "type": "function",
      "signature": "0xa8a7acad"
    },
    {
      "constant": true,
      "inputs": [
        {
          "name": "_account",
          "type": "address"
        }
      ],
      "name": "hasDeliveryHubRole",
      "outputs": [
        {
          "name": "",
          "type": "bool"
        }
      ],
      "payable": false,
      "stateMutability": "view",
      "type": "function",
      "signature": "0xd44bebcc"
    },
    {
      "constant": false,
      "inputs": [
        {
          "name": "_account",
          "type": "address"
        }
      ],
      "name": "addDeliveryHubRole",
      "outputs": [],
      "payable": false,
      "stateMutability": "nonpayable",
      "type": "function",
      "signature": "0xf4121b67"
    },
    {
      "constant": true,
      "inputs": [
        {
          "name": "_account",
          "type": "address"
        }
      ],
      "name": "hasVaccinationCenterRole",
      "outputs": [
        {
          "name": "",
          "type": "bool"
        }
      ],
      "payable": false,
      "stateMutability": "view",
      "type": "function",
      "signature": "0x6971d383"
    },
    {
      "constant": false,
      "inputs": [
        {
          "name": "_account",
          "type": "address"
        }
      ],
      "name": "addVaccinationCenterRole",
      "outputs": [],
      "payable": false,
      "stateMutability": "nonpayable",
      "type": "function",
      "signature": "0x7c7507c4"
    },
    {
      "constant": false,
      "inputs": [
        {
          "name": "manufacturerLongitude",
          "type": "string"
        },
        {
          "name": "manufacturerLatitude",
          "type": "string"
        },
        {
          "name": "productName",
          "type": "string"
        },
        {
          "name": "productPrice",
          "type": "uint256"
        },
        {
          "name": "productCategory",
          "type": "string"
        }
      ],
      "name": "manufactureProduct",
      "outputs": [],
      "payable": false,
      "stateMutability": "nonpayable",
      "type": "function",
      "signature": "0xc56142b5"
    },
    {
      "constant": false,
      "inputs": [
        {
          "name": "_uid",
          "type": "uint256"
        }
      ],
      "name": "purchaseByDistributor",
      "outputs": [],
      "payable": false,
      "stateMutability": "nonpayable",
      "type": "function",
      "signature": "0x90d75b37"
    },
    {
      "constant": false,
      "inputs": [
        {
          "name": "_uid",
          "type": "uint256"
        }
      ],
      "name": "shipToDistributor",
      "outputs": [],
      "payable": false,
      "stateMutability": "nonpayable",
      "type": "function",
      "signature": "0xe35d76ce"
    },
    {
      "constant": false,
      "inputs": [
        {
          "name": "_uid",
          "type": "uint256"
        },
        {
          "name": "distributorLongitude",
          "type": "string"
        },
        {
          "name": "distributorLatitude",
          "type": "string"
        }
      ],
      "name": "receiveByDistributor",
      "outputs": [],
      "payable": false,
      "stateMutability": "nonpayable",
      "type": "function",
      "signature": "0x532b26a1"
    },
    {
      "constant": false,
      "inputs": [
        {
          "name": "_uid",
          "type": "uint256"
        }
      ],
      "name": "purchaseByVaccinationCenter",
      "outputs": [],
      "payable": false,
      "stateMutability": "nonpayable",
      "type": "function",
      "signature": "0xad12770d"
    },
    {
      "constant": false,
      "inputs": [
        {
          "name": "_uid",
          "type": "uint256"
        }
      ],
      "name": "shipByDistributor",
      "outputs": [],
      "payable": false,
      "stateMutability": "nonpayable",
      "type": "function",
      "signature": "0xcf86dee7"
    },
    {
      "constant": false,
      "inputs": [
        {
          "name": "_uid",
          "type": "uint256"
        },
        {
          "name": "deliveryHubLongitude",
          "type": "string"
        },
        {
          "name": "deliveryHubLatitude",
          "type": "string"
        }
      ],
      "name": "receiveByDeliveryHub",
      "outputs": [],
      "payable": false,
      "stateMutability": "nonpayable",
      "type": "function",
      "signature": "0x8eee90ea"
    },
    {
      "constant": false,
      "inputs": [
        {
          "name": "_uid",
          "type": "uint256"
        }
      ],
      "name": "shipByDeliveryHub",
      "outputs": [],
      "payable": false,
      "stateMutability": "nonpayable",
      "type": "function",
      "signature": "0x6cf07e24"
    },
    {
      "constant": false,
      "inputs": [
        {
          "name": "_uid",
          "type": "uint256"
        },
        {
          "name": "vaccinationcenterLongitude",
          "type": "string"
        },
        {
          "name": "vaccinationcenterLatitude",
          "type": "string"
        }
      ],
      "name": "receiveByCustomer",
      "outputs": [],
      "payable": false,
      "stateMutability": "nonpayable",
      "type": "function",
      "signature": "0x4bbd4e67"
    },
    {
      "constant": true,
      "inputs": [],
      "name": "fetchProductCount",
      "outputs": [
        {
          "name": "",
          "type": "uint256"
        }
      ],
      "payable": false,
      "stateMutability": "view",
      "type": "function",
      "signature": "0xf16791b3"
    },
    {
      "constant": true,
      "inputs": [
        {
          "name": "_uid",
          "type": "uint256"
        }
      ],
      "name": "fetchProductState",
      "outputs": [
        {
          "name": "",
          "type": "uint8"
        }
      ],
      "payable": false,
      "stateMutability": "view",
      "type": "function",
      "signature": "0xe2f1fe14"
    },
    {
      "constant": true,
      "inputs": [
        {
          "name": "_uid",
          "type": "uint256"
        }
      ],
      "name": "fetchProduct",
      "outputs": [
        {
          "name": "",
          "type": "uint256"
        },
        {
          "name": "",
          "type": "string"
        },
        {
          "name": "",
          "type": "uint256"
        },
        {
          "name": "",
          "type": "string"
        },
        {
          "name": "",
          "type": "address"
        },
        {
          "name": "",
          "type": "string"
        },
        {
          "name": "",
          "type": "string"
        },
        {
          "name": "",
          "type": "address"
        }
      ],
      "payable": false,
      "stateMutability": "view",
      "type": "function",
      "signature": "0x0cb28a53"
    }
  ],
  "bytecode": "0x608060405234801561001057600080fd5b5033600160006101000a81548173ffffffffffffffffffffffffffffffffffffffff021916908373ffffffffffffffffffffffffffffffffffffffff160217905550600160008190555061511d806100696000396000f3fe60806040526004361061011d576000357c0100000000000000000000000000000000000000000000000000000000900463ffffffff16806303ea0b5a146101225780630cb28a531461018b5780634bbd4e67146103f7578063532b26a1146105605780636000ada1146106c95780636971d383146107325780636cf07e241461079b5780637c7507c4146107d65780638290f859146108275780638eee90ea1461087857806390d75b37146109e1578063a8a7acad14610a1c578063ad12770d14610a6d578063c56142b514610aa8578063cf86dee714610d3f578063d44bebcc14610d7a578063e2f1fe1414610de3578063e35d76ce14610e40578063f16791b314610e7b578063f4121b6714610ea6578063f514ce3614610ef7575b600080fd5b34801561012e57600080fd5b506101716004803603602081101561014557600080fd5b81019080803573ffffffffffffffffffffffffffffffffffffffff169060200190929190505050610f22565b604051808215151515815260200191505060405180910390f35b34801561019757600080fd5b506101c4600480360360208110156101ae57600080fd5b8101908080359060200190929190505050610f7b565b6040518089815260200180602001888152602001806020018773ffffffffffffffffffffffffffffffffffffffff1673ffffffffffffffffffffffffffffffffffffffff16815260200180602001806020018673ffffffffffffffffffffffffffffffffffffffff1673ffffffffffffffffffffffffffffffffffffffff16815260200185810385528c818151815260200191508051906020019080838360005b83811015610280578082015181840152602081019050610265565b50505050905090810190601f1680156102ad5780820380516001836020036101000a031916815260200191505b5085810384528a818151815260200191508051906020019080838360005b838110156102e65780820151818401526020810190506102cb565b50505050905090810190601f1680156103135780820380516001836020036101000a031916815260200191505b50858103835288818151815260200191508051906020019080838360005b8381101561034c578082015181840152602081019050610331565b50505050905090810190601f1680156103795780820380516001836020036101000a031916815260200191505b50858103825287818151815260200191508051906020019080838360005b838110156103b2578082015181840152602081019050610397565b50505050905090810190601f1680156103df5780820380516001836020036101000a031916815260200191505b509c5050505050505050505050505060405180910390f35b34801561040357600080fd5b5061055e6004803603606081101561041a57600080fd5b81019080803590602001909291908035906020019064010000000081111561044157600080fd5b82018360208201111561045357600080fd5b8035906020019184600183028401116401000000008311171561047557600080fd5b91908080601f016020809104026020016040519081016040528093929190818152602001838380828437600081840152601f19601f820116905080830192505050505050509192919290803590602001906401000000008111156104d857600080fd5b8201836020820111156104ea57600080fd5b8035906020019184600183028401116401000000008311171561050c57600080fd5b91908080601f016020809104026020016040519081016040528093929190818152602001838380828437600081840152601f19601f8201169050808301925050505050505091929192905050506112a8565b005b34801561056c57600080fd5b506106c76004803603606081101561058357600080fd5b8101908080359060200190929190803590602001906401000000008111156105aa57600080fd5b8201836020820111156105bc57600080fd5b803590602001918460018302840111640100000000831117156105de57600080fd5b91908080601f016020809104026020016040519081016040528093929190818152602001838380828437600081840152601f19601f8201169050808301925050505050505091929192908035906020019064010000000081111561064157600080fd5b82018360208201111561065357600080fd5b8035906020019184600183028401116401000000008311171561067557600080fd5b91908080601f016020809104026020016040519081016040528093929190818152602001838380828437600081840152601f19601f820116905080830192505050505050509192919290505050611906565b005b3480156106d557600080fd5b50610718600480360360208110156106ec57600080fd5b81019080803573ffffffffffffffffffffffffffffffffffffffff169060200190929190505050611f63565b604051808215151515815260200191505060405180910390f35b34801561073e57600080fd5b506107816004803603602081101561075557600080fd5b81019080803573ffffffffffffffffffffffffffffffffffffffff169060200190929190505050611fbc565b604051808215151515815260200191505060405180910390f35b3480156107a757600080fd5b506107d4600480360360208110156107be57600080fd5b8101908080359060200190929190505050612015565b005b3480156107e257600080fd5b50610825600480360360208110156107f957600080fd5b81019080803573ffffffffffffffffffffffffffffffffffffffff1690602001909291905050506125bd565b005b34801561083357600080fd5b506108766004803603602081101561084a57600080fd5b81019080803573ffffffffffffffffffffffffffffffffffffffff16906020019092919050505061268c565b005b34801561088457600080fd5b506109df6004803603606081101561089b57600080fd5b8101908080359060200190929190803590602001906401000000008111156108c257600080fd5b8201836020820111156108d457600080fd5b803590602001918460018302840111640100000000831117156108f657600080fd5b91908080601f016020809104026020016040519081016040528093929190818152602001838380828437600081840152601f19601f8201169050808301925050505050505091929192908035906020019064010000000081111561095957600080fd5b82018360208201111561096b57600080fd5b8035906020019184600183028401116401000000008311171561098d57600080fd5b91908080601f016020809104026020016040519081016040528093929190818152602001838380828437600081840152601f19601f82011690508083019250505050505050919291929050505061275b565b005b3480156109ed57600080fd5b50610a1a60048036036020811015610a0457600080fd5b8101908080359060200190929190505050612d9c565b005b348015610a2857600080fd5b50610a6b60048036036020811015610a3f57600080fd5b81019080803573ffffffffffffffffffffffffffffffffffffffff16906020019092919050505061332a565b005b348015610a7957600080fd5b50610aa660048036036020811015610a9057600080fd5b81019080803590602001909291905050506133f9565b005b348015610ab457600080fd5b50610d3d600480360360a0811015610acb57600080fd5b8101908080359060200190640100000000811115610ae857600080fd5b820183602082011115610afa57600080fd5b80359060200191846001830284011164010000000083111715610b1c57600080fd5b91908080601f016020809104026020016040519081016040528093929190818152602001838380828437600081840152601f19601f82011690508083019250505050505050919291929080359060200190640100000000811115610b7f57600080fd5b820183602082011115610b9157600080fd5b80359060200191846001830284011164010000000083111715610bb357600080fd5b91908080601f016020809104026020016040519081016040528093929190818152602001838380828437600081840152601f19601f82011690508083019250505050505050919291929080359060200190640100000000811115610c1657600080fd5b820183602082011115610c2857600080fd5b80359060200191846001830284011164010000000083111715610c4a57600080fd5b91908080601f016020809104026020016040519081016040528093929190818152602001838380828437600081840152601f19601f8201169050808301925050505050505091929192908035906020019092919080359060200190640100000000811115610cb757600080fd5b820183602082011115610cc957600080fd5b80359060200191846001830284011164010000000083111715610ceb57600080fd5b91908080601f016020809104026020016040519081016040528093929190818152602001838380828437600081840152601f19601f820116905080830192505050505050509192919290505050613987565b005b348015610d4b57600080fd5b50610d7860048036036020811015610d6257600080fd5b8101908080359060200190929190505050614129565b005b348015610d8657600080fd5b50610dc960048036036020811015610d9d57600080fd5b81019080803573ffffffffffffffffffffffffffffffffffffffff1690602001909291905050506146fc565b604051808215151515815260200191505060405180910390f35b348015610def57600080fd5b50610e1c60048036036020811015610e0657600080fd5b8101908080359060200190929190505050614755565b60405180826008811115610e2c57fe5b60ff16815260200191505060405180910390f35b348015610e4c57600080fd5b50610e7960048036036020811015610e6357600080fd5b8101908080359060200190929190505050614782565b005b348015610e8757600080fd5b50610e90614ce0565b6040518082815260200191505060405180910390f35b348015610eb257600080fd5b50610ef560048036036020811015610ec957600080fd5b81019080803573ffffffffffffffffffffffffffffffffffffffff169060200190929190505050614ce9565b005b348015610f0357600080fd5b50610f0c614db8565b6040518082815260200191505060405180910390f35b6000600260008373ffffffffffffffffffffffffffffffffffffffff1673ffffffffffffffffffffffffffffffffffffffff16815260200190815260200160002060000160019054906101000a900460ff169050919050565b60006060600060606000606080600080600360008b815260200190815260200160002090508060010160010154816001016000018260010160020154836001016003018460060160000160009054906101000a900473ffffffffffffffffffffffffffffffffffffffff1685600601600101866006016002018760090160000160009054906101000a900473ffffffffffffffffffffffffffffffffffffffff16868054600181600116156101000203166002900480601f0160208091040260200160405190810160405280929190818152602001828054600181600116156101000203166002900480156110b15780601f10611086576101008083540402835291602001916110b1565b820191906000526020600020905b81548152906001019060200180831161109457829003601f168201915b50505050509650848054600181600116156101000203166002900480601f01602080910402602001604051908101604052809291908181526020018280546001816001161561010002031660029004801561114d5780601f106111225761010080835404028352916020019161114d565b820191906000526020600020905b81548152906001019060200180831161113057829003601f168201915b50505050509450828054600181600116156101000203166002900480601f0160208091040260200160405190810160405280929190818152602001828054600181600116156101000203166002900480156111e95780601f106111be576101008083540402835291602001916111e9565b820191906000526020600020905b8154815290600101906020018083116111cc57829003601f168201915b50505050509250818054600181600116156101000203166002900480601f0160208091040260200160405190810160405280929190818152602001828054600181600116156101000203166002900480156112855780601f1061125a57610100808354040283529160200191611285565b820191906000526020600020905b81548152906001019060200180831161126857829003601f168201915b505050505091509850985098509850985098509850985050919395975091939597565b82600760088111156112b657fe5b6003600083815260200190815260200160002060050160009054906101000a900460ff1660088111156112e557fe5b1415156112f157600080fd5b60036000858152602001908152602001600020600f0160000160009054906101000a900473ffffffffffffffffffffffffffffffffffffffff168073ffffffffffffffffffffffffffffffffffffffff163373ffffffffffffffffffffffffffffffffffffffff1614151561136557600080fd5b61136e33611fbc565b151561137957600080fd5b336003600087815260200190815260200160002060000160006101000a81548173ffffffffffffffffffffffffffffffffffffffff021916908373ffffffffffffffffffffffffffffffffffffffff1602179055508360036000878152602001908152602001600020600f0160010190805190602001906113fb929190614dbe565b508260036000878152602001908152602001600020600f016002019080519060200190611429929190614dbe565b5060086003600087815260200190815260200160002060050160006101000a81548160ff0219169083600881111561145d57fe5b02179055506004600086815260200190815260200160002060000160036000878152602001908152602001600020908060018154018082558091505090600182039060005260206000209060120201600090919290919091506000820160009054906101000a900473ffffffffffffffffffffffffffffffffffffffff168160000160006101000a81548173ffffffffffffffffffffffffffffffffffffffff021916908373ffffffffffffffffffffffffffffffffffffffff16021790555060018201816001016000820181600001908054600181600116156101000203166002900461154c929190614e3e565b50600182015481600101556002820154816002015560038201816003019080546001816001161561010002031660029004611588929190614e3e565b5050506005820160009054906101000a900460ff168160050160006101000a81548160ff021916908360088111156115bc57fe5b021790555060068201816006016000820160009054906101000a900473ffffffffffffffffffffffffffffffffffffffff168160000160006101000a81548173ffffffffffffffffffffffffffffffffffffffff021916908373ffffffffffffffffffffffffffffffffffffffff16021790555060018201816001019080546001816001161561010002031660029004611657929190614e3e565b506002820181600201908054600181600116156101000203166002900461167f929190614e3e565b50505060098201816009016000820160009054906101000a900473ffffffffffffffffffffffffffffffffffffffff168160000160006101000a81548173ffffffffffffffffffffffffffffffffffffffff021916908373ffffffffffffffffffffffffffffffffffffffff16021790555060018201816001019080546001816001161561010002031660029004611718929190614e3e565b5060028201816002019080546001816001161561010002031660029004611740929190614e3e565b505050600c820181600c016000820160009054906101000a900473ffffffffffffffffffffffffffffffffffffffff168160000160006101000a81548173ffffffffffffffffffffffffffffffffffffffff021916908373ffffffffffffffffffffffffffffffffffffffff160217905550600182018160010190805460018160011615610100020316600290046117d9929190614e3e565b5060028201816002019080546001816001161561010002031660029004611801929190614e3e565b505050600f820181600f016000820160009054906101000a900473ffffffffffffffffffffffffffffffffffffffff168160000160006101000a81548173ffffffffffffffffffffffffffffffffffffffff021916908373ffffffffffffffffffffffffffffffffffffffff1602179055506001820181600101908054600181600116156101000203166002900461189a929190614e3e565b50600282018160020190805460018160011615610100020316600290046118c2929190614e3e565b5050505050507faeafd725bf462493136b40ed95631fe00d2c8ee209d1631e376845207386e147856040518082815260200191505060405180910390a15050505050565b826002600881111561191457fe5b6003600083815260200190815260200160002060050160009054906101000a900460ff16600881111561194357fe5b14151561194f57600080fd5b6003600085815260200190815260200160002060090160000160009054906101000a900473ffffffffffffffffffffffffffffffffffffffff168073ffffffffffffffffffffffffffffffffffffffff163373ffffffffffffffffffffffffffffffffffffffff161415156119c357600080fd5b6119cc33610f22565b15156119d757600080fd5b336003600087815260200190815260200160002060000160006101000a81548173ffffffffffffffffffffffffffffffffffffffff021916908373ffffffffffffffffffffffffffffffffffffffff16021790555083600360008781526020019081526020016000206009016001019080519060200190611a59929190614dbe565b5082600360008781526020019081526020016000206009016002019080519060200190611a87929190614dbe565b50600380600087815260200190815260200160002060050160006101000a81548160ff02191690836008811115611aba57fe5b02179055506004600086815260200190815260200160002060000160036000878152602001908152602001600020908060018154018082558091505090600182039060005260206000209060120201600090919290919091506000820160009054906101000a900473ffffffffffffffffffffffffffffffffffffffff168160000160006101000a81548173ffffffffffffffffffffffffffffffffffffffff021916908373ffffffffffffffffffffffffffffffffffffffff160217905550600182018160010160008201816000019080546001816001161561010002031660029004611ba9929190614e3e565b50600182015481600101556002820154816002015560038201816003019080546001816001161561010002031660029004611be5929190614e3e565b5050506005820160009054906101000a900460ff168160050160006101000a81548160ff02191690836008811115611c1957fe5b021790555060068201816006016000820160009054906101000a900473ffffffffffffffffffffffffffffffffffffffff168160000160006101000a81548173ffffffffffffffffffffffffffffffffffffffff021916908373ffffffffffffffffffffffffffffffffffffffff16021790555060018201816001019080546001816001161561010002031660029004611cb4929190614e3e565b5060028201816002019080546001816001161561010002031660029004611cdc929190614e3e565b50505060098201816009016000820160009054906101000a900473ffffffffffffffffffffffffffffffffffffffff168160000160006101000a81548173ffffffffffffffffffffffffffffffffffffffff021916908373ffffffffffffffffffffffffffffffffffffffff16021790555060018201816001019080546001816001161561010002031660029004611d75929190614e3e565b5060028201816002019080546001816001161561010002031660029004611d9d929190614e3e565b505050600c820181600c016000820160009054906101000a900473ffffffffffffffffffffffffffffffffffffffff168160000160006101000a81548173ffffffffffffffffffffffffffffffffffffffff021916908373ffffffffffffffffffffffffffffffffffffffff16021790555060018201816001019080546001816001161561010002031660029004611e36929190614e3e565b5060028201816002019080546001816001161561010002031660029004611e5e929190614e3e565b505050600f820181600f016000820160009054906101000a900473ffffffffffffffffffffffffffffffffffffffff168160000160006101000a81548173ffffffffffffffffffffffffffffffffffffffff021916908373ffffffffffffffffffffffffffffffffffffffff16021790555060018201816001019080546001816001161561010002031660029004611ef7929190614e3e565b5060028201816002019080546001816001161561010002031660029004611f1f929190614e3e565b5050505050507fc8ca2150e6e1849a10ef5aa4932060fa353bcacdffeb150c9e1890c6ab9403cc856040518082815260200191505060405180910390a15050505050565b6000600260008373ffffffffffffffffffffffffffffffffffffffff1673ffffffffffffffffffffffffffffffffffffffff16815260200190815260200160002060000160009054906101000a900460ff169050919050565b6000600260008373ffffffffffffffffffffffffffffffffffffffff1673ffffffffffffffffffffffffffffffffffffffff16815260200190815260200160002060000160039054906101000a900460ff169050919050565b806006600881111561202357fe5b6003600083815260200190815260200160002060050160009054906101000a900460ff16600881111561205257fe5b14151561205e57600080fd5b6003600083815260200190815260200160002060000160009054906101000a900473ffffffffffffffffffffffffffffffffffffffff168073ffffffffffffffffffffffffffffffffffffffff163373ffffffffffffffffffffffffffffffffffffffff161415156120cf57600080fd5b6120d8336146fc565b15156120e357600080fd5b60076003600085815260200190815260200160002060050160006101000a81548160ff0219169083600881111561211657fe5b02179055506004600084815260200190815260200160002060000160036000858152602001908152602001600020908060018154018082558091505090600182039060005260206000209060120201600090919290919091506000820160009054906101000a900473ffffffffffffffffffffffffffffffffffffffff168160000160006101000a81548173ffffffffffffffffffffffffffffffffffffffff021916908373ffffffffffffffffffffffffffffffffffffffff160217905550600182018160010160008201816000019080546001816001161561010002031660029004612205929190614e3e565b50600182015481600101556002820154816002015560038201816003019080546001816001161561010002031660029004612241929190614e3e565b5050506005820160009054906101000a900460ff168160050160006101000a81548160ff0219169083600881111561227557fe5b021790555060068201816006016000820160009054906101000a900473ffffffffffffffffffffffffffffffffffffffff168160000160006101000a81548173ffffffffffffffffffffffffffffffffffffffff021916908373ffffffffffffffffffffffffffffffffffffffff16021790555060018201816001019080546001816001161561010002031660029004612310929190614e3e565b5060028201816002019080546001816001161561010002031660029004612338929190614e3e565b50505060098201816009016000820160009054906101000a900473ffffffffffffffffffffffffffffffffffffffff168160000160006101000a81548173ffffffffffffffffffffffffffffffffffffffff021916908373ffffffffffffffffffffffffffffffffffffffff160217905550600182018160010190805460018160011615610100020316600290046123d1929190614e3e565b50600282018160020190805460018160011615610100020316600290046123f9929190614e3e565b505050600c820181600c016000820160009054906101000a900473ffffffffffffffffffffffffffffffffffffffff168160000160006101000a81548173ffffffffffffffffffffffffffffffffffffffff021916908373ffffffffffffffffffffffffffffffffffffffff16021790555060018201816001019080546001816001161561010002031660029004612492929190614e3e565b50600282018160020190805460018160011615610100020316600290046124ba929190614e3e565b505050600f820181600f016000820160009054906101000a900473ffffffffffffffffffffffffffffffffffffffff168160000160006101000a81548173ffffffffffffffffffffffffffffffffffffffff021916908373ffffffffffffffffffffffffffffffffffffffff16021790555060018201816001019080546001816001161561010002031660029004612553929190614e3e565b506002820181600201908054600181600116156101000203166002900461257b929190614e3e565b5050505050507f9a96442e96ac96ba57e48273f290bf3bb9c6b0b2c86843cc4bf2353119918fdf836040518082815260200191505060405180910390a1505050565b600160009054906101000a900473ffffffffffffffffffffffffffffffffffffffff1673ffffffffffffffffffffffffffffffffffffffff163373ffffffffffffffffffffffffffffffffffffffff1614151561261957600080fd5b61262281611fbc565b15151561262e57600080fd5b6001600260008373ffffffffffffffffffffffffffffffffffffffff1673ffffffffffffffffffffffffffffffffffffffff16815260200190815260200160002060000160036101000a81548160ff02191690831515021790555050565b600160009054906101000a900473ffffffffffffffffffffffffffffffffffffffff1673ffffffffffffffffffffffffffffffffffffffff163373ffffffffffffffffffffffffffffffffffffffff161415156126e857600080fd5b6126f181611f63565b1515156126fd57600080fd5b6001600260008373ffffffffffffffffffffffffffffffffffffffff1673ffffffffffffffffffffffffffffffffffffffff16815260200190815260200160002060000160006101000a81548160ff02191690831515021790555050565b826005600881111561276957fe5b6003600083815260200190815260200160002060050160009054906101000a900460ff16600881111561279857fe5b1415156127a457600080fd5b6127ad336146fc565b15156127b857600080fd5b336003600086815260200190815260200160002060000160006101000a81548173ffffffffffffffffffffffffffffffffffffffff021916908373ffffffffffffffffffffffffffffffffffffffff1602179055503360036000868152602001908152602001600020600c0160000160006101000a81548173ffffffffffffffffffffffffffffffffffffffff021916908373ffffffffffffffffffffffffffffffffffffffff1602179055508260036000868152602001908152602001600020600c016001019080519060200190612892929190614dbe565b508160036000868152602001908152602001600020600c0160020190805190602001906128c0929190614dbe565b5060066003600086815260200190815260200160002060050160006101000a81548160ff021916908360088111156128f457fe5b02179055506004600085815260200190815260200160002060000160036000868152602001908152602001600020908060018154018082558091505090600182039060005260206000209060120201600090919290919091506000820160009054906101000a900473ffffffffffffffffffffffffffffffffffffffff168160000160006101000a81548173ffffffffffffffffffffffffffffffffffffffff021916908373ffffffffffffffffffffffffffffffffffffffff1602179055506001820181600101600082018160000190805460018160011615610100020316600290046129e3929190614e3e565b50600182015481600101556002820154816002015560038201816003019080546001816001161561010002031660029004612a1f929190614e3e565b5050506005820160009054906101000a900460ff168160050160006101000a81548160ff02191690836008811115612a5357fe5b021790555060068201816006016000820160009054906101000a900473ffffffffffffffffffffffffffffffffffffffff168160000160006101000a81548173ffffffffffffffffffffffffffffffffffffffff021916908373ffffffffffffffffffffffffffffffffffffffff16021790555060018201816001019080546001816001161561010002031660029004612aee929190614e3e565b5060028201816002019080546001816001161561010002031660029004612b16929190614e3e565b50505060098201816009016000820160009054906101000a900473ffffffffffffffffffffffffffffffffffffffff168160000160006101000a81548173ffffffffffffffffffffffffffffffffffffffff021916908373ffffffffffffffffffffffffffffffffffffffff16021790555060018201816001019080546001816001161561010002031660029004612baf929190614e3e565b5060028201816002019080546001816001161561010002031660029004612bd7929190614e3e565b505050600c820181600c016000820160009054906101000a900473ffffffffffffffffffffffffffffffffffffffff168160000160006101000a81548173ffffffffffffffffffffffffffffffffffffffff021916908373ffffffffffffffffffffffffffffffffffffffff16021790555060018201816001019080546001816001161561010002031660029004612c70929190614e3e565b5060028201816002019080546001816001161561010002031660029004612c98929190614e3e565b505050600f820181600f016000820160009054906101000a900473ffffffffffffffffffffffffffffffffffffffff168160000160006101000a81548173ffffffffffffffffffffffffffffffffffffffff021916908373ffffffffffffffffffffffffffffffffffffffff16021790555060018201816001019080546001816001161561010002031660029004612d31929190614e3e565b5060028201816002019080546001816001161561010002031660029004612d59929190614e3e565b5050505050507fb6589947d486bf61c31a4e6d2e81d4d2c93e7832fdda27f2492009b4755c29ed846040518082815260200191505060405180910390a150505050565b8060006008811115612daa57fe5b6003600083815260200190815260200160002060050160009054906101000a900460ff166008811115612dd957fe5b141515612de557600080fd5b612dee33610f22565b1515612df957600080fd5b336003600084815260200190815260200160002060090160000160006101000a81548173ffffffffffffffffffffffffffffffffffffffff021916908373ffffffffffffffffffffffffffffffffffffffff16021790555060016003600084815260200190815260200160002060050160006101000a81548160ff02191690836008811115612e8457fe5b02179055506004600083815260200190815260200160002060000160036000848152602001908152602001600020908060018154018082558091505090600182039060005260206000209060120201600090919290919091506000820160009054906101000a900473ffffffffffffffffffffffffffffffffffffffff168160000160006101000a81548173ffffffffffffffffffffffffffffffffffffffff021916908373ffffffffffffffffffffffffffffffffffffffff160217905550600182018160010160008201816000019080546001816001161561010002031660029004612f73929190614e3e565b50600182015481600101556002820154816002015560038201816003019080546001816001161561010002031660029004612faf929190614e3e565b5050506005820160009054906101000a900460ff168160050160006101000a81548160ff02191690836008811115612fe357fe5b021790555060068201816006016000820160009054906101000a900473ffffffffffffffffffffffffffffffffffffffff168160000160006101000a81548173ffffffffffffffffffffffffffffffffffffffff021916908373ffffffffffffffffffffffffffffffffffffffff1602179055506001820181600101908054600181600116156101000203166002900461307e929190614e3e565b50600282018160020190805460018160011615610100020316600290046130a6929190614e3e565b50505060098201816009016000820160009054906101000a900473ffffffffffffffffffffffffffffffffffffffff168160000160006101000a81548173ffffffffffffffffffffffffffffffffffffffff021916908373ffffffffffffffffffffffffffffffffffffffff1602179055506001820181600101908054600181600116156101000203166002900461313f929190614e3e565b5060028201816002019080546001816001161561010002031660029004613167929190614e3e565b505050600c820181600c016000820160009054906101000a900473ffffffffffffffffffffffffffffffffffffffff168160000160006101000a81548173ffffffffffffffffffffffffffffffffffffffff021916908373ffffffffffffffffffffffffffffffffffffffff16021790555060018201816001019080546001816001161561010002031660029004613200929190614e3e565b5060028201816002019080546001816001161561010002031660029004613228929190614e3e565b505050600f820181600f016000820160009054906101000a900473ffffffffffffffffffffffffffffffffffffffff168160000160006101000a81548173ffffffffffffffffffffffffffffffffffffffff021916908373ffffffffffffffffffffffffffffffffffffffff160217905550600182018160010190805460018160011615610100020316600290046132c1929190614e3e565b50600282018160020190805460018160011615610100020316600290046132e9929190614e3e565b5050505050507facd9402b9f9e8c15fa7c1819f8393ca56eb61316cc354fc6ac2150aed3ce7931826040518082815260200191505060405180910390a15050565b600160009054906101000a900473ffffffffffffffffffffffffffffffffffffffff1673ffffffffffffffffffffffffffffffffffffffff163373ffffffffffffffffffffffffffffffffffffffff1614151561338657600080fd5b61338f81610f22565b15151561339b57600080fd5b6001600260008373ffffffffffffffffffffffffffffffffffffffff1673ffffffffffffffffffffffffffffffffffffffff16815260200190815260200160002060000160016101000a81548160ff02191690831515021790555050565b806003600881111561340757fe5b6003600083815260200190815260200160002060050160009054906101000a900460ff16600881111561343657fe5b14151561344257600080fd5b61344b33611fbc565b151561345657600080fd5b3360036000848152602001908152602001600020600f0160000160006101000a81548173ffffffffffffffffffffffffffffffffffffffff021916908373ffffffffffffffffffffffffffffffffffffffff16021790555060046003600084815260200190815260200160002060050160006101000a81548160ff021916908360088111156134e157fe5b02179055506004600083815260200190815260200160002060000160036000848152602001908152602001600020908060018154018082558091505090600182039060005260206000209060120201600090919290919091506000820160009054906101000a900473ffffffffffffffffffffffffffffffffffffffff168160000160006101000a81548173ffffffffffffffffffffffffffffffffffffffff021916908373ffffffffffffffffffffffffffffffffffffffff1602179055506001820181600101600082018160000190805460018160011615610100020316600290046135d0929190614e3e565b5060018201548160010155600282015481600201556003820181600301908054600181600116156101000203166002900461360c929190614e3e565b5050506005820160009054906101000a900460ff168160050160006101000a81548160ff0219169083600881111561364057fe5b021790555060068201816006016000820160009054906101000a900473ffffffffffffffffffffffffffffffffffffffff168160000160006101000a81548173ffffffffffffffffffffffffffffffffffffffff021916908373ffffffffffffffffffffffffffffffffffffffff160217905550600182018160010190805460018160011615610100020316600290046136db929190614e3e565b5060028201816002019080546001816001161561010002031660029004613703929190614e3e565b50505060098201816009016000820160009054906101000a900473ffffffffffffffffffffffffffffffffffffffff168160000160006101000a81548173ffffffffffffffffffffffffffffffffffffffff021916908373ffffffffffffffffffffffffffffffffffffffff1602179055506001820181600101908054600181600116156101000203166002900461379c929190614e3e565b50600282018160020190805460018160011615610100020316600290046137c4929190614e3e565b505050600c820181600c016000820160009054906101000a900473ffffffffffffffffffffffffffffffffffffffff168160000160006101000a81548173ffffffffffffffffffffffffffffffffffffffff021916908373ffffffffffffffffffffffffffffffffffffffff1602179055506001820181600101908054600181600116156101000203166002900461385d929190614e3e565b5060028201816002019080546001816001161561010002031660029004613885929190614e3e565b505050600f820181600f016000820160009054906101000a900473ffffffffffffffffffffffffffffffffffffffff168160000160006101000a81548173ffffffffffffffffffffffffffffffffffffffff021916908373ffffffffffffffffffffffffffffffffffffffff1602179055506001820181600101908054600181600116156101000203166002900461391e929190614e3e565b5060028201816002019080546001816001161561010002031660029004613946929190614e3e565b5050505050507fda1b5272c78a876b6ee948dcb311f9d42ebabc9dd56c7c7a29798aaea34f62f8826040518082815260200191505060405180910390a15050565b61399033611f63565b151561399b57600080fd5b6139a3614ec5565b33816000019073ffffffffffffffffffffffffffffffffffffffff16908173ffffffffffffffffffffffffffffffffffffffff168152505060005481602001516020018181525050838160200151600001819052508281602001516040018181525050818160200151606001819052503381606001516000019073ffffffffffffffffffffffffffffffffffffffff16908173ffffffffffffffffffffffffffffffffffffffff16815250508581606001516020018190525084816060015160400181905250600081604001906008811115613a7b57fe5b90816008811115613a8857fe5b8152505080600360008054815260200190815260200160002060008201518160000160006101000a81548173ffffffffffffffffffffffffffffffffffffffff021916908373ffffffffffffffffffffffffffffffffffffffff1602179055506020820151816001016000820151816000019080519060200190613b0d929190614f43565b5060208201518160010155604082015181600201556060820151816003019080519060200190613b3e929190614f43565b50505060408201518160050160006101000a81548160ff02191690836008811115613b6557fe5b021790555060608201518160060160008201518160000160006101000a81548173ffffffffffffffffffffffffffffffffffffffff021916908373ffffffffffffffffffffffffffffffffffffffff1602179055506020820151816001019080519060200190613bd6929190614f43565b506040820151816002019080519060200190613bf3929190614f43565b50505060808201518160090160008201518160000160006101000a81548173ffffffffffffffffffffffffffffffffffffffff021916908373ffffffffffffffffffffffffffffffffffffffff1602179055506020820151816001019080519060200190613c62929190614f43565b506040820151816002019080519060200190613c7f929190614f43565b50505060a082015181600c0160008201518160000160006101000a81548173ffffffffffffffffffffffffffffffffffffffff021916908373ffffffffffffffffffffffffffffffffffffffff1602179055506020820151816001019080519060200190613cee929190614f43565b506040820151816002019080519060200190613d0b929190614f43565b50505060c082015181600f0160008201518160000160006101000a81548173ffffffffffffffffffffffffffffffffffffffff021916908373ffffffffffffffffffffffffffffffffffffffff1602179055506020820151816001019080519060200190613d7a929190614f43565b506040820151816002019080519060200190613d97929190614f43565b5050509050506004600080548152602001908152602001600020600001819080600181540180825580915050906001820390600052602060002090601202016000909192909190915060008201518160000160006101000a81548173ffffffffffffffffffffffffffffffffffffffff021916908373ffffffffffffffffffffffffffffffffffffffff1602179055506020820151816001016000820151816000019080519060200190613e4c929190614f43565b5060208201518160010155604082015181600201556060820151816003019080519060200190613e7d929190614f43565b50505060408201518160050160006101000a81548160ff02191690836008811115613ea457fe5b021790555060608201518160060160008201518160000160006101000a81548173ffffffffffffffffffffffffffffffffffffffff021916908373ffffffffffffffffffffffffffffffffffffffff1602179055506020820151816001019080519060200190613f15929190614f43565b506040820151816002019080519060200190613f32929190614f43565b50505060808201518160090160008201518160000160006101000a81548173ffffffffffffffffffffffffffffffffffffffff021916908373ffffffffffffffffffffffffffffffffffffffff1602179055506020820151816001019080519060200190613fa1929190614f43565b506040820151816002019080519060200190613fbe929190614f43565b50505060a082015181600c0160008201518160000160006101000a81548173ffffffffffffffffffffffffffffffffffffffff021916908373ffffffffffffffffffffffffffffffffffffffff160217905550602082015181600101908051906020019061402d929190614f43565b50604082015181600201908051906020019061404a929190614f43565b50505060c082015181600f0160008201518160000160006101000a81548173ffffffffffffffffffffffffffffffffffffffff021916908373ffffffffffffffffffffffffffffffffffffffff16021790555060208201518160010190805190602001906140b9929190614f43565b5060408201518160020190805190602001906140d6929190614f43565b5050505050507fd29d8a68ca7c8c74be5579719d445aabfe230ed6e6a83aff475a663500eb76096000546040518082815260200191505060405180910390a1600160005401600081905550505050505050565b6003600082815260200190815260200160002060000160009054906101000a900473ffffffffffffffffffffffffffffffffffffffff168073ffffffffffffffffffffffffffffffffffffffff163373ffffffffffffffffffffffffffffffffffffffff1614151561419a57600080fd5b6003600083815260200190815260200160002060090160000160009054906101000a900473ffffffffffffffffffffffffffffffffffffffff168073ffffffffffffffffffffffffffffffffffffffff163373ffffffffffffffffffffffffffffffffffffffff1614151561420e57600080fd5b61421733610f22565b151561422257600080fd5b60056003600085815260200190815260200160002060050160006101000a81548160ff0219169083600881111561425557fe5b02179055506004600084815260200190815260200160002060000160036000858152602001908152602001600020908060018154018082558091505090600182039060005260206000209060120201600090919290919091506000820160009054906101000a900473ffffffffffffffffffffffffffffffffffffffff168160000160006101000a81548173ffffffffffffffffffffffffffffffffffffffff021916908373ffffffffffffffffffffffffffffffffffffffff160217905550600182018160010160008201816000019080546001816001161561010002031660029004614344929190614e3e565b50600182015481600101556002820154816002015560038201816003019080546001816001161561010002031660029004614380929190614e3e565b5050506005820160009054906101000a900460ff168160050160006101000a81548160ff021916908360088111156143b457fe5b021790555060068201816006016000820160009054906101000a900473ffffffffffffffffffffffffffffffffffffffff168160000160006101000a81548173ffffffffffffffffffffffffffffffffffffffff021916908373ffffffffffffffffffffffffffffffffffffffff1602179055506001820181600101908054600181600116156101000203166002900461444f929190614e3e565b5060028201816002019080546001816001161561010002031660029004614477929190614e3e565b50505060098201816009016000820160009054906101000a900473ffffffffffffffffffffffffffffffffffffffff168160000160006101000a81548173ffffffffffffffffffffffffffffffffffffffff021916908373ffffffffffffffffffffffffffffffffffffffff16021790555060018201816001019080546001816001161561010002031660029004614510929190614e3e565b5060028201816002019080546001816001161561010002031660029004614538929190614e3e565b505050600c820181600c016000820160009054906101000a900473ffffffffffffffffffffffffffffffffffffffff168160000160006101000a81548173ffffffffffffffffffffffffffffffffffffffff021916908373ffffffffffffffffffffffffffffffffffffffff160217905550600182018160010190805460018160011615610100020316600290046145d1929190614e3e565b50600282018160020190805460018160011615610100020316600290046145f9929190614e3e565b505050600f820181600f016000820160009054906101000a900473ffffffffffffffffffffffffffffffffffffffff168160000160006101000a81548173ffffffffffffffffffffffffffffffffffffffff021916908373ffffffffffffffffffffffffffffffffffffffff16021790555060018201816001019080546001816001161561010002031660029004614692929190614e3e565b50600282018160020190805460018160011615610100020316600290046146ba929190614e3e565b5050505050507fc5c33776d405e5686e4386e1ef31a65cf6195e4f7ceb8808ab64d05b6ccbc2a6836040518082815260200191505060405180910390a1505050565b6000600260008373ffffffffffffffffffffffffffffffffffffffff1673ffffffffffffffffffffffffffffffffffffffff16815260200190815260200160002060000160029054906101000a900460ff169050919050565b60006003600083815260200190815260200160002060050160009054906101000a900460ff169050919050565b6003600082815260200190815260200160002060000160009054906101000a900473ffffffffffffffffffffffffffffffffffffffff168073ffffffffffffffffffffffffffffffffffffffff163373ffffffffffffffffffffffffffffffffffffffff161415156147f357600080fd5b6147fc33611f63565b151561480757600080fd5b60026003600084815260200190815260200160002060050160006101000a81548160ff0219169083600881111561483a57fe5b02179055506004600083815260200190815260200160002060000160036000848152602001908152602001600020908060018154018082558091505090600182039060005260206000209060120201600090919290919091506000820160009054906101000a900473ffffffffffffffffffffffffffffffffffffffff168160000160006101000a81548173ffffffffffffffffffffffffffffffffffffffff021916908373ffffffffffffffffffffffffffffffffffffffff160217905550600182018160010160008201816000019080546001816001161561010002031660029004614929929190614e3e565b50600182015481600101556002820154816002015560038201816003019080546001816001161561010002031660029004614965929190614e3e565b5050506005820160009054906101000a900460ff168160050160006101000a81548160ff0219169083600881111561499957fe5b021790555060068201816006016000820160009054906101000a900473ffffffffffffffffffffffffffffffffffffffff168160000160006101000a81548173ffffffffffffffffffffffffffffffffffffffff021916908373ffffffffffffffffffffffffffffffffffffffff16021790555060018201816001019080546001816001161561010002031660029004614a34929190614e3e565b5060028201816002019080546001816001161561010002031660029004614a5c929190614e3e565b50505060098201816009016000820160009054906101000a900473ffffffffffffffffffffffffffffffffffffffff168160000160006101000a81548173ffffffffffffffffffffffffffffffffffffffff021916908373ffffffffffffffffffffffffffffffffffffffff16021790555060018201816001019080546001816001161561010002031660029004614af5929190614e3e565b5060028201816002019080546001816001161561010002031660029004614b1d929190614e3e565b505050600c820181600c016000820160009054906101000a900473ffffffffffffffffffffffffffffffffffffffff168160000160006101000a81548173ffffffffffffffffffffffffffffffffffffffff021916908373ffffffffffffffffffffffffffffffffffffffff16021790555060018201816001019080546001816001161561010002031660029004614bb6929190614e3e565b5060028201816002019080546001816001161561010002031660029004614bde929190614e3e565b505050600f820181600f016000820160009054906101000a900473ffffffffffffffffffffffffffffffffffffffff168160000160006101000a81548173ffffffffffffffffffffffffffffffffffffffff021916908373ffffffffffffffffffffffffffffffffffffffff16021790555060018201816001019080546001816001161561010002031660029004614c77929190614e3e565b5060028201816002019080546001816001161561010002031660029004614c9f929190614e3e565b5050505050507f25727bef8a186dd95a062151451f2d651551b53124c18208d7653b1217ae31ba826040518082815260200191505060405180910390a15050565b60008054905090565b600160009054906101000a900473ffffffffffffffffffffffffffffffffffffffff1673ffffffffffffffffffffffffffffffffffffffff163373ffffffffffffffffffffffffffffffffffffffff16141515614d4557600080fd5b614d4e816146fc565b151515614d5a57600080fd5b6001600260008373ffffffffffffffffffffffffffffffffffffffff1673ffffffffffffffffffffffffffffffffffffffff16815260200190815260200160002060000160026101000a81548160ff02191690831515021790555050565b60005481565b828054600181600116156101000203166002900490600052602060002090601f016020900481019282601f10614dff57805160ff1916838001178555614e2d565b82800160010185558215614e2d579182015b82811115614e2c578251825591602001919060010190614e11565b5b509050614e3a9190614fc3565b5090565b828054600181600116156101000203166002900490600052602060002090601f016020900481019282601f10614e775780548555614eb4565b82800160010185558215614eb457600052602060002091601f016020900482015b82811115614eb3578254825591600101919060010190614e98565b5b509050614ec19190614fc3565b5090565b61024060405190810160405280600073ffffffffffffffffffffffffffffffffffffffff168152602001614ef7614fe8565b815260200160006008811115614f0957fe5b8152602001614f16615011565b8152602001614f23615049565b8152602001614f30615081565b8152602001614f3d6150b9565b81525090565b828054600181600116156101000203166002900490600052602060002090601f016020900481019282601f10614f8457805160ff1916838001178555614fb2565b82800160010185558215614fb2579182015b82811115614fb1578251825591602001919060010190614f96565b5b509050614fbf9190614fc3565b5090565b614fe591905b80821115614fe1576000816000905550600101614fc9565b5090565b90565b608060405190810160405280606081526020016000815260200160008152602001606081525090565b606060405190810160405280600073ffffffffffffffffffffffffffffffffffffffff16815260200160608152602001606081525090565b606060405190810160405280600073ffffffffffffffffffffffffffffffffffffffff16815260200160608152602001606081525090565b606060405190810160405280600073ffffffffffffffffffffffffffffffffffffffff16815260200160608152602001606081525090565b606060405190810160405280600073ffffffffffffffffffffffffffffffffffffffff1681526020016060815260200160608152509056fea165627a7a723058202e88cfa5d469a80def2a94c612523b2b806bc878a62845a2698045e5ced66be00029",
  "source": "// SPDX-License-Identifier: MIT\r\npragma solidity >=0.4.21 <8.10.0;\r\n\r\nimport \"./Structure.sol\";\r\n\r\ncontract SupplyChain {\r\n    uint256 public uid;\r\n    address owner;\r\n\r\n    mapping(address => Structure.Roles) roles;\r\n    mapping(uint256 => Structure.Product) products;\r\n    mapping(uint256 => Structure.ProductHistory) productHistory;\r\n\r\n    constructor() public {\r\n        owner = msg.sender;\r\n        uid = 1;\r\n    }\r\n\r\n    event Manufactured(uint256 uid);\r\n    event PurchasedByDistributor(uint256 uid);\r\n    event ShippedByManufacturer(uint256 uid);\r\n    event ReceivedByDistributor(uint256 uid);\r\n    event PurchasedByVaccinationCenter(uint256 uid);\r\n    event ShippedByDistributor(uint256 uid);\r\n    event ReceivedByDeliveryHub(uint256 uid);\r\n    event ShippedByDeliveryHub(uint256 uid);\r\n    event ReceivedByVaccinationCenter(uint256 uid);\r\n\r\n    function hasManufacturerRole(address _account) public view returns (bool) {\r\n        return roles[_account].Manufacturer;\r\n    }\r\n\r\n    function addManufacturerRole(address _account) public {\r\n        require(msg.sender == owner);\r\n        require(!hasManufacturerRole(_account));\r\n        roles[_account].Manufacturer = true;\r\n    }\r\n\r\n    function hasDistributorRole(address _account) public view returns (bool) {\r\n        return roles[_account].Distributor;\r\n    }\r\n\r\n    function addDistributorRole(address _account) public {\r\n        require(msg.sender == owner);\r\n        require(!hasDistributorRole(_account));\r\n        roles[_account].Distributor = true;\r\n    }\r\n\r\n    function hasDeliveryHubRole(address _account) public view returns (bool) {\r\n        return roles[_account].DeliveryHub;\r\n    }\r\n\r\n    function addDeliveryHubRole(address _account) public {\r\n        require(msg.sender == owner);\r\n        require(!hasDeliveryHubRole(_account));\r\n\r\n        roles[_account].DeliveryHub = true;\r\n    }\r\n\r\n    function hasVaccinationCenterRole(address _account)\r\n        public\r\n        view\r\n        returns (bool)\r\n    {\r\n        return roles[_account].VaccinationCenter;\r\n    }\r\n\r\n    function addVaccinationCenterRole(address _account) public {\r\n        require(msg.sender == owner);\r\n        require(!hasVaccinationCenterRole(_account));\r\n        roles[_account].VaccinationCenter = true;\r\n    }\r\n\r\n    modifier verifyAddress(address add) {\r\n        require(msg.sender == add);\r\n        _;\r\n    }\r\n\r\n    modifier manufactured(uint256 _uid) {\r\n        require(products[_uid].productState == Structure.State.Manufactured);\r\n        _;\r\n    }\r\n\r\n    modifier shippedByManufacturer(uint256 _uid) {\r\n        require(\r\n            products[_uid].productState == Structure.State.ShippedByManufacturer\r\n        );\r\n        _;\r\n    }\r\n\r\n    modifier receivedByDistributor(uint256 _uid) {\r\n        require(\r\n            products[_uid].productState == Structure.State.ReceivedByDistributor\r\n        );\r\n        _;\r\n    }\r\n\r\n    modifier purchasedByVaccinationCenter(uint256 _uid) {\r\n        require(\r\n            products[_uid].productState == Structure.State.PurchasedByVaccinationCenter\r\n        );\r\n        _;\r\n    }\r\n\r\n    modifier shippedByDistributor(uint256 _uid) {\r\n        require(\r\n            products[_uid].productState == Structure.State.ShippedByDistributor\r\n        );\r\n        _;\r\n    }\r\n\r\n    modifier receivedByDeliveryHub(uint256 _uid) {\r\n        require(\r\n            products[_uid].productState == Structure.State.ReceivedByDeliveryHub\r\n        );\r\n        _;\r\n    }\r\n\r\n    modifier shippedByDeliveryHub(uint256 _uid) {\r\n        require(\r\n            products[_uid].productState == Structure.State.ShippedByDeliveryHub\r\n        );\r\n        _;\r\n    }\r\n\r\n    modifier receivedByVaccinationCenter(uint256 _uid) {\r\n        require(\r\n            products[_uid].productState == Structure.State.ReceivedByVaccinationCenter\r\n        );\r\n        _;\r\n    }\r\n\r\n    // STEP 1 : Manufacture a product.\r\n    function manufactureProduct(\r\n        string memory manufacturerLongitude,\r\n        string memory manufacturerLatitude,\r\n        string memory productName,\r\n        uint256 productPrice,\r\n        string memory productCategory\r\n    ) public {\r\n        require(hasManufacturerRole(msg.sender));\r\n        Structure.Product memory product;\r\n        product.owner=msg.sender;\r\n        product.productdet.productid = uid;\r\n        product.productdet.productName = productName;\r\n        product.productdet.productPrice = productPrice;\r\n        product.productdet.productCategory = productCategory;\r\n        product.manufacturer.manufacturer = msg.sender;\r\n        product.manufacturer.manufacturerLongitude = manufacturerLongitude;\r\n        product.manufacturer.manufacturerLatitude = manufacturerLatitude;\r\n        product.productState = Structure.State.Manufactured;\r\n\r\n        products[uid] = product;\r\n\r\n        productHistory[uid].history.push(product);\r\n\r\n        emit Manufactured(uid);\r\n        uid = uid + 1;\r\n    }\r\n\r\n   // STEP 2 : Purchase of manufactured product by Distributor.\r\n    function purchaseByDistributor(uint256 _uid) public manufactured(_uid) {\r\n        require(hasDistributorRole((msg.sender)));\r\n        products[_uid].distributor.distributor = msg.sender;\r\n        products[_uid].productState = Structure.State.PurchasedByDistributor;\r\n        productHistory[_uid].history.push(products[_uid]);\r\n\r\n        emit PurchasedByDistributor(_uid);\r\n    }\r\n\r\n    // STEP 3 : Shipping of purchased product to Distributor.\r\n    function shipToDistributor(uint256 _uid)\r\n        public\r\n        verifyAddress(products[_uid].owner)\r\n    {\r\n        require(hasManufacturerRole(msg.sender));\r\n        products[_uid].productState = Structure.State.ShippedByManufacturer;\r\n        productHistory[_uid].history.push(products[_uid]);\r\n\r\n        emit ShippedByManufacturer(_uid);\r\n    }\r\n\r\n    // STEP 4 : Receive the purchased product shipped by Manufacturer.\r\n    function receiveByDistributor(\r\n        uint256 _uid,\r\n        string memory distributorLongitude,\r\n        string memory distributorLatitude\r\n    )\r\n        public\r\n        shippedByManufacturer(_uid)\r\n        verifyAddress(products[_uid].distributor.distributor)\r\n    {\r\n        require(hasDistributorRole(msg.sender));\r\n        products[_uid].owner = msg.sender;\r\n        products[_uid].distributor.distributorLongitude = distributorLongitude;\r\n        products[_uid].distributor.distributorLatitude = distributorLatitude;\r\n        products[_uid].productState = Structure.State.ReceivedByDistributor;\r\n        productHistory[_uid].history.push(products[_uid]);\r\n\r\n        emit ReceivedByDistributor(_uid);\r\n    }\r\n\r\n    // STEP 5 : Purchase of a product at Distributor by VaccinationCenter.\r\n    function purchaseByVaccinationCenter(uint256 _uid)\r\n        public\r\n        receivedByDistributor(_uid)\r\n    {\r\n        require(hasVaccinationCenterRole(msg.sender));\r\n        products[_uid].vaccinationcenter.vaccinationcenter = msg.sender;\r\n        products[_uid].productState = Structure.State.PurchasedByVaccinationCenter;\r\n        productHistory[_uid].history.push(products[_uid]);\r\n\r\n        emit PurchasedByVaccinationCenter(_uid);\r\n    }\r\n\r\n    // STEP 6 : Shipping of product by Distributor purchased by VaccinationCenter.\r\n    function shipByDistributor(uint256 _uid)\r\n        public\r\n        verifyAddress(products[_uid].owner)\r\n        verifyAddress(products[_uid].distributor.distributor)\r\n    {\r\n        require(hasDistributorRole(msg.sender));\r\n        products[_uid].productState = Structure.State.ShippedByDistributor;\r\n        productHistory[_uid].history.push(products[_uid]);\r\n\r\n        emit ShippedByDistributor(_uid);\r\n    }\r\n\r\n    // STEP 7 : Receiveing of product by delivery hub purchased by VaccinationCenter.\r\n    function receiveByDeliveryHub(\r\n        uint256 _uid,\r\n        string memory deliveryHubLongitude,\r\n        string memory deliveryHubLatitude\r\n    ) public shippedByDistributor(_uid) {\r\n        require(hasDeliveryHubRole(msg.sender));\r\n        products[_uid].owner = msg.sender;\r\n        products[_uid].deliveryhub.deliveryHub = msg.sender;\r\n        products[_uid].deliveryhub.deliveryHubLongitude = deliveryHubLongitude;\r\n        products[_uid].deliveryhub.deliveryHubLatitude = deliveryHubLatitude;\r\n        products[_uid].productState = Structure.State.ReceivedByDeliveryHub;\r\n        productHistory[_uid].history.push(products[_uid]);\r\n\r\n        emit ReceivedByDeliveryHub(_uid);\r\n    }\r\n\r\n    // STEP 8 : Shipping of product by delivery hub purchased by VaccinationCenter.\r\n    function shipByDeliveryHub(uint256 _uid)\r\n        public\r\n        receivedByDeliveryHub(_uid)\r\n        verifyAddress(products[_uid].owner)\r\n    {\r\n        require(hasDeliveryHubRole(msg.sender));\r\n        products[_uid].productState = Structure.State.ShippedByDeliveryHub;\r\n        productHistory[_uid].history.push(products[_uid]);\r\n\r\n        emit ShippedByDeliveryHub(_uid);\r\n    }\r\n\r\n    // STEP 9 : Receive the purchased product by VaccinationCenter.\r\n    function receiveByCustomer(\r\n        uint256 _uid,\r\n        string memory vaccinationcenterLongitude,\r\n        string memory vaccinationcenterLatitude\r\n        )\r\n        public\r\n        shippedByDeliveryHub(_uid)\r\n        verifyAddress(products[_uid].vaccinationcenter.vaccinationcenter)\r\n    {\r\n        require(hasVaccinationCenterRole(msg.sender));\r\n        products[_uid].owner = msg.sender;\r\n        products[_uid].vaccinationcenter.vaccinationcenterLongitude = vaccinationcenterLongitude;\r\n        products[_uid].vaccinationcenter.vaccinationcenterLatitude = vaccinationcenterLatitude;\r\n        products[_uid].productState = Structure.State.ReceivedByVaccinationCenter;\r\n        productHistory[_uid].history.push(products[_uid]);\r\n\r\n        emit ReceivedByVaccinationCenter(_uid);\r\n    }\r\n\r\n    function fetchProductCount() public view returns (uint256) {\r\n        return uid;\r\n    }\r\n\r\n    function fetchProductState(uint256 _uid) public view returns (Structure.State) {\r\n        return products[_uid].productState;\r\n    }\r\n\r\n    function fetchProduct(uint256 _uid) public view returns (uint256,\r\n    string memory,\r\n    uint256,\r\n    string memory,\r\n    address,\r\n    string memory,\r\n    string memory,\r\n    address\r\n    ) {\r\n        Structure.Product storage product = products[_uid];\r\n        return ( product.productdet.productid, product.productdet.productName, product.productdet.productPrice, product.productdet.productCategory, product.manufacturer.manufacturer,\r\n        product.manufacturer.manufacturerLongitude, product.manufacturer.manufacturerLatitude, product.distributor.distributor);\r\n    }\r\n\r\n}\r\n",
  "sourcePath": "C:/projects/Tejus Projects/Vaccine Distribution System/contracts/SupplyChain.sol",
  "compiler": {
    "name": "solc",
    "version": "0.5.0+commit.1d4f565a.Emscripten.clang"
  },
  "schemaVersion": "3.0.1",
  "updatedAt": "2022-02-20T09:50:08.276Z",
  "devdoc": {
    "methods": {}
  },
  "userdoc": {
    "methods": {}
  }
}