{
  "contractName": "SupplyChain",
  "abi": [
    {
      "inputs": [],
      "payable": false,
      "stateMutability": "nonpayable",
      "type": "constructor"
    },
    {
      "anonymous": false,
      "inputs": [
        {
          "indexed": false,
          "internalType": "uint256",
          "name": "uid",
          "type": "uint256"
        }
      ],
      "name": "Manufactured",
      "type": "event"
    },
    {
      "anonymous": false,
      "inputs": [
        {
          "indexed": false,
          "internalType": "uint256",
          "name": "uid",
          "type": "uint256"
        }
      ],
      "name": "PurchasedByDistributor",
      "type": "event"
    },
    {
      "anonymous": false,
      "inputs": [
        {
          "indexed": false,
          "internalType": "uint256",
          "name": "uid",
          "type": "uint256"
        }
      ],
      "name": "PurchasedByVaccinationCenter",
      "type": "event"
    },
    {
      "anonymous": false,
      "inputs": [
        {
          "indexed": false,
          "internalType": "uint256",
          "name": "uid",
          "type": "uint256"
        }
      ],
      "name": "ReceivedByDeliveryHub",
      "type": "event"
    },
    {
      "anonymous": false,
      "inputs": [
        {
          "indexed": false,
          "internalType": "uint256",
          "name": "uid",
          "type": "uint256"
        }
      ],
      "name": "ReceivedByDistributor",
      "type": "event"
    },
    {
      "anonymous": false,
      "inputs": [
        {
          "indexed": false,
          "internalType": "uint256",
          "name": "uid",
          "type": "uint256"
        }
      ],
      "name": "ReceivedByVaccinationCenter",
      "type": "event"
    },
    {
      "anonymous": false,
      "inputs": [
        {
          "indexed": false,
          "internalType": "uint256",
          "name": "uid",
          "type": "uint256"
        }
      ],
      "name": "ShippedByDeliveryHub",
      "type": "event"
    },
    {
      "anonymous": false,
      "inputs": [
        {
          "indexed": false,
          "internalType": "uint256",
          "name": "uid",
          "type": "uint256"
        }
      ],
      "name": "ShippedByDistributor",
      "type": "event"
    },
    {
      "anonymous": false,
      "inputs": [
        {
          "indexed": false,
          "internalType": "uint256",
          "name": "uid",
          "type": "uint256"
        }
      ],
      "name": "ShippedByManufacturer",
      "type": "event"
    },
    {
      "constant": true,
      "inputs": [],
      "name": "uid",
      "outputs": [
        {
          "internalType": "uint256",
          "name": "",
          "type": "uint256"
        }
      ],
      "payable": false,
      "stateMutability": "view",
      "type": "function"
    },
    {
      "constant": true,
      "inputs": [
        {
          "internalType": "address",
          "name": "_account",
          "type": "address"
        }
      ],
      "name": "hasManufacturerRole",
      "outputs": [
        {
          "internalType": "bool",
          "name": "",
          "type": "bool"
        }
      ],
      "payable": false,
      "stateMutability": "view",
      "type": "function"
    },
    {
      "constant": false,
      "inputs": [
        {
          "internalType": "address",
          "name": "_account",
          "type": "address"
        }
      ],
      "name": "addManufacturerRole",
      "outputs": [],
      "payable": false,
      "stateMutability": "nonpayable",
      "type": "function"
    },
    {
      "constant": true,
      "inputs": [
        {
          "internalType": "address",
          "name": "_account",
          "type": "address"
        }
      ],
      "name": "hasDistributorRole",
      "outputs": [
        {
          "internalType": "bool",
          "name": "",
          "type": "bool"
        }
      ],
      "payable": false,
      "stateMutability": "view",
      "type": "function"
    },
    {
      "constant": false,
      "inputs": [
        {
          "internalType": "address",
          "name": "_account",
          "type": "address"
        }
      ],
      "name": "addDistributorRole",
      "outputs": [],
      "payable": false,
      "stateMutability": "nonpayable",
      "type": "function"
    },
    {
      "constant": true,
      "inputs": [
        {
          "internalType": "address",
          "name": "_account",
          "type": "address"
        }
      ],
      "name": "hasDeliveryHubRole",
      "outputs": [
        {
          "internalType": "bool",
          "name": "",
          "type": "bool"
        }
      ],
      "payable": false,
      "stateMutability": "view",
      "type": "function"
    },
    {
      "constant": false,
      "inputs": [
        {
          "internalType": "address",
          "name": "_account",
          "type": "address"
        }
      ],
      "name": "addDeliveryHubRole",
      "outputs": [],
      "payable": false,
      "stateMutability": "nonpayable",
      "type": "function"
    },
    {
      "constant": true,
      "inputs": [
        {
          "internalType": "address",
          "name": "_account",
          "type": "address"
        }
      ],
      "name": "hasVaccinationCenterRole",
      "outputs": [
        {
          "internalType": "bool",
          "name": "",
          "type": "bool"
        }
      ],
      "payable": false,
      "stateMutability": "view",
      "type": "function"
    },
    {
      "constant": false,
      "inputs": [
        {
          "internalType": "address",
          "name": "_account",
          "type": "address"
        }
      ],
      "name": "addVaccinationCenterRole",
      "outputs": [],
      "payable": false,
      "stateMutability": "nonpayable",
      "type": "function"
    },
    {
      "constant": false,
      "inputs": [
        {
          "internalType": "string",
          "name": "productName",
          "type": "string"
        },
        {
          "internalType": "uint256",
          "name": "productPrice",
          "type": "uint256"
        },
        {
          "internalType": "string",
          "name": "productCategory",
          "type": "string"
        }
      ],
      "name": "manufactureProduct",
      "outputs": [],
      "payable": false,
      "stateMutability": "nonpayable",
      "type": "function"
    },
    {
      "constant": false,
      "inputs": [
        {
          "internalType": "uint256",
          "name": "_uid",
          "type": "uint256"
        }
      ],
      "name": "purchaseByDistributor",
      "outputs": [],
      "payable": false,
      "stateMutability": "nonpayable",
      "type": "function"
    },
    {
      "constant": false,
      "inputs": [
        {
          "internalType": "uint256",
          "name": "_uid",
          "type": "uint256"
        }
      ],
      "name": "shipToDistributor",
      "outputs": [],
      "payable": false,
      "stateMutability": "nonpayable",
      "type": "function"
    },
    {
      "constant": false,
      "inputs": [
        {
          "internalType": "uint256",
          "name": "_uid",
          "type": "uint256"
        }
      ],
      "name": "receiveByDistributor",
      "outputs": [],
      "payable": false,
      "stateMutability": "nonpayable",
      "type": "function"
    },
    {
      "constant": false,
      "inputs": [
        {
          "internalType": "uint256",
          "name": "_uid",
          "type": "uint256"
        }
      ],
      "name": "purchaseByVaccinationCenter",
      "outputs": [],
      "payable": false,
      "stateMutability": "nonpayable",
      "type": "function"
    },
    {
      "constant": false,
      "inputs": [
        {
          "internalType": "uint256",
          "name": "_uid",
          "type": "uint256"
        }
      ],
      "name": "shipByDistributor",
      "outputs": [],
      "payable": false,
      "stateMutability": "nonpayable",
      "type": "function"
    },
    {
      "constant": false,
      "inputs": [
        {
          "internalType": "uint256",
          "name": "_uid",
          "type": "uint256"
        }
      ],
      "name": "receiveByDeliveryHub",
      "outputs": [],
      "payable": false,
      "stateMutability": "nonpayable",
      "type": "function"
    },
    {
      "constant": false,
      "inputs": [
        {
          "internalType": "uint256",
          "name": "_uid",
          "type": "uint256"
        }
      ],
      "name": "shipByDeliveryHub",
      "outputs": [],
      "payable": false,
      "stateMutability": "nonpayable",
      "type": "function"
    },
    {
      "constant": false,
      "inputs": [
        {
          "internalType": "uint256",
          "name": "_uid",
          "type": "uint256"
        }
      ],
      "name": "receiveByCustomer",
      "outputs": [],
      "payable": false,
      "stateMutability": "nonpayable",
      "type": "function"
    },
    {
      "constant": true,
      "inputs": [],
      "name": "fetchProductCount",
      "outputs": [
        {
          "internalType": "uint256",
          "name": "",
          "type": "uint256"
        }
      ],
      "payable": false,
      "stateMutability": "view",
      "type": "function"
    },
    {
      "constant": true,
      "inputs": [
        {
          "internalType": "uint256",
          "name": "_uid",
          "type": "uint256"
        }
      ],
      "name": "fetchProductState",
      "outputs": [
        {
          "internalType": "enum Structure.State",
          "name": "",
          "type": "uint8"
        }
      ],
      "payable": false,
      "stateMutability": "view",
      "type": "function"
    },
    {
      "constant": true,
      "inputs": [
        {
          "internalType": "uint256",
          "name": "_uid",
          "type": "uint256"
        }
      ],
      "name": "fetchProduct",
      "outputs": [
        {
          "internalType": "address",
          "name": "",
          "type": "address"
        },
        {
          "internalType": "uint256",
          "name": "",
          "type": "uint256"
        },
        {
          "internalType": "string",
          "name": "",
          "type": "string"
        },
        {
          "internalType": "uint256",
          "name": "",
          "type": "uint256"
        },
        {
          "internalType": "string",
          "name": "",
          "type": "string"
        },
        {
          "internalType": "enum Structure.State",
          "name": "",
          "type": "uint8"
        },
        {
          "internalType": "address",
          "name": "",
          "type": "address"
        },
        {
          "internalType": "address",
          "name": "",
          "type": "address"
        },
        {
          "internalType": "address",
          "name": "",
          "type": "address"
        },
        {
          "internalType": "address",
          "name": "",
          "type": "address"
        }
      ],
      "payable": false,
      "stateMutability": "view",
      "type": "function"
    }
  ],
  "bytecode": "0x608060405234801561001057600080fd5b5033600160006101000a81548173ffffffffffffffffffffffffffffffffffffffff021916908373ffffffffffffffffffffffffffffffffffffffff160217905550600160008190555061489f806100696000396000f3fe608060405234801561001057600080fd5b50600436106101375760003560e01c806390d75b37116100b8578063d44bebcc1161007c578063d44bebcc146107ef578063e2f1fe141461084b578063e35d76ce1461089b578063f16791b3146108c9578063f4121b67146108e7578063f514ce361461092b57610137565b806390d75b37146106f3578063a8a7acad14610721578063ad12770d14610765578063cbd29ab614610793578063cf86dee7146107c157610137565b80636971d383116100ff5780636971d383146105b35780636cf07e241461060f57806372df397e1461063d5780637c7507c41461066b5780638290f859146106af57610137565b806302d82c551461013c57806303ea0b5a1461016a5780630cb28a53146101c6578063438c02e7146103fb5780636000ada114610557575b600080fd5b6101686004803603602081101561015257600080fd5b8101908080359060200190929190505050610949565b005b6101ac6004803603602081101561018057600080fd5b81019080803573ffffffffffffffffffffffffffffffffffffffff169060200190929190505050610f42565b604051808215151515815260200191505060405180910390f35b6101f2600480360360208110156101dc57600080fd5b8101908080359060200190929190505050610f9b565b604051808b73ffffffffffffffffffffffffffffffffffffffff1673ffffffffffffffffffffffffffffffffffffffff1681526020018a8152602001806020018981526020018060200188600881111561024857fe5b60ff1681526020018773ffffffffffffffffffffffffffffffffffffffff1673ffffffffffffffffffffffffffffffffffffffff1681526020018673ffffffffffffffffffffffffffffffffffffffff1673ffffffffffffffffffffffffffffffffffffffff1681526020018573ffffffffffffffffffffffffffffffffffffffff1673ffffffffffffffffffffffffffffffffffffffff1681526020018473ffffffffffffffffffffffffffffffffffffffff1673ffffffffffffffffffffffffffffffffffffffff16815260200183810383528b818151815260200191508051906020019080838360005b83811015610350578082015181840152602081019050610335565b50505050905090810190601f16801561037d5780820380516001836020036101000a031916815260200191505b50838103825289818151815260200191508051906020019080838360005b838110156103b657808201518184015260208101905061039b565b50505050905090810190601f1680156103e35780820380516001836020036101000a031916815260200191505b509c5050505050505050505050505060405180910390f35b6105556004803603606081101561041157600080fd5b810190808035906020019064010000000081111561042e57600080fd5b82018360208201111561044057600080fd5b8035906020019184600183028401116401000000008311171561046257600080fd5b91908080601f016020809104026020016040519081016040528093929190818152602001838380828437600081840152601f19601f82011690508083019250505050505050919291929080359060200190929190803590602001906401000000008111156104cf57600080fd5b8201836020820111156104e157600080fd5b8035906020019184600183028401116401000000008311171561050357600080fd5b91908080601f016020809104026020016040519081016040528093929190818152602001838380828437600081840152601f19601f820116905080830192505050505050509192919290505050611211565b005b6105996004803603602081101561056d57600080fd5b81019080803573ffffffffffffffffffffffffffffffffffffffff169060200190929190505050611995565b604051808215151515815260200191505060405180910390f35b6105f5600480360360208110156105c957600080fd5b81019080803573ffffffffffffffffffffffffffffffffffffffff1690602001909291905050506119ee565b604051808215151515815260200191505060405180910390f35b61063b6004803603602081101561062557600080fd5b8101908080359060200190929190505050611a47565b005b6106696004803603602081101561065357600080fd5b8101908080359060200190929190505050611fe9565b005b6106ad6004803603602081101561068157600080fd5b81019080803573ffffffffffffffffffffffffffffffffffffffff1690602001909291905050506125e3565b005b6106f1600480360360208110156106c557600080fd5b81019080803573ffffffffffffffffffffffffffffffffffffffff1690602001909291905050506126ae565b005b61071f6004803603602081101561070957600080fd5b8101908080359060200190929190505050612779565b005b6107636004803603602081101561073757600080fd5b81019080803573ffffffffffffffffffffffffffffffffffffffff169060200190929190505050612d03565b005b6107916004803603602081101561077b57600080fd5b8101908080359060200190929190505050612dce565b005b6107bf600480360360208110156107a957600080fd5b8101908080359060200190929190505050613358565b005b6107ed600480360360208110156107d757600080fd5b8101908080359060200190929190505050613937565b005b6108316004803603602081101561080557600080fd5b81019080803573ffffffffffffffffffffffffffffffffffffffff169060200190929190505050613f04565b604051808215151515815260200191505060405180910390f35b6108776004803603602081101561086157600080fd5b8101908080359060200190929190505050613f5d565b6040518082600881111561088757fe5b60ff16815260200191505060405180910390f35b6108c7600480360360208110156108b157600080fd5b8101908080359060200190929190505050613f8a565b005b6108d16144e4565b6040518082815260200191505060405180910390f35b610929600480360360208110156108fd57600080fd5b81019080803573ffffffffffffffffffffffffffffffffffffffff1690602001909291905050506144ed565b005b6109336145b8565b6040518082815260200191505060405180910390f35b806002600881111561095757fe5b6003600083815260200190815260200160002060050160009054906101000a900460ff16600881111561098657fe5b1461099057600080fd5b6003600083815260200190815260200160002060090160000160009054906101000a900473ffffffffffffffffffffffffffffffffffffffff168073ffffffffffffffffffffffffffffffffffffffff163373ffffffffffffffffffffffffffffffffffffffff1614610a0257600080fd5b610a0b33610f42565b610a1457600080fd5b336003600085815260200190815260200160002060000160006101000a81548173ffffffffffffffffffffffffffffffffffffffff021916908373ffffffffffffffffffffffffffffffffffffffff160217905550600380600085815260200190815260200160002060050160006101000a81548160ff02191690836008811115610a9b57fe5b02179055506004600084815260200190815260200160002060000160036000858152602001908152602001600020908060018154018082558091505090600182039060005260206000209060120201600090919290919091506000820160009054906101000a900473ffffffffffffffffffffffffffffffffffffffff168160000160006101000a81548173ffffffffffffffffffffffffffffffffffffffff021916908373ffffffffffffffffffffffffffffffffffffffff160217905550600182018160010160008201816000019080546001816001161561010002031660029004610b8a9291906145be565b50600182015481600101556002820154816002015560038201816003019080546001816001161561010002031660029004610bc69291906145be565b5050506005820160009054906101000a900460ff168160050160006101000a81548160ff02191690836008811115610bfa57fe5b021790555060068201816006016000820160009054906101000a900473ffffffffffffffffffffffffffffffffffffffff168160000160006101000a81548173ffffffffffffffffffffffffffffffffffffffff021916908373ffffffffffffffffffffffffffffffffffffffff16021790555060018201816001019080546001816001161561010002031660029004610c959291906145be565b5060028201816002019080546001816001161561010002031660029004610cbd9291906145be565b50505060098201816009016000820160009054906101000a900473ffffffffffffffffffffffffffffffffffffffff168160000160006101000a81548173ffffffffffffffffffffffffffffffffffffffff021916908373ffffffffffffffffffffffffffffffffffffffff16021790555060018201816001019080546001816001161561010002031660029004610d569291906145be565b5060028201816002019080546001816001161561010002031660029004610d7e9291906145be565b505050600c820181600c016000820160009054906101000a900473ffffffffffffffffffffffffffffffffffffffff168160000160006101000a81548173ffffffffffffffffffffffffffffffffffffffff021916908373ffffffffffffffffffffffffffffffffffffffff16021790555060018201816001019080546001816001161561010002031660029004610e179291906145be565b5060028201816002019080546001816001161561010002031660029004610e3f9291906145be565b505050600f820181600f016000820160009054906101000a900473ffffffffffffffffffffffffffffffffffffffff168160000160006101000a81548173ffffffffffffffffffffffffffffffffffffffff021916908373ffffffffffffffffffffffffffffffffffffffff16021790555060018201816001019080546001816001161561010002031660029004610ed89291906145be565b5060028201816002019080546001816001161561010002031660029004610f009291906145be565b5050505050507fc8ca2150e6e1849a10ef5aa4932060fa353bcacdffeb150c9e1890c6ab9403cc836040518082815260200191505060405180910390a1505050565b6000600260008373ffffffffffffffffffffffffffffffffffffffff1673ffffffffffffffffffffffffffffffffffffffff16815260200190815260200160002060000160019054906101000a900460ff169050919050565b600080606060006060600080600080600080600360008d815260200190815260200160002090508060000160009054906101000a900473ffffffffffffffffffffffffffffffffffffffff168160010160010154826001016000018360010160020154846001016003018560050160009054906101000a900460ff168660060160000160009054906101000a900473ffffffffffffffffffffffffffffffffffffffff168760090160000160009054906101000a900473ffffffffffffffffffffffffffffffffffffffff1688600c0160000160009054906101000a900473ffffffffffffffffffffffffffffffffffffffff1689600f0160000160009054906101000a900473ffffffffffffffffffffffffffffffffffffffff16878054600181600116156101000203166002900480601f01602080910402602001604051908101604052809291908181526020018280546001816001161561010002031660029004801561114c5780601f106111215761010080835404028352916020019161114c565b820191906000526020600020905b81548152906001019060200180831161112f57829003601f168201915b50505050509750858054600181600116156101000203166002900480601f0160208091040260200160405190810160405280929190818152602001828054600181600116156101000203166002900480156111e85780601f106111bd576101008083540402835291602001916111e8565b820191906000526020600020905b8154815290600101906020018083116111cb57829003601f168201915b505050505095509a509a509a509a509a509a509a509a509a509a50509193959799509193959799565b61121a33611995565b61122357600080fd5b61122b614645565b33816000019073ffffffffffffffffffffffffffffffffffffffff16908173ffffffffffffffffffffffffffffffffffffffff168152505060005481602001516020018181525050838160200151600001819052508281602001516040018181525050818160200151606001819052503381606001516000019073ffffffffffffffffffffffffffffffffffffffff16908173ffffffffffffffffffffffffffffffffffffffff16815250506000816040019060088111156112e957fe5b908160088111156112f657fe5b8152505080600360008054815260200190815260200160002060008201518160000160006101000a81548173ffffffffffffffffffffffffffffffffffffffff021916908373ffffffffffffffffffffffffffffffffffffffff160217905550602082015181600101600082015181600001908051906020019061137b9291906146c1565b50602082015181600101556040820151816002015560608201518160030190805190602001906113ac9291906146c1565b50505060408201518160050160006101000a81548160ff021916908360088111156113d357fe5b021790555060608201518160060160008201518160000160006101000a81548173ffffffffffffffffffffffffffffffffffffffff021916908373ffffffffffffffffffffffffffffffffffffffff16021790555060208201518160010190805190602001906114449291906146c1565b5060408201518160020190805190602001906114619291906146c1565b50505060808201518160090160008201518160000160006101000a81548173ffffffffffffffffffffffffffffffffffffffff021916908373ffffffffffffffffffffffffffffffffffffffff16021790555060208201518160010190805190602001906114d09291906146c1565b5060408201518160020190805190602001906114ed9291906146c1565b50505060a082015181600c0160008201518160000160006101000a81548173ffffffffffffffffffffffffffffffffffffffff021916908373ffffffffffffffffffffffffffffffffffffffff160217905550602082015181600101908051906020019061155c9291906146c1565b5060408201518160020190805190602001906115799291906146c1565b50505060c082015181600f0160008201518160000160006101000a81548173ffffffffffffffffffffffffffffffffffffffff021916908373ffffffffffffffffffffffffffffffffffffffff16021790555060208201518160010190805190602001906115e89291906146c1565b5060408201518160020190805190602001906116059291906146c1565b5050509050506004600080548152602001908152602001600020600001819080600181540180825580915050906001820390600052602060002090601202016000909192909190915060008201518160000160006101000a81548173ffffffffffffffffffffffffffffffffffffffff021916908373ffffffffffffffffffffffffffffffffffffffff16021790555060208201518160010160008201518160000190805190602001906116ba9291906146c1565b50602082015181600101556040820151816002015560608201518160030190805190602001906116eb9291906146c1565b50505060408201518160050160006101000a81548160ff0219169083600881111561171257fe5b021790555060608201518160060160008201518160000160006101000a81548173ffffffffffffffffffffffffffffffffffffffff021916908373ffffffffffffffffffffffffffffffffffffffff16021790555060208201518160010190805190602001906117839291906146c1565b5060408201518160020190805190602001906117a09291906146c1565b50505060808201518160090160008201518160000160006101000a81548173ffffffffffffffffffffffffffffffffffffffff021916908373ffffffffffffffffffffffffffffffffffffffff160217905550602082015181600101908051906020019061180f9291906146c1565b50604082015181600201908051906020019061182c9291906146c1565b50505060a082015181600c0160008201518160000160006101000a81548173ffffffffffffffffffffffffffffffffffffffff021916908373ffffffffffffffffffffffffffffffffffffffff160217905550602082015181600101908051906020019061189b9291906146c1565b5060408201518160020190805190602001906118b89291906146c1565b50505060c082015181600f0160008201518160000160006101000a81548173ffffffffffffffffffffffffffffffffffffffff021916908373ffffffffffffffffffffffffffffffffffffffff16021790555060208201518160010190805190602001906119279291906146c1565b5060408201518160020190805190602001906119449291906146c1565b5050505050507fd29d8a68ca7c8c74be5579719d445aabfe230ed6e6a83aff475a663500eb76096000546040518082815260200191505060405180910390a160016000540160008190555050505050565b6000600260008373ffffffffffffffffffffffffffffffffffffffff1673ffffffffffffffffffffffffffffffffffffffff16815260200190815260200160002060000160009054906101000a900460ff169050919050565b6000600260008373ffffffffffffffffffffffffffffffffffffffff1673ffffffffffffffffffffffffffffffffffffffff16815260200190815260200160002060000160039054906101000a900460ff169050919050565b8060066008811115611a5557fe5b6003600083815260200190815260200160002060050160009054906101000a900460ff166008811115611a8457fe5b14611a8e57600080fd5b6003600083815260200190815260200160002060000160009054906101000a900473ffffffffffffffffffffffffffffffffffffffff168073ffffffffffffffffffffffffffffffffffffffff163373ffffffffffffffffffffffffffffffffffffffff1614611afd57600080fd5b611b0633613f04565b611b0f57600080fd5b60076003600085815260200190815260200160002060050160006101000a81548160ff02191690836008811115611b4257fe5b02179055506004600084815260200190815260200160002060000160036000858152602001908152602001600020908060018154018082558091505090600182039060005260206000209060120201600090919290919091506000820160009054906101000a900473ffffffffffffffffffffffffffffffffffffffff168160000160006101000a81548173ffffffffffffffffffffffffffffffffffffffff021916908373ffffffffffffffffffffffffffffffffffffffff160217905550600182018160010160008201816000019080546001816001161561010002031660029004611c319291906145be565b50600182015481600101556002820154816002015560038201816003019080546001816001161561010002031660029004611c6d9291906145be565b5050506005820160009054906101000a900460ff168160050160006101000a81548160ff02191690836008811115611ca157fe5b021790555060068201816006016000820160009054906101000a900473ffffffffffffffffffffffffffffffffffffffff168160000160006101000a81548173ffffffffffffffffffffffffffffffffffffffff021916908373ffffffffffffffffffffffffffffffffffffffff16021790555060018201816001019080546001816001161561010002031660029004611d3c9291906145be565b5060028201816002019080546001816001161561010002031660029004611d649291906145be565b50505060098201816009016000820160009054906101000a900473ffffffffffffffffffffffffffffffffffffffff168160000160006101000a81548173ffffffffffffffffffffffffffffffffffffffff021916908373ffffffffffffffffffffffffffffffffffffffff16021790555060018201816001019080546001816001161561010002031660029004611dfd9291906145be565b5060028201816002019080546001816001161561010002031660029004611e259291906145be565b505050600c820181600c016000820160009054906101000a900473ffffffffffffffffffffffffffffffffffffffff168160000160006101000a81548173ffffffffffffffffffffffffffffffffffffffff021916908373ffffffffffffffffffffffffffffffffffffffff16021790555060018201816001019080546001816001161561010002031660029004611ebe9291906145be565b5060028201816002019080546001816001161561010002031660029004611ee69291906145be565b505050600f820181600f016000820160009054906101000a900473ffffffffffffffffffffffffffffffffffffffff168160000160006101000a81548173ffffffffffffffffffffffffffffffffffffffff021916908373ffffffffffffffffffffffffffffffffffffffff16021790555060018201816001019080546001816001161561010002031660029004611f7f9291906145be565b5060028201816002019080546001816001161561010002031660029004611fa79291906145be565b5050505050507f9a96442e96ac96ba57e48273f290bf3bb9c6b0b2c86843cc4bf2353119918fdf836040518082815260200191505060405180910390a1505050565b8060076008811115611ff757fe5b6003600083815260200190815260200160002060050160009054906101000a900460ff16600881111561202657fe5b1461203057600080fd5b60036000838152602001908152602001600020600f0160000160009054906101000a900473ffffffffffffffffffffffffffffffffffffffff168073ffffffffffffffffffffffffffffffffffffffff163373ffffffffffffffffffffffffffffffffffffffff16146120a257600080fd5b6120ab336119ee565b6120b457600080fd5b336003600085815260200190815260200160002060000160006101000a81548173ffffffffffffffffffffffffffffffffffffffff021916908373ffffffffffffffffffffffffffffffffffffffff16021790555060086003600085815260200190815260200160002060050160006101000a81548160ff0219169083600881111561213c57fe5b02179055506004600084815260200190815260200160002060000160036000858152602001908152602001600020908060018154018082558091505090600182039060005260206000209060120201600090919290919091506000820160009054906101000a900473ffffffffffffffffffffffffffffffffffffffff168160000160006101000a81548173ffffffffffffffffffffffffffffffffffffffff021916908373ffffffffffffffffffffffffffffffffffffffff16021790555060018201816001016000820181600001908054600181600116156101000203166002900461222b9291906145be565b506001820154816001015560028201548160020155600382018160030190805460018160011615610100020316600290046122679291906145be565b5050506005820160009054906101000a900460ff168160050160006101000a81548160ff0219169083600881111561229b57fe5b021790555060068201816006016000820160009054906101000a900473ffffffffffffffffffffffffffffffffffffffff168160000160006101000a81548173ffffffffffffffffffffffffffffffffffffffff021916908373ffffffffffffffffffffffffffffffffffffffff160217905550600182018160010190805460018160011615610100020316600290046123369291906145be565b506002820181600201908054600181600116156101000203166002900461235e9291906145be565b50505060098201816009016000820160009054906101000a900473ffffffffffffffffffffffffffffffffffffffff168160000160006101000a81548173ffffffffffffffffffffffffffffffffffffffff021916908373ffffffffffffffffffffffffffffffffffffffff160217905550600182018160010190805460018160011615610100020316600290046123f79291906145be565b506002820181600201908054600181600116156101000203166002900461241f9291906145be565b505050600c820181600c016000820160009054906101000a900473ffffffffffffffffffffffffffffffffffffffff168160000160006101000a81548173ffffffffffffffffffffffffffffffffffffffff021916908373ffffffffffffffffffffffffffffffffffffffff160217905550600182018160010190805460018160011615610100020316600290046124b89291906145be565b50600282018160020190805460018160011615610100020316600290046124e09291906145be565b505050600f820181600f016000820160009054906101000a900473ffffffffffffffffffffffffffffffffffffffff168160000160006101000a81548173ffffffffffffffffffffffffffffffffffffffff021916908373ffffffffffffffffffffffffffffffffffffffff160217905550600182018160010190805460018160011615610100020316600290046125799291906145be565b50600282018160020190805460018160011615610100020316600290046125a19291906145be565b5050505050507faeafd725bf462493136b40ed95631fe00d2c8ee209d1631e376845207386e147836040518082815260200191505060405180910390a1505050565b600160009054906101000a900473ffffffffffffffffffffffffffffffffffffffff1673ffffffffffffffffffffffffffffffffffffffff163373ffffffffffffffffffffffffffffffffffffffff161461263d57600080fd5b612646816119ee565b1561265057600080fd5b6001600260008373ffffffffffffffffffffffffffffffffffffffff1673ffffffffffffffffffffffffffffffffffffffff16815260200190815260200160002060000160036101000a81548160ff02191690831515021790555050565b600160009054906101000a900473ffffffffffffffffffffffffffffffffffffffff1673ffffffffffffffffffffffffffffffffffffffff163373ffffffffffffffffffffffffffffffffffffffff161461270857600080fd5b61271181611995565b1561271b57600080fd5b6001600260008373ffffffffffffffffffffffffffffffffffffffff1673ffffffffffffffffffffffffffffffffffffffff16815260200190815260200160002060000160006101000a81548160ff02191690831515021790555050565b806000600881111561278757fe5b6003600083815260200190815260200160002060050160009054906101000a900460ff1660088111156127b657fe5b146127c057600080fd5b6127c933610f42565b6127d257600080fd5b336003600084815260200190815260200160002060090160000160006101000a81548173ffffffffffffffffffffffffffffffffffffffff021916908373ffffffffffffffffffffffffffffffffffffffff16021790555060016003600084815260200190815260200160002060050160006101000a81548160ff0219169083600881111561285d57fe5b02179055506004600083815260200190815260200160002060000160036000848152602001908152602001600020908060018154018082558091505090600182039060005260206000209060120201600090919290919091506000820160009054906101000a900473ffffffffffffffffffffffffffffffffffffffff168160000160006101000a81548173ffffffffffffffffffffffffffffffffffffffff021916908373ffffffffffffffffffffffffffffffffffffffff16021790555060018201816001016000820181600001908054600181600116156101000203166002900461294c9291906145be565b506001820154816001015560028201548160020155600382018160030190805460018160011615610100020316600290046129889291906145be565b5050506005820160009054906101000a900460ff168160050160006101000a81548160ff021916908360088111156129bc57fe5b021790555060068201816006016000820160009054906101000a900473ffffffffffffffffffffffffffffffffffffffff168160000160006101000a81548173ffffffffffffffffffffffffffffffffffffffff021916908373ffffffffffffffffffffffffffffffffffffffff16021790555060018201816001019080546001816001161561010002031660029004612a579291906145be565b5060028201816002019080546001816001161561010002031660029004612a7f9291906145be565b50505060098201816009016000820160009054906101000a900473ffffffffffffffffffffffffffffffffffffffff168160000160006101000a81548173ffffffffffffffffffffffffffffffffffffffff021916908373ffffffffffffffffffffffffffffffffffffffff16021790555060018201816001019080546001816001161561010002031660029004612b189291906145be565b5060028201816002019080546001816001161561010002031660029004612b409291906145be565b505050600c820181600c016000820160009054906101000a900473ffffffffffffffffffffffffffffffffffffffff168160000160006101000a81548173ffffffffffffffffffffffffffffffffffffffff021916908373ffffffffffffffffffffffffffffffffffffffff16021790555060018201816001019080546001816001161561010002031660029004612bd99291906145be565b5060028201816002019080546001816001161561010002031660029004612c019291906145be565b505050600f820181600f016000820160009054906101000a900473ffffffffffffffffffffffffffffffffffffffff168160000160006101000a81548173ffffffffffffffffffffffffffffffffffffffff021916908373ffffffffffffffffffffffffffffffffffffffff16021790555060018201816001019080546001816001161561010002031660029004612c9a9291906145be565b5060028201816002019080546001816001161561010002031660029004612cc29291906145be565b5050505050507facd9402b9f9e8c15fa7c1819f8393ca56eb61316cc354fc6ac2150aed3ce7931826040518082815260200191505060405180910390a15050565b600160009054906101000a900473ffffffffffffffffffffffffffffffffffffffff1673ffffffffffffffffffffffffffffffffffffffff163373ffffffffffffffffffffffffffffffffffffffff1614612d5d57600080fd5b612d6681610f42565b15612d7057600080fd5b6001600260008373ffffffffffffffffffffffffffffffffffffffff1673ffffffffffffffffffffffffffffffffffffffff16815260200190815260200160002060000160016101000a81548160ff02191690831515021790555050565b8060036008811115612ddc57fe5b6003600083815260200190815260200160002060050160009054906101000a900460ff166008811115612e0b57fe5b14612e1557600080fd5b612e1e336119ee565b612e2757600080fd5b3360036000848152602001908152602001600020600f0160000160006101000a81548173ffffffffffffffffffffffffffffffffffffffff021916908373ffffffffffffffffffffffffffffffffffffffff16021790555060046003600084815260200190815260200160002060050160006101000a81548160ff02191690836008811115612eb257fe5b02179055506004600083815260200190815260200160002060000160036000848152602001908152602001600020908060018154018082558091505090600182039060005260206000209060120201600090919290919091506000820160009054906101000a900473ffffffffffffffffffffffffffffffffffffffff168160000160006101000a81548173ffffffffffffffffffffffffffffffffffffffff021916908373ffffffffffffffffffffffffffffffffffffffff160217905550600182018160010160008201816000019080546001816001161561010002031660029004612fa19291906145be565b50600182015481600101556002820154816002015560038201816003019080546001816001161561010002031660029004612fdd9291906145be565b5050506005820160009054906101000a900460ff168160050160006101000a81548160ff0219169083600881111561301157fe5b021790555060068201816006016000820160009054906101000a900473ffffffffffffffffffffffffffffffffffffffff168160000160006101000a81548173ffffffffffffffffffffffffffffffffffffffff021916908373ffffffffffffffffffffffffffffffffffffffff160217905550600182018160010190805460018160011615610100020316600290046130ac9291906145be565b50600282018160020190805460018160011615610100020316600290046130d49291906145be565b50505060098201816009016000820160009054906101000a900473ffffffffffffffffffffffffffffffffffffffff168160000160006101000a81548173ffffffffffffffffffffffffffffffffffffffff021916908373ffffffffffffffffffffffffffffffffffffffff1602179055506001820181600101908054600181600116156101000203166002900461316d9291906145be565b50600282018160020190805460018160011615610100020316600290046131959291906145be565b505050600c820181600c016000820160009054906101000a900473ffffffffffffffffffffffffffffffffffffffff168160000160006101000a81548173ffffffffffffffffffffffffffffffffffffffff021916908373ffffffffffffffffffffffffffffffffffffffff1602179055506001820181600101908054600181600116156101000203166002900461322e9291906145be565b50600282018160020190805460018160011615610100020316600290046132569291906145be565b505050600f820181600f016000820160009054906101000a900473ffffffffffffffffffffffffffffffffffffffff168160000160006101000a81548173ffffffffffffffffffffffffffffffffffffffff021916908373ffffffffffffffffffffffffffffffffffffffff160217905550600182018160010190805460018160011615610100020316600290046132ef9291906145be565b50600282018160020190805460018160011615610100020316600290046133179291906145be565b5050505050507fda1b5272c78a876b6ee948dcb311f9d42ebabc9dd56c7c7a29798aaea34f62f8826040518082815260200191505060405180910390a15050565b806005600881111561336657fe5b6003600083815260200190815260200160002060050160009054906101000a900460ff16600881111561339557fe5b1461339f57600080fd5b6133a833613f04565b6133b157600080fd5b336003600084815260200190815260200160002060000160006101000a81548173ffffffffffffffffffffffffffffffffffffffff021916908373ffffffffffffffffffffffffffffffffffffffff1602179055503360036000848152602001908152602001600020600c0160000160006101000a81548173ffffffffffffffffffffffffffffffffffffffff021916908373ffffffffffffffffffffffffffffffffffffffff16021790555060066003600084815260200190815260200160002060050160006101000a81548160ff0219169083600881111561349157fe5b02179055506004600083815260200190815260200160002060000160036000848152602001908152602001600020908060018154018082558091505090600182039060005260206000209060120201600090919290919091506000820160009054906101000a900473ffffffffffffffffffffffffffffffffffffffff168160000160006101000a81548173ffffffffffffffffffffffffffffffffffffffff021916908373ffffffffffffffffffffffffffffffffffffffff1602179055506001820181600101600082018160000190805460018160011615610100020316600290046135809291906145be565b506001820154816001015560028201548160020155600382018160030190805460018160011615610100020316600290046135bc9291906145be565b5050506005820160009054906101000a900460ff168160050160006101000a81548160ff021916908360088111156135f057fe5b021790555060068201816006016000820160009054906101000a900473ffffffffffffffffffffffffffffffffffffffff168160000160006101000a81548173ffffffffffffffffffffffffffffffffffffffff021916908373ffffffffffffffffffffffffffffffffffffffff1602179055506001820181600101908054600181600116156101000203166002900461368b9291906145be565b50600282018160020190805460018160011615610100020316600290046136b39291906145be565b50505060098201816009016000820160009054906101000a900473ffffffffffffffffffffffffffffffffffffffff168160000160006101000a81548173ffffffffffffffffffffffffffffffffffffffff021916908373ffffffffffffffffffffffffffffffffffffffff1602179055506001820181600101908054600181600116156101000203166002900461374c9291906145be565b50600282018160020190805460018160011615610100020316600290046137749291906145be565b505050600c820181600c016000820160009054906101000a900473ffffffffffffffffffffffffffffffffffffffff168160000160006101000a81548173ffffffffffffffffffffffffffffffffffffffff021916908373ffffffffffffffffffffffffffffffffffffffff1602179055506001820181600101908054600181600116156101000203166002900461380d9291906145be565b50600282018160020190805460018160011615610100020316600290046138359291906145be565b505050600f820181600f016000820160009054906101000a900473ffffffffffffffffffffffffffffffffffffffff168160000160006101000a81548173ffffffffffffffffffffffffffffffffffffffff021916908373ffffffffffffffffffffffffffffffffffffffff160217905550600182018160010190805460018160011615610100020316600290046138ce9291906145be565b50600282018160020190805460018160011615610100020316600290046138f69291906145be565b5050505050507fb6589947d486bf61c31a4e6d2e81d4d2c93e7832fdda27f2492009b4755c29ed826040518082815260200191505060405180910390a15050565b6003600082815260200190815260200160002060000160009054906101000a900473ffffffffffffffffffffffffffffffffffffffff168073ffffffffffffffffffffffffffffffffffffffff163373ffffffffffffffffffffffffffffffffffffffff16146139a657600080fd5b6003600083815260200190815260200160002060090160000160009054906101000a900473ffffffffffffffffffffffffffffffffffffffff168073ffffffffffffffffffffffffffffffffffffffff163373ffffffffffffffffffffffffffffffffffffffff1614613a1857600080fd5b613a2133610f42565b613a2a57600080fd5b60056003600085815260200190815260200160002060050160006101000a81548160ff02191690836008811115613a5d57fe5b02179055506004600084815260200190815260200160002060000160036000858152602001908152602001600020908060018154018082558091505090600182039060005260206000209060120201600090919290919091506000820160009054906101000a900473ffffffffffffffffffffffffffffffffffffffff168160000160006101000a81548173ffffffffffffffffffffffffffffffffffffffff021916908373ffffffffffffffffffffffffffffffffffffffff160217905550600182018160010160008201816000019080546001816001161561010002031660029004613b4c9291906145be565b50600182015481600101556002820154816002015560038201816003019080546001816001161561010002031660029004613b889291906145be565b5050506005820160009054906101000a900460ff168160050160006101000a81548160ff02191690836008811115613bbc57fe5b021790555060068201816006016000820160009054906101000a900473ffffffffffffffffffffffffffffffffffffffff168160000160006101000a81548173ffffffffffffffffffffffffffffffffffffffff021916908373ffffffffffffffffffffffffffffffffffffffff16021790555060018201816001019080546001816001161561010002031660029004613c579291906145be565b5060028201816002019080546001816001161561010002031660029004613c7f9291906145be565b50505060098201816009016000820160009054906101000a900473ffffffffffffffffffffffffffffffffffffffff168160000160006101000a81548173ffffffffffffffffffffffffffffffffffffffff021916908373ffffffffffffffffffffffffffffffffffffffff16021790555060018201816001019080546001816001161561010002031660029004613d189291906145be565b5060028201816002019080546001816001161561010002031660029004613d409291906145be565b505050600c820181600c016000820160009054906101000a900473ffffffffffffffffffffffffffffffffffffffff168160000160006101000a81548173ffffffffffffffffffffffffffffffffffffffff021916908373ffffffffffffffffffffffffffffffffffffffff16021790555060018201816001019080546001816001161561010002031660029004613dd99291906145be565b5060028201816002019080546001816001161561010002031660029004613e019291906145be565b505050600f820181600f016000820160009054906101000a900473ffffffffffffffffffffffffffffffffffffffff168160000160006101000a81548173ffffffffffffffffffffffffffffffffffffffff021916908373ffffffffffffffffffffffffffffffffffffffff16021790555060018201816001019080546001816001161561010002031660029004613e9a9291906145be565b5060028201816002019080546001816001161561010002031660029004613ec29291906145be565b5050505050507fc5c33776d405e5686e4386e1ef31a65cf6195e4f7ceb8808ab64d05b6ccbc2a6836040518082815260200191505060405180910390a1505050565b6000600260008373ffffffffffffffffffffffffffffffffffffffff1673ffffffffffffffffffffffffffffffffffffffff16815260200190815260200160002060000160029054906101000a900460ff169050919050565b60006003600083815260200190815260200160002060050160009054906101000a900460ff169050919050565b6003600082815260200190815260200160002060000160009054906101000a900473ffffffffffffffffffffffffffffffffffffffff168073ffffffffffffffffffffffffffffffffffffffff163373ffffffffffffffffffffffffffffffffffffffff1614613ff957600080fd5b61400233611995565b61400b57600080fd5b60026003600084815260200190815260200160002060050160006101000a81548160ff0219169083600881111561403e57fe5b02179055506004600083815260200190815260200160002060000160036000848152602001908152602001600020908060018154018082558091505090600182039060005260206000209060120201600090919290919091506000820160009054906101000a900473ffffffffffffffffffffffffffffffffffffffff168160000160006101000a81548173ffffffffffffffffffffffffffffffffffffffff021916908373ffffffffffffffffffffffffffffffffffffffff16021790555060018201816001016000820181600001908054600181600116156101000203166002900461412d9291906145be565b506001820154816001015560028201548160020155600382018160030190805460018160011615610100020316600290046141699291906145be565b5050506005820160009054906101000a900460ff168160050160006101000a81548160ff0219169083600881111561419d57fe5b021790555060068201816006016000820160009054906101000a900473ffffffffffffffffffffffffffffffffffffffff168160000160006101000a81548173ffffffffffffffffffffffffffffffffffffffff021916908373ffffffffffffffffffffffffffffffffffffffff160217905550600182018160010190805460018160011615610100020316600290046142389291906145be565b50600282018160020190805460018160011615610100020316600290046142609291906145be565b50505060098201816009016000820160009054906101000a900473ffffffffffffffffffffffffffffffffffffffff168160000160006101000a81548173ffffffffffffffffffffffffffffffffffffffff021916908373ffffffffffffffffffffffffffffffffffffffff160217905550600182018160010190805460018160011615610100020316600290046142f99291906145be565b50600282018160020190805460018160011615610100020316600290046143219291906145be565b505050600c820181600c016000820160009054906101000a900473ffffffffffffffffffffffffffffffffffffffff168160000160006101000a81548173ffffffffffffffffffffffffffffffffffffffff021916908373ffffffffffffffffffffffffffffffffffffffff160217905550600182018160010190805460018160011615610100020316600290046143ba9291906145be565b50600282018160020190805460018160011615610100020316600290046143e29291906145be565b505050600f820181600f016000820160009054906101000a900473ffffffffffffffffffffffffffffffffffffffff168160000160006101000a81548173ffffffffffffffffffffffffffffffffffffffff021916908373ffffffffffffffffffffffffffffffffffffffff1602179055506001820181600101908054600181600116156101000203166002900461447b9291906145be565b50600282018160020190805460018160011615610100020316600290046144a39291906145be565b5050505050507f25727bef8a186dd95a062151451f2d651551b53124c18208d7653b1217ae31ba826040518082815260200191505060405180910390a15050565b60008054905090565b600160009054906101000a900473ffffffffffffffffffffffffffffffffffffffff1673ffffffffffffffffffffffffffffffffffffffff163373ffffffffffffffffffffffffffffffffffffffff161461454757600080fd5b61455081613f04565b1561455a57600080fd5b6001600260008373ffffffffffffffffffffffffffffffffffffffff1673ffffffffffffffffffffffffffffffffffffffff16815260200190815260200160002060000160026101000a81548160ff02191690831515021790555050565b60005481565b828054600181600116156101000203166002900490600052602060002090601f016020900481019282601f106145f75780548555614634565b8280016001018555821561463457600052602060002091601f016020900482015b82811115614633578254825591600101919060010190614618565b5b5090506146419190614741565b5090565b6040518060e00160405280600073ffffffffffffffffffffffffffffffffffffffff168152602001614675614766565b81526020016000600881111561468757fe5b815260200161469461478e565b81526020016146a16147c5565b81526020016146ae6147fc565b81526020016146bb614833565b81525090565b828054600181600116156101000203166002900490600052602060002090601f016020900481019282601f1061470257805160ff1916838001178555614730565b82800160010185558215614730579182015b8281111561472f578251825591602001919060010190614714565b5b50905061473d9190614741565b5090565b61476391905b8082111561475f576000816000905550600101614747565b5090565b90565b6040518060800160405280606081526020016000815260200160008152602001606081525090565b6040518060600160405280600073ffffffffffffffffffffffffffffffffffffffff16815260200160608152602001606081525090565b6040518060600160405280600073ffffffffffffffffffffffffffffffffffffffff16815260200160608152602001606081525090565b6040518060600160405280600073ffffffffffffffffffffffffffffffffffffffff16815260200160608152602001606081525090565b6040518060600160405280600073ffffffffffffffffffffffffffffffffffffffff1681526020016060815260200160608152509056fea265627a7a723158200652993fe33686bec3ed5492761728156bf88d2c8e87649ac5d33d7063aa14bd64736f6c63430005100032",
  "source": "// SPDX-License-Identifier: MIT\r\npragma solidity >=0.4.21 <8.10.0;\r\n\r\nimport \"./Structure.sol\";\r\n\r\ncontract SupplyChain {\r\n    uint256 public uid;\r\n    address owner;\r\n\r\n    mapping(address => Structure.Roles) roles;\r\n    mapping(uint256 => Structure.Product) products;\r\n    mapping(uint256 => Structure.ProductHistory) productHistory;\r\n\r\n    constructor() public {\r\n        owner = msg.sender;\r\n        uid = 1;\r\n    }\r\n\r\n    event Manufactured(uint256 uid);\r\n    event PurchasedByDistributor(uint256 uid);\r\n    event ShippedByManufacturer(uint256 uid);\r\n    event ReceivedByDistributor(uint256 uid);\r\n    event PurchasedByVaccinationCenter(uint256 uid);\r\n    event ShippedByDistributor(uint256 uid);\r\n    event ReceivedByDeliveryHub(uint256 uid);\r\n    event ShippedByDeliveryHub(uint256 uid);\r\n    event ReceivedByVaccinationCenter(uint256 uid);\r\n\r\n    function hasManufacturerRole(address _account) public view returns (bool) {\r\n        return roles[_account].Manufacturer;\r\n    }\r\n\r\n    function addManufacturerRole(address _account) public {\r\n        require(msg.sender == owner);\r\n        require(!hasManufacturerRole(_account));\r\n        roles[_account].Manufacturer = true;\r\n    }\r\n\r\n    function hasDistributorRole(address _account) public view returns (bool) {\r\n        return roles[_account].Distributor;\r\n    }\r\n\r\n    function addDistributorRole(address _account) public {\r\n        require(msg.sender == owner);\r\n        require(!hasDistributorRole(_account));\r\n        roles[_account].Distributor = true;\r\n    }\r\n\r\n    function hasDeliveryHubRole(address _account) public view returns (bool) {\r\n        return roles[_account].DeliveryHub;\r\n    }\r\n\r\n    function addDeliveryHubRole(address _account) public {\r\n        require(msg.sender == owner);\r\n        require(!hasDeliveryHubRole(_account));\r\n\r\n        roles[_account].DeliveryHub = true;\r\n    }\r\n\r\n    function hasVaccinationCenterRole(address _account)\r\n        public\r\n        view\r\n        returns (bool)\r\n    {\r\n        return roles[_account].VaccinationCenter;\r\n    }\r\n\r\n    function addVaccinationCenterRole(address _account) public {\r\n        require(msg.sender == owner);\r\n        require(!hasVaccinationCenterRole(_account));\r\n        roles[_account].VaccinationCenter = true;\r\n    }\r\n\r\n    modifier verifyAddress(address add) {\r\n        require(msg.sender == add);\r\n        _;\r\n    }\r\n\r\n    modifier manufactured(uint256 _uid) {\r\n        require(products[_uid].productState == Structure.State.Manufactured);\r\n        _;\r\n    }\r\n\r\n    modifier shippedByManufacturer(uint256 _uid) {\r\n        require(\r\n            products[_uid].productState == Structure.State.ShippedByManufacturer\r\n        );\r\n        _;\r\n    }\r\n\r\n    modifier receivedByDistributor(uint256 _uid) {\r\n        require(\r\n            products[_uid].productState == Structure.State.ReceivedByDistributor\r\n        );\r\n        _;\r\n    }\r\n\r\n    modifier purchasedByVaccinationCenter(uint256 _uid) {\r\n        require(\r\n            products[_uid].productState == Structure.State.PurchasedByVaccinationCenter\r\n        );\r\n        _;\r\n    }\r\n\r\n    modifier shippedByDistributor(uint256 _uid) {\r\n        require(\r\n            products[_uid].productState == Structure.State.ShippedByDistributor\r\n        );\r\n        _;\r\n    }\r\n\r\n    modifier receivedByDeliveryHub(uint256 _uid) {\r\n        require(\r\n            products[_uid].productState == Structure.State.ReceivedByDeliveryHub\r\n        );\r\n        _;\r\n    }\r\n\r\n    modifier shippedByDeliveryHub(uint256 _uid) {\r\n        require(\r\n            products[_uid].productState == Structure.State.ShippedByDeliveryHub\r\n        );\r\n        _;\r\n    }\r\n\r\n    modifier receivedByVaccinationCenter(uint256 _uid) {\r\n        require(\r\n            products[_uid].productState == Structure.State.ReceivedByVaccinationCenter\r\n        );\r\n        _;\r\n    }\r\n\r\n    // STEP 1 : Manufacture a product.\r\n    function manufactureProduct(\r\n        // string memory manufacturerLongitude,\r\n        // string memory manufacturerLatitude,\r\n        string memory productName,\r\n        uint256 productPrice,\r\n        string memory productCategory\r\n    ) public {\r\n        require(hasManufacturerRole(msg.sender));\r\n        Structure.Product memory product;\r\n        product.owner=msg.sender;\r\n        product.productdet.productid = uid;\r\n        product.productdet.productName = productName;\r\n        product.productdet.productPrice = productPrice;\r\n        product.productdet.productCategory = productCategory;\r\n        product.manufacturer.manufacturer = msg.sender;\r\n        // product.manufacturer.manufacturerLongitude = manufacturerLongitude;\r\n        // product.manufacturer.manufacturerLatitude = manufacturerLatitude;\r\n        product.productState = Structure.State.Manufactured;\r\n\r\n        products[uid] = product;\r\n\r\n        productHistory[uid].history.push(product);\r\n\r\n        emit Manufactured(uid);\r\n        uid = uid + 1;\r\n    }\r\n\r\n   // STEP 2 : Purchase of manufactured product by Distributor.\r\n    function purchaseByDistributor(uint256 _uid) public manufactured(_uid) {\r\n        require(hasDistributorRole((msg.sender)));\r\n        products[_uid].distributor.distributor = msg.sender;\r\n        products[_uid].productState = Structure.State.PurchasedByDistributor;\r\n        productHistory[_uid].history.push(products[_uid]);\r\n\r\n        emit PurchasedByDistributor(_uid);\r\n    }\r\n\r\n    // STEP 3 : Shipping of purchased product to Distributor.\r\n    function shipToDistributor(uint256 _uid)\r\n        public\r\n        verifyAddress(products[_uid].owner)\r\n    {\r\n        require(hasManufacturerRole(msg.sender));\r\n        products[_uid].productState = Structure.State.ShippedByManufacturer;\r\n        productHistory[_uid].history.push(products[_uid]);\r\n\r\n        emit ShippedByManufacturer(_uid);\r\n    }\r\n\r\n    // STEP 4 : Receive the purchased product shipped by Manufacturer.\r\n    function receiveByDistributor(\r\n        uint256 _uid\r\n        // string memory distributorLongitude,\r\n        // string memory distributorLatitude\r\n    )\r\n        public\r\n        shippedByManufacturer(_uid)\r\n        verifyAddress(products[_uid].distributor.distributor)\r\n    {\r\n        require(hasDistributorRole(msg.sender));\r\n        products[_uid].owner = msg.sender;\r\n        // products[_uid].distributor.distributorLongitude = distributorLongitude;\r\n        // products[_uid].distributor.distributorLatitude = distributorLatitude;\r\n        products[_uid].productState = Structure.State.ReceivedByDistributor;\r\n        productHistory[_uid].history.push(products[_uid]);\r\n\r\n        emit ReceivedByDistributor(_uid);\r\n    }\r\n\r\n    // STEP 5 : Purchase of a product at Distributor by VaccinationCenter.\r\n    function purchaseByVaccinationCenter(uint256 _uid)\r\n        public\r\n        receivedByDistributor(_uid)\r\n    {\r\n        require(hasVaccinationCenterRole(msg.sender));\r\n        products[_uid].vaccinationcenter.vaccinationcenter = msg.sender;\r\n        products[_uid].productState = Structure.State.PurchasedByVaccinationCenter;\r\n        productHistory[_uid].history.push(products[_uid]);\r\n\r\n        emit PurchasedByVaccinationCenter(_uid);\r\n    }\r\n\r\n    // STEP 6 : Shipping of product by Distributor purchased by VaccinationCenter.\r\n    function shipByDistributor(uint256 _uid)\r\n        public\r\n        verifyAddress(products[_uid].owner)\r\n        verifyAddress(products[_uid].distributor.distributor)\r\n    {\r\n        require(hasDistributorRole(msg.sender));\r\n        products[_uid].productState = Structure.State.ShippedByDistributor;\r\n        productHistory[_uid].history.push(products[_uid]);\r\n\r\n        emit ShippedByDistributor(_uid);\r\n    }\r\n\r\n    // STEP 7 : Receiveing of product by delivery hub purchased by VaccinationCenter.\r\n    function receiveByDeliveryHub(\r\n        uint256 _uid\r\n        // string memory deliveryHubLongitude,\r\n        // string memory deliveryHubLatitude\r\n    ) public shippedByDistributor(_uid) {\r\n        require(hasDeliveryHubRole(msg.sender));\r\n        products[_uid].owner = msg.sender;\r\n        products[_uid].deliveryhub.deliveryhub = msg.sender;\r\n        // products[_uid].deliveryhub.deliveryHubLongitude = deliveryHubLongitude;\r\n        // products[_uid].deliveryhub.deliveryHubLatitude = deliveryHubLatitude;\r\n        products[_uid].productState = Structure.State.ReceivedByDeliveryHub;\r\n        productHistory[_uid].history.push(products[_uid]);\r\n\r\n        emit ReceivedByDeliveryHub(_uid);\r\n    }\r\n\r\n    // STEP 8 : Shipping of product by delivery hub purchased by VaccinationCenter.\r\n    function shipByDeliveryHub(uint256 _uid)\r\n        public\r\n        receivedByDeliveryHub(_uid)\r\n        verifyAddress(products[_uid].owner)\r\n    {\r\n        require(hasDeliveryHubRole(msg.sender));\r\n        products[_uid].productState = Structure.State.ShippedByDeliveryHub;\r\n        productHistory[_uid].history.push(products[_uid]);\r\n\r\n        emit ShippedByDeliveryHub(_uid);\r\n    }\r\n\r\n    // STEP 9 : Receive the purchased product by VaccinationCenter.\r\n    function receiveByCustomer(\r\n        uint256 _uid\r\n        // string memory vaccinationcenterLongitude,\r\n        // string memory vaccinationcenterLatitude\r\n        )\r\n        public\r\n        shippedByDeliveryHub(_uid)\r\n        verifyAddress(products[_uid].vaccinationcenter.vaccinationcenter)\r\n    {\r\n        require(hasVaccinationCenterRole(msg.sender));\r\n        products[_uid].owner = msg.sender;\r\n        // products[_uid].vaccinationcenter.vaccinationcenterLongitude = vaccinationcenterLongitude;\r\n        // products[_uid].vaccinationcenter.vaccinationcenterLatitude = vaccinationcenterLatitude;\r\n        products[_uid].productState = Structure.State.ReceivedByVaccinationCenter;\r\n        productHistory[_uid].history.push(products[_uid]);\r\n\r\n        emit ReceivedByVaccinationCenter(_uid);\r\n    }\r\n\r\n    function fetchProductCount() public view returns (uint256) {\r\n        return uid;\r\n    }\r\n\r\n    function fetchProductState(uint256 _uid) public view returns (Structure.State) {\r\n        return products[_uid].productState;\r\n    }\r\n\r\n    function fetchProduct(uint256 _uid) public view returns (\r\n        address,\r\n    uint256,\r\n    string memory,\r\n    uint256,\r\n    string memory,\r\n    Structure.State,\r\n    address,\r\n    address,\r\n    address,\r\n    address\r\n    ) {\r\n        Structure.Product storage product = products[_uid];\r\n        return ( product.owner, product.productdet.productid, product.productdet.productName, product.productdet.productPrice, product.productdet.productCategory, product.productState,  product.manufacturer.manufacturer,\r\n         product.distributor.distributor, product.deliveryhub.deliveryhub, product.vaccinationcenter.vaccinationcenter);\r\n    }\r\n\r\n}\r\n",
  "sourcePath": "C:\\Users\\Lenovo\\Desktop\\major\\vaccine-distributtion-system\\contracts\\SupplyChain.sol",
  "compiler": {
    "name": "solc",
    "version": "0.5.16+commit.9c3226ce.Emscripten.clang"
  },
  "schemaVersion": "3.4.13",
  "updatedAt": "2023-04-22T09:49:34.526Z",
  "networkType": "ethereum",
  "devdoc": {
    "methods": {}
  },
  "userdoc": {
    "methods": {}
  }
}