{
  "contractName": "SupplyChain",
  "abi": [
    {
      "inputs": [],
      "payable": false,
      "stateMutability": "nonpayable",
      "type": "constructor"
    },
    {
      "constant": true,
      "inputs": [],
      "name": "uid",
      "outputs": [
        {
          "internalType": "uint256",
          "name": "",
          "type": "uint256"
        }
      ],
      "payable": false,
      "stateMutability": "view",
      "type": "function"
    },
    {
      "constant": true,
      "inputs": [
        {
          "internalType": "address",
          "name": "_account",
          "type": "address"
        }
      ],
      "name": "hasManufacturerRole",
      "outputs": [
        {
          "internalType": "bool",
          "name": "",
          "type": "bool"
        }
      ],
      "payable": false,
      "stateMutability": "view",
      "type": "function"
    },
    {
      "constant": false,
      "inputs": [
        {
          "internalType": "address",
          "name": "_account",
          "type": "address"
        }
      ],
      "name": "addManufacturerRole",
      "outputs": [],
      "payable": false,
      "stateMutability": "nonpayable",
      "type": "function"
    },
    {
      "constant": true,
      "inputs": [
        {
          "internalType": "address",
          "name": "_account",
          "type": "address"
        }
      ],
      "name": "hasDistributorRole",
      "outputs": [
        {
          "internalType": "bool",
          "name": "",
          "type": "bool"
        }
      ],
      "payable": false,
      "stateMutability": "view",
      "type": "function"
    },
    {
      "constant": false,
      "inputs": [
        {
          "internalType": "address",
          "name": "_account",
          "type": "address"
        }
      ],
      "name": "addDistributorRole",
      "outputs": [],
      "payable": false,
      "stateMutability": "nonpayable",
      "type": "function"
    },
    {
      "constant": true,
      "inputs": [
        {
          "internalType": "address",
          "name": "_account",
          "type": "address"
        }
      ],
      "name": "hasDeliveryRole",
      "outputs": [
        {
          "internalType": "bool",
          "name": "",
          "type": "bool"
        }
      ],
      "payable": false,
      "stateMutability": "view",
      "type": "function"
    },
    {
      "constant": false,
      "inputs": [
        {
          "internalType": "address",
          "name": "_account",
          "type": "address"
        }
      ],
      "name": "addDeliveryRole",
      "outputs": [],
      "payable": false,
      "stateMutability": "nonpayable",
      "type": "function"
    },
    {
      "constant": true,
      "inputs": [
        {
          "internalType": "address",
          "name": "_account",
          "type": "address"
        }
      ],
      "name": "hasVaccinationCenterRole",
      "outputs": [
        {
          "internalType": "bool",
          "name": "",
          "type": "bool"
        }
      ],
      "payable": false,
      "stateMutability": "view",
      "type": "function"
    },
    {
      "constant": false,
      "inputs": [
        {
          "internalType": "address",
          "name": "_account",
          "type": "address"
        }
      ],
      "name": "addVaccinationCenterRole",
      "outputs": [],
      "payable": false,
      "stateMutability": "nonpayable",
      "type": "function"
    }
  ],
  "bytecode": "0x608060405234801561001057600080fd5b5033600160006101000a81548173ffffffffffffffffffffffffffffffffffffffff021916908373ffffffffffffffffffffffffffffffffffffffff1602179055506001600081905550610801806100696000396000f3fe608060405234801561001057600080fd5b50600436106100935760003560e01c80636971d383116100665780636971d383146101f05780637c7507c41461024c5780638290f85914610290578063a8a7acad146102d4578063f514ce361461031857610093565b806303ea0b5a14610098578063179c5c57146100f45780635ac65f30146101385780636000ada114610194575b600080fd5b6100da600480360360208110156100ae57600080fd5b81019080803573ffffffffffffffffffffffffffffffffffffffff169060200190929190505050610336565b604051808215151515815260200191505060405180910390f35b6101366004803603602081101561010a57600080fd5b81019080803573ffffffffffffffffffffffffffffffffffffffff16906020019092919050505061038f565b005b61017a6004803603602081101561014e57600080fd5b81019080803573ffffffffffffffffffffffffffffffffffffffff16906020019092919050505061045a565b604051808215151515815260200191505060405180910390f35b6101d6600480360360208110156101aa57600080fd5b81019080803573ffffffffffffffffffffffffffffffffffffffff1690602001909291905050506104b3565b604051808215151515815260200191505060405180910390f35b6102326004803603602081101561020657600080fd5b81019080803573ffffffffffffffffffffffffffffffffffffffff16906020019092919050505061050c565b604051808215151515815260200191505060405180910390f35b61028e6004803603602081101561026257600080fd5b81019080803573ffffffffffffffffffffffffffffffffffffffff169060200190929190505050610565565b005b6102d2600480360360208110156102a657600080fd5b81019080803573ffffffffffffffffffffffffffffffffffffffff169060200190929190505050610630565b005b610316600480360360208110156102ea57600080fd5b81019080803573ffffffffffffffffffffffffffffffffffffffff1690602001909291905050506106fb565b005b6103206107c6565b6040518082815260200191505060405180910390f35b6000600260008373ffffffffffffffffffffffffffffffffffffffff1673ffffffffffffffffffffffffffffffffffffffff16815260200190815260200160002060000160019054906101000a900460ff169050919050565b600160009054906101000a900473ffffffffffffffffffffffffffffffffffffffff1673ffffffffffffffffffffffffffffffffffffffff163373ffffffffffffffffffffffffffffffffffffffff16146103e957600080fd5b6103f28161045a565b156103fc57600080fd5b6001600260008373ffffffffffffffffffffffffffffffffffffffff1673ffffffffffffffffffffffffffffffffffffffff16815260200190815260200160002060000160026101000a81548160ff02191690831515021790555050565b6000600260008373ffffffffffffffffffffffffffffffffffffffff1673ffffffffffffffffffffffffffffffffffffffff16815260200190815260200160002060000160029054906101000a900460ff169050919050565b6000600260008373ffffffffffffffffffffffffffffffffffffffff1673ffffffffffffffffffffffffffffffffffffffff16815260200190815260200160002060000160009054906101000a900460ff169050919050565b6000600260008373ffffffffffffffffffffffffffffffffffffffff1673ffffffffffffffffffffffffffffffffffffffff16815260200190815260200160002060000160039054906101000a900460ff169050919050565b600160009054906101000a900473ffffffffffffffffffffffffffffffffffffffff1673ffffffffffffffffffffffffffffffffffffffff163373ffffffffffffffffffffffffffffffffffffffff16146105bf57600080fd5b6105c88161050c565b156105d257600080fd5b6001600260008373ffffffffffffffffffffffffffffffffffffffff1673ffffffffffffffffffffffffffffffffffffffff16815260200190815260200160002060000160036101000a81548160ff02191690831515021790555050565b600160009054906101000a900473ffffffffffffffffffffffffffffffffffffffff1673ffffffffffffffffffffffffffffffffffffffff163373ffffffffffffffffffffffffffffffffffffffff161461068a57600080fd5b610693816104b3565b1561069d57600080fd5b6001600260008373ffffffffffffffffffffffffffffffffffffffff1673ffffffffffffffffffffffffffffffffffffffff16815260200190815260200160002060000160006101000a81548160ff02191690831515021790555050565b600160009054906101000a900473ffffffffffffffffffffffffffffffffffffffff1673ffffffffffffffffffffffffffffffffffffffff163373ffffffffffffffffffffffffffffffffffffffff161461075557600080fd5b61075e81610336565b1561076857600080fd5b6001600260008373ffffffffffffffffffffffffffffffffffffffff1673ffffffffffffffffffffffffffffffffffffffff16815260200190815260200160002060000160016101000a81548160ff02191690831515021790555050565b6000548156fea265627a7a72315820bf27ec7ba049f39ca03a365470a5348a662cfd1607ac1be2d6c54a0fe0fc50b064736f6c63430005100032",
  "source": "// SPDX-License-Identifier: MIT\npragma solidity >=0.4.21 <8.10.0;\n\nimport \"./Structure.sol\";\n\ncontract SupplyChain {\n  uint256 public uid;\n  address owner;\n\n  mapping(address => Structure.Roles) roles;\n\n\n  constructor() public{\n        owner = msg.sender;\n        uid = 1;\n    }\n\n  function hasManufacturerRole(address _account) public view returns (bool) {\n        return roles[_account].Manufacturer;\n    }\n\n  function addManufacturerRole(address _account) public {\n    require(msg.sender==owner);\n    require(!hasManufacturerRole(_account));\n        roles[_account].Manufacturer = true;\n    }\n\n  function hasDistributorRole(address _account) public view returns (bool) {\n        return roles[_account].Distributor;\n    }\n\n  function addDistributorRole(address _account) public {\n    require(msg.sender==owner);\n    require(!hasDistributorRole(_account));\n        roles[_account].Distributor = true;\n    }\n\n  function hasDeliveryRole(address _account) public view returns (bool) {\n        return roles[_account].Delivery;\n    }\n\n  function addDeliveryRole(address _account) public {\n    require(msg.sender==owner);\n    require(!hasDeliveryRole(_account));\n\n        roles[_account].Delivery = true;\n    }\n\n  function hasVaccinationCenterRole(address _account) public view returns (bool) {\n        return roles[_account].VaccinationCenter;\n    }\n\n  function addVaccinationCenterRole(address _account) public {\n    require(msg.sender==owner);\n    require(!hasVaccinationCenterRole(_account));\n        roles[_account].VaccinationCenter = true;\n    }\n\n}\n",
  "sourcePath": "/home/piyush/Desktop/major-project/vaccine-distributtion-system/contracts/SupplyChain.sol",
  "compiler": {
    "name": "solc",
    "version": "0.5.16+commit.9c3226ce.Emscripten.clang"
  },
  "schemaVersion": "3.4.3",
  "updatedAt": "2022-01-30T07:44:32.799Z",
  "networkType": "ethereum",
  "devdoc": {
    "methods": {}
  },
  "userdoc": {
    "methods": {}
  }
}